{
  "contractName": "RuleEngine",
  "abi": [
    {
      "type": "constructor",
      "inputs": [
        {
          "name": "admin",
          "type": "address",
          "internalType": "address"
        },
        {
          "name": "forwarderIrrevocable",
          "type": "address",
          "internalType": "address"
        },
        {
          "name": "tokenContract",
          "type": "address",
          "internalType": "address"
        }
      ],
      "stateMutability": "nonpayable"
    },
    {
      "type": "function",
      "name": "DEFAULT_ADMIN_ROLE",
      "inputs": [],
      "outputs": [
        {
          "name": "",
          "type": "bytes32",
          "internalType": "bytes32"
        }
      ],
      "stateMutability": "view"
    },
    {
      "type": "function",
      "name": "RULE_ENGINE_OPERATOR_ROLE",
      "inputs": [],
      "outputs": [
        {
          "name": "",
          "type": "bytes32",
          "internalType": "bytes32"
        }
      ],
      "stateMutability": "view"
    },
    {
      "type": "function",
      "name": "TOKEN_CONTRACT_ROLE",
      "inputs": [],
      "outputs": [
        {
          "name": "",
          "type": "bytes32",
          "internalType": "bytes32"
        }
      ],
      "stateMutability": "view"
    },
    {
      "type": "function",
      "name": "addRuleOperation",
      "inputs": [
        {
          "name": "rule_",
          "type": "address",
          "internalType": "contract IRuleOperation"
        }
      ],
      "outputs": [],
      "stateMutability": "nonpayable"
    },
    {
      "type": "function",
      "name": "addRuleValidation",
      "inputs": [
        {
          "name": "rule_",
          "type": "address",
          "internalType": "contract IRuleValidation"
        }
      ],
      "outputs": [],
      "stateMutability": "nonpayable"
    },
    {
      "type": "function",
      "name": "clearRulesOperation",
      "inputs": [],
      "outputs": [],
      "stateMutability": "nonpayable"
    },
    {
      "type": "function",
      "name": "clearRulesValidation",
      "inputs": [],
      "outputs": [],
      "stateMutability": "nonpayable"
    },
    {
      "type": "function",
      "name": "detectTransferRestriction",
      "inputs": [
        {
          "name": "_from",
          "type": "address",
          "internalType": "address"
        },
        {
          "name": "_to",
          "type": "address",
          "internalType": "address"
        },
        {
          "name": "_amount",
          "type": "uint256",
          "internalType": "uint256"
        }
      ],
      "outputs": [
        {
          "name": "",
          "type": "uint8",
          "internalType": "uint8"
        }
      ],
      "stateMutability": "view"
    },
    {
      "type": "function",
      "name": "detectTransferRestrictionValidation",
      "inputs": [
        {
          "name": "_from",
          "type": "address",
          "internalType": "address"
        },
        {
          "name": "_to",
          "type": "address",
          "internalType": "address"
        },
        {
          "name": "_amount",
          "type": "uint256",
          "internalType": "uint256"
        }
      ],
      "outputs": [
        {
          "name": "",
          "type": "uint8",
          "internalType": "uint8"
        }
      ],
      "stateMutability": "view"
    },
    {
      "type": "function",
      "name": "getRoleAdmin",
      "inputs": [
        {
          "name": "role",
          "type": "bytes32",
          "internalType": "bytes32"
        }
      ],
      "outputs": [
        {
          "name": "",
          "type": "bytes32",
          "internalType": "bytes32"
        }
      ],
      "stateMutability": "view"
    },
    {
      "type": "function",
      "name": "getRuleIndexOperation",
      "inputs": [
        {
          "name": "rule_",
          "type": "address",
          "internalType": "contract IRuleOperation"
        }
      ],
      "outputs": [
        {
          "name": "index",
          "type": "uint256",
          "internalType": "uint256"
        }
      ],
      "stateMutability": "view"
    },
    {
      "type": "function",
      "name": "getRuleIndexValidation",
      "inputs": [
        {
          "name": "rule_",
          "type": "address",
          "internalType": "contract IRuleValidation"
        }
      ],
      "outputs": [
        {
          "name": "index",
          "type": "uint256",
          "internalType": "uint256"
        }
      ],
      "stateMutability": "view"
    },
    {
      "type": "function",
      "name": "grantRole",
      "inputs": [
        {
          "name": "role",
          "type": "bytes32",
          "internalType": "bytes32"
        },
        {
          "name": "account",
          "type": "address",
          "internalType": "address"
        }
      ],
      "outputs": [],
      "stateMutability": "nonpayable"
    },
    {
      "type": "function",
      "name": "hasRole",
      "inputs": [
        {
          "name": "role",
          "type": "bytes32",
          "internalType": "bytes32"
        },
        {
          "name": "account",
          "type": "address",
          "internalType": "address"
        }
      ],
      "outputs": [
        {
          "name": "",
          "type": "bool",
          "internalType": "bool"
        }
      ],
      "stateMutability": "view"
    },
    {
      "type": "function",
      "name": "isTrustedForwarder",
      "inputs": [
        {
          "name": "forwarder",
          "type": "address",
          "internalType": "address"
        }
      ],
      "outputs": [
        {
          "name": "",
          "type": "bool",
          "internalType": "bool"
        }
      ],
      "stateMutability": "view"
    },
    {
      "type": "function",
      "name": "messageForTransferRestriction",
      "inputs": [
        {
          "name": "_restrictionCode",
          "type": "uint8",
          "internalType": "uint8"
        }
      ],
      "outputs": [
        {
          "name": "",
          "type": "string",
          "internalType": "string"
        }
      ],
      "stateMutability": "view"
    },
    {
      "type": "function",
      "name": "operateOnTransfer",
      "inputs": [
        {
          "name": "from",
          "type": "address",
          "internalType": "address"
        },
        {
          "name": "to",
          "type": "address",
          "internalType": "address"
        },
        {
          "name": "amount",
          "type": "uint256",
          "internalType": "uint256"
        }
      ],
      "outputs": [
        {
          "name": "isValid",
          "type": "bool",
          "internalType": "bool"
        }
      ],
      "stateMutability": "nonpayable"
    },
    {
      "type": "function",
      "name": "removeRuleOperation",
      "inputs": [
        {
          "name": "rule_",
          "type": "address",
          "internalType": "contract IRuleOperation"
        },
        {
          "name": "index",
          "type": "uint256",
          "internalType": "uint256"
        }
      ],
      "outputs": [],
      "stateMutability": "nonpayable"
    },
    {
      "type": "function",
      "name": "removeRuleValidation",
      "inputs": [
        {
          "name": "rule_",
          "type": "address",
          "internalType": "contract IRuleValidation"
        },
        {
          "name": "index",
          "type": "uint256",
          "internalType": "uint256"
        }
      ],
      "outputs": [],
      "stateMutability": "nonpayable"
    },
    {
      "type": "function",
      "name": "renounceRole",
      "inputs": [
        {
          "name": "role",
          "type": "bytes32",
          "internalType": "bytes32"
        },
        {
          "name": "callerConfirmation",
          "type": "address",
          "internalType": "address"
        }
      ],
      "outputs": [],
      "stateMutability": "nonpayable"
    },
    {
      "type": "function",
      "name": "revokeRole",
      "inputs": [
        {
          "name": "role",
          "type": "bytes32",
          "internalType": "bytes32"
        },
        {
          "name": "account",
          "type": "address",
          "internalType": "address"
        }
      ],
      "outputs": [],
      "stateMutability": "nonpayable"
    },
    {
      "type": "function",
      "name": "ruleOperation",
      "inputs": [
        {
          "name": "ruleId",
          "type": "uint256",
          "internalType": "uint256"
        }
      ],
      "outputs": [
        {
          "name": "",
          "type": "address",
          "internalType": "address"
        }
      ],
      "stateMutability": "view"
    },
    {
      "type": "function",
      "name": "ruleValidation",
      "inputs": [
        {
          "name": "ruleId",
          "type": "uint256",
          "internalType": "uint256"
        }
      ],
      "outputs": [
        {
          "name": "",
          "type": "address",
          "internalType": "address"
        }
      ],
      "stateMutability": "view"
    },
    {
      "type": "function",
      "name": "rulesCountOperation",
      "inputs": [],
      "outputs": [
        {
          "name": "",
          "type": "uint256",
          "internalType": "uint256"
        }
      ],
      "stateMutability": "view"
    },
    {
      "type": "function",
      "name": "rulesCountValidation",
      "inputs": [],
      "outputs": [
        {
          "name": "",
          "type": "uint256",
          "internalType": "uint256"
        }
      ],
      "stateMutability": "view"
    },
    {
      "type": "function",
      "name": "rulesOperation",
      "inputs": [],
      "outputs": [
        {
          "name": "",
          "type": "address[]",
          "internalType": "address[]"
        }
      ],
      "stateMutability": "view"
    },
    {
      "type": "function",
      "name": "rulesValidation",
      "inputs": [],
      "outputs": [
        {
          "name": "",
          "type": "address[]",
          "internalType": "address[]"
        }
      ],
      "stateMutability": "view"
    },
    {
      "type": "function",
      "name": "setRulesOperation",
      "inputs": [
        {
          "name": "rules_",
          "type": "address[]",
          "internalType": "address[]"
        }
      ],
      "outputs": [],
      "stateMutability": "nonpayable"
    },
    {
      "type": "function",
      "name": "setRulesValidation",
      "inputs": [
        {
          "name": "rules_",
          "type": "address[]",
          "internalType": "address[]"
        }
      ],
      "outputs": [],
      "stateMutability": "nonpayable"
    },
    {
      "type": "function",
      "name": "supportsInterface",
      "inputs": [
        {
          "name": "interfaceId",
          "type": "bytes4",
          "internalType": "bytes4"
        }
      ],
      "outputs": [
        {
          "name": "",
          "type": "bool",
          "internalType": "bool"
        }
      ],
      "stateMutability": "view"
    },
    {
      "type": "function",
      "name": "trustedForwarder",
      "inputs": [],
      "outputs": [
        {
          "name": "",
          "type": "address",
          "internalType": "address"
        }
      ],
      "stateMutability": "view"
    },
    {
      "type": "function",
      "name": "validateTransfer",
      "inputs": [
        {
          "name": "_from",
          "type": "address",
          "internalType": "address"
        },
        {
          "name": "_to",
          "type": "address",
          "internalType": "address"
        },
        {
          "name": "_amount",
          "type": "uint256",
          "internalType": "uint256"
        }
      ],
      "outputs": [
        {
          "name": "",
          "type": "bool",
          "internalType": "bool"
        }
      ],
      "stateMutability": "view"
    },
    {
      "type": "function",
      "name": "validateTransferValidation",
      "inputs": [
        {
          "name": "_from",
          "type": "address",
          "internalType": "address"
        },
        {
          "name": "_to",
          "type": "address",
          "internalType": "address"
        },
        {
          "name": "_amount",
          "type": "uint256",
          "internalType": "uint256"
        }
      ],
      "outputs": [
        {
          "name": "",
          "type": "bool",
          "internalType": "bool"
        }
      ],
      "stateMutability": "view"
    },
    {
      "type": "event",
      "name": "AddRule",
      "inputs": [
        {
          "name": "rule",
          "type": "address",
          "indexed": true,
          "internalType": "address"
        }
      ],
      "anonymous": false
    },
    {
      "type": "event",
      "name": "ClearRules",
      "inputs": [
        {
          "name": "rulesRemoved",
          "type": "address[]",
          "indexed": false,
          "internalType": "address[]"
        }
      ],
      "anonymous": false
    },
    {
      "type": "event",
      "name": "RemoveRule",
      "inputs": [
        {
          "name": "rule",
          "type": "address",
          "indexed": true,
          "internalType": "address"
        }
      ],
      "anonymous": false
    },
    {
      "type": "event",
      "name": "RoleAdminChanged",
      "inputs": [
        {
          "name": "role",
          "type": "bytes32",
          "indexed": true,
          "internalType": "bytes32"
        },
        {
          "name": "previousAdminRole",
          "type": "bytes32",
          "indexed": true,
          "internalType": "bytes32"
        },
        {
          "name": "newAdminRole",
          "type": "bytes32",
          "indexed": true,
          "internalType": "bytes32"
        }
      ],
      "anonymous": false
    },
    {
      "type": "event",
      "name": "RoleGranted",
      "inputs": [
        {
          "name": "role",
          "type": "bytes32",
          "indexed": true,
          "internalType": "bytes32"
        },
        {
          "name": "account",
          "type": "address",
          "indexed": true,
          "internalType": "address"
        },
        {
          "name": "sender",
          "type": "address",
          "indexed": true,
          "internalType": "address"
        }
      ],
      "anonymous": false
    },
    {
      "type": "event",
      "name": "RoleRevoked",
      "inputs": [
        {
          "name": "role",
          "type": "bytes32",
          "indexed": true,
          "internalType": "bytes32"
        },
        {
          "name": "account",
          "type": "address",
          "indexed": true,
          "internalType": "address"
        },
        {
          "name": "sender",
          "type": "address",
          "indexed": true,
          "internalType": "address"
        }
      ],
      "anonymous": false
    },
    {
      "type": "error",
      "name": "AccessControlBadConfirmation",
      "inputs": []
    },
    {
      "type": "error",
      "name": "AccessControlUnauthorizedAccount",
      "inputs": [
        {
          "name": "account",
          "type": "address",
          "internalType": "address"
        },
        {
          "name": "neededRole",
          "type": "bytes32",
          "internalType": "bytes32"
        }
      ]
    },
    {
      "type": "error",
      "name": "RuleEngine_AdminWithAddressZeroNotAllowed",
      "inputs": []
    },
    {
      "type": "error",
      "name": "RuleEngine_ArrayIsEmpty",
      "inputs": []
    },
    {
      "type": "error",
      "name": "RuleEngine_RuleAddressZeroNotAllowed",
      "inputs": []
    },
    {
      "type": "error",
      "name": "RuleEngine_RuleAlreadyExists",
      "inputs": []
    },
    {
      "type": "error",
      "name": "RuleEngine_RuleDoNotMatch",
      "inputs": []
    },
    {
      "type": "error",
      "name": "RuleEngine_TransferInvalid",
      "inputs": []
    }
  ],
  "bytecode": "0x60a06040523480156200001157600080fd5b5060405162001db338038062001db3833981016040819052620000349162000246565b6001600160a01b0380831660805283166200006257604051630872273360e21b815260040160405180910390fd5b6001600160a01b03811615620000a0576200009e7fd32fd1ee5f4f111da6f27444787e5200ec57a8849509c00ef2998467052b32a382620000e4565b505b620000ad600084620000e4565b50620000da7fb3c151d85eb431da97012a1682e6ab41bddc7db1012e7c40bd326c24bf56f99984620000e4565b505050506200030f565b6000828152602081815260408083206001600160a01b038516845290915281205460ff166200018b576000838152602081815260408083206001600160a01b03861684529091529020805460ff191660011790556200014262000195565b6001600160a01b0316826001600160a01b0316847f2f8788117e7eff1d82e926ec794901d17c78024a50270940304540a733656f0d60405160405180910390a45060016200018f565b5060005b92915050565b6000620001a1620001a6565b905090565b6000366014620001b63362000202565b8015620001c35750808210155b15620001fa57600036620001d8838562000290565b620001e5928290620002b2565b620001f091620002de565b60601c9250505090565b339250505090565b60006200020e60805190565b6001600160a01b0316826001600160a01b0316149050919050565b80516001600160a01b03811681146200024157600080fd5b919050565b6000806000606084860312156200025c57600080fd5b620002678462000229565b9250620002776020850162000229565b9150620002876040850162000229565b90509250925092565b818103818111156200018f57634e487b7160e01b600052601160045260246000fd5b60008085851115620002c357600080fd5b83861115620002d157600080fd5b5050820193919092039150565b6001600160601b03198135818116916014851015620003075780818660140360031b1b83161692505b505092915050565b608051611a7a620003396000396000818161033d01528181610384015261137d0152611a7a6000f3fe608060405234801561001057600080fd5b50600436106101fa5760003560e01c80638a1b6c8e1161011a578063c6946a12116100ad578063ce29ed351161007c578063ce29ed3514610495578063d0e835f2146104a8578063d4ce1415146104bb578063d547741f146104ce578063eb2647e3146104e157600080fd5b8063c6946a1214610449578063ca1f6c4d1461045c578063ca3e16e71461046f578063cd1d4dc71461048257600080fd5b8063a39eda14116100e9578063a39eda1414610406578063c03888c21461041b578063c57086a11461042e578063c68a651a1461043657600080fd5b80638a1b6c8e146103db5780638a2021b1146103e357806391d14854146103eb578063a217fddf146103fe57600080fd5b806336568abe116101925780636728f545116101615780636728f5451461036d5780637da0a877146103825780637f4ab1dd146103a857806383304df0146103c857600080fd5b806336568abe146102dc578063397a7d3c146102ef5780634d53374e1461031a578063572b6c051461032d57600080fd5b806328aa67bc116101ce57806328aa67bc146102895780632f2ff15d146102ae578063323a4616146102c1578063334a29cc146102c957600080fd5b80621582f7146101ff57806301ffc9a7146102095780630fbbfb5514610231578063248a9ca314610266575b600080fd5b6102076104f4565b005b61021c6102173660046115bc565b610517565b60405190151581526020015b60405180910390f35b6102587fd32fd1ee5f4f111da6f27444787e5200ec57a8849509c00ef2998467052b32a381565b604051908152602001610228565b6102586102743660046115e6565b60009081526020819052604090206001015490565b61029c610297366004611614565b61054e565b60405160ff9091168152602001610228565b6102076102bc366004611655565b610626565b600354610258565b6102076102d7366004611685565b610651565b6102076102ea366004611655565b61068f565b6103026102fd3660046115e6565b6106d7565b6040516001600160a01b039091168152602001610228565b6102076103283660046116fa565b610707565b61021c61033b366004611726565b7f00000000000000000000000000000000000000000000000000000000000000006001600160a01b0390811691161490565b610258600080516020611a2583398151915281565b7f0000000000000000000000000000000000000000000000000000000000000000610302565b6103bb6103b6366004611752565b610729565b6040516102289190611793565b6102586103d6366004611726565b610960565b61020761096d565b600254610258565b61021c6103f9366004611655565b61098d565b610258600081565b61040e6109b6565b60405161022891906117c6565b61021c610429366004611614565b610a18565b61040e610a6f565b610207610444366004611726565b610acf565b61021c610457366004611614565b610b2a565b61020761046a366004611685565b610b44565b61030261047d3660046115e6565b610b82565b610207610490366004611726565b610b97565b6102076104a33660046116fa565b610bba565b6102586104b6366004611726565b610bdc565b61029c6104c9366004611614565b610be9565b6102076104dc366004611655565b610cde565b61021c6104ef366004611614565b610d03565b600080516020611a2583398151915261050c81610d11565b610514610d22565b50565b60006001600160e01b03198216637965db0b60e01b148061054857506301ffc9a760e01b6001600160e01b03198316145b92915050565b600254600090815b818110156106175760006002828154811061057357610573611813565b60009182526020909120015460405163d4ce141560e01b81526001600160a01b0389811660048301528881166024830152604482018890529091169063d4ce141590606401602060405180830381865afa1580156105d5573d6000803e3d6000fd5b505050506040513d601f19601f820116820180604052508101906105f99190611829565b905060ff81161561060e57925061061f915050565b50600101610556565b5060005b9150505b9392505050565b60008281526020819052604090206001015461064181610d11565b61064b8383610db2565b50505050565b600080516020611a2583398151915261066981610d11565b6002541561067957610679610e45565b6106838383610eca565b61064b60028484611544565b610697611065565b6001600160a01b0316816001600160a01b0316146106c85760405163334bd91960e11b815260040160405180910390fd5b6106d28282611074565b505050565b6000600282815481106106ec576106ec611813565b6000918252602090912001546001600160a01b031692915050565b600080516020611a2583398151915261071f81610d11565b6106d283836110fd565b60025460609060005b81811015610869576002818154811061074d5761074d611813565b600091825260209091200154604051633e822efb60e11b815260ff861660048201526001600160a01b0390911690637d045df690602401602060405180830381865afa1580156107a1573d6000803e3d6000fd5b505050506040513d601f19601f820116820180604052508101906107c59190611846565b1561086157600281815481106107dd576107dd611813565b600091825260209091200154604051637f4ab1dd60e01b815260ff861660048201526001600160a01b0390911690637f4ab1dd90602401600060405180830381865afa158015610831573d6000803e3d6000fd5b505050506040513d6000823e601f3d908101601f19168201604052610859919081019061187e565b949350505050565b600101610732565b505060035460005b81811015610924576003818154811061088c5761088c611813565b600091825260209091200154604051633e822efb60e11b815260ff861660048201526001600160a01b0390911690637d045df690602401602060405180830381865afa1580156108e0573d6000803e3d6000fd5b505050506040513d601f19601f820116820180604052508101906109049190611846565b1561091c57600381815481106107dd576107dd611813565b600101610871565b505060408051808201909152601881527f556e6b6e6f776e207265737472696374696f6e20636f64650000000000000000602082015292915050565b6000610548600283611141565b600080516020611a2583398151915261098581610d11565b610514610e45565b6000918252602082815260408084206001600160a01b0393909316845291905290205460ff1690565b60606003805480602002602001604051908101604052809291908181526020018280548015610a0e57602002820191906000526020600020905b81546001600160a01b031681526001909101906020018083116109f0575b5050505050905090565b60007fd32fd1ee5f4f111da6f27444787e5200ec57a8849509c00ef2998467052b32a3610a4481610d11565b610a4f858585610d03565b610a5c5760009150610a67565b61061b85858561119f565b509392505050565b60606002805480602002602001604051908101604052809291908181526020018280548015610a0e576020028201919060005260206000209081546001600160a01b031681526001909101906020018083116109f0575050505050905090565b600080516020611a25833981519152610ae781610d11565b610af2600383611274565b6040516001600160a01b038316907f60305ce6c9104acd0969d358f926bf391174340660aaf5e6215261fd6847bf4690600090a25050565b600080610b38858585610be9565b60ff1614949350505050565b600080516020611a25833981519152610b5c81610d11565b60035415610b6c57610b6c610d22565b610b768383610eca565b61064b60038484611544565b6000600382815481106106ec576106ec611813565b600080516020611a25833981519152610baf81610d11565b610af2600283611274565b600080516020611a25833981519152610bd281610d11565b6106d28383611320565b6000610548600383611141565b600080610bf785858561054e565b905060ff811615610c0957905061061f565b60035460005b81811015610cd157600060038281548110610c2c57610c2c611813565b60009182526020909120015460405163d4ce141560e01b81526001600160a01b038a811660048301528981166024830152604482018990529091169063d4ce141590606401602060405180830381865afa158015610c8e573d6000803e3d6000fd5b505050506040513d601f19601f82011682018060405250810190610cb29190611829565b905060ff811615610cc857935061061f92505050565b50600101610c0f565b5060009695505050505050565b600082815260208190526040902060010154610cf981610d11565b61064b8383611074565b600080610b3885858561054e565b61051481610d1d611065565b61132c565b6003546000905b8015610d7657600181039150610d6660038381548110610d4b57610d4b611813565b6000918252602090912001546001600160a01b031683611320565b610d6f81611941565b9050610d29565b507f93dd3e43e4773b52a627c0ce6a20183638a2d2a264cfc9b6b7da0cccc95ea4b26003604051610da79190611958565b60405180910390a150565b6000610dbe838361098d565b610e3d576000838152602081815260408083206001600160a01b03861684529091529020805460ff19166001179055610df5611065565b6001600160a01b0316826001600160a01b0316847f2f8788117e7eff1d82e926ec794901d17c78024a50270940304540a733656f0d60405160405180910390a4506001610548565b506000610548565b6002546000905b8015610e9957600181039150610e8960028381548110610e6e57610e6e611813565b6000918252602090912001546001600160a01b0316836110fd565b610e9281611941565b9050610e4c565b507f93dd3e43e4773b52a627c0ce6a20183638a2d2a264cfc9b6b7da0cccc95ea4b26002604051610da79190611958565b6000819003610eec57604051630b9b3e5960e21b815260040160405180910390fd5b60005b818110156106d2576000838383818110610f0b57610f0b611813565b9050602002016020810190610f209190611726565b6001600160a01b031603610f47576040516350092f7560e11b815260040160405180910390fd5b60016000848484818110610f5d57610f5d611813565b9050602002016020810190610f729190611726565b6001600160a01b0316815260208101919091526040016000205460ff1615610fad5760405163860d015160e01b815260040160405180910390fd5b6001806000858585818110610fc457610fc4611813565b9050602002016020810190610fd99190611726565b6001600160a01b031681526020810191909152604001600020805460ff191691151591909117905582828281811061101357611013611813565b90506020020160208101906110289190611726565b6001600160a01b03167f60305ce6c9104acd0969d358f926bf391174340660aaf5e6215261fd6847bf4660405160405180910390a2600101610eef565b600061106f61136d565b905090565b6000611080838361098d565b15610e3d576000838152602081815260408083206001600160a01b03861684529091529020805460ff191690556110b5611065565b6001600160a01b0316826001600160a01b0316847ff6391f5c32d9c69d2a47ea670b442974b53935d1edc7fd64eb21e047a839171b60405160405180910390a4506001610548565b611109600283836113e2565b6040516001600160a01b038316907f6d83315c9718799346b67584ec64301b1457e989c8e35a8e2982a7776c04bfc490600090a25050565b81546000905b8082101561119657826001600160a01b031684838154811061116b5761116b611813565b6000918252602090912001546001600160a01b03160361118b5750610548565b816001019150611147565b50509054919050565b600354600090815b81811015611268576000600382815481106111c4576111c4611813565b60009182526020909120015460405163601c446160e11b81526001600160a01b0389811660048301528881166024830152604482018890529091169063c03888c2906064016020604051808303816000875af1158015611228573d6000803e3d6000fd5b505050506040513d601f19601f8201168201806040525081019061124c9190611846565b90508061125f576000935050505061061f565b506001016111a7565b50600195945050505050565b6001600160a01b03811661129b576040516350092f7560e11b815260040160405180910390fd5b6001600160a01b03811660009081526001602052604090205460ff16156112d55760405163860d015160e01b815260040160405180910390fd5b8154600181810184556000938452602080852090920180546001600160a01b039094166001600160a01b0319909416841790559183528190526040909120805460ff19169091179055565b611109600383836113e2565b611336828261098d565b6113695760405163e2517d3f60e01b81526001600160a01b03821660048201526024810183905260440160405180910390fd5b5050565b6000366014336001600160a01b037f0000000000000000000000000000000000000000000000000000000000000000161480156113aa5750808210155b156113da576000366113bc838561199c565b6113c79282906119af565b6113d0916119d9565b60601c9250505090565b339250505090565b816001600160a01b03168382815481106113fe576113fe611813565b6000918252602090912001546001600160a01b03161461143157604051632f64842d60e11b815260040160405180910390fd5b825461143f9060019061199c565b81146114c457825483906114559060019061199c565b8154811061146557611465611813565b9060005260206000200160009054906101000a90046001600160a01b031683828154811061149557611495611813565b9060005260206000200160006101000a8154816001600160a01b0302191690836001600160a01b031602179055505b828054806114d4576114d4611a0e565b60008281526020808220830160001990810180546001600160a01b03191690559092019092556001600160a01b03841680835260019091526040808320805460ff191690555190917f6d83315c9718799346b67584ec64301b1457e989c8e35a8e2982a7776c04bfc491a2505050565b828054828255906000526020600020908101928215611597579160200282015b828111156115975781546001600160a01b0319166001600160a01b03843516178255602090920191600190910190611564565b506115a39291506115a7565b5090565b5b808211156115a357600081556001016115a8565b6000602082840312156115ce57600080fd5b81356001600160e01b03198116811461061f57600080fd5b6000602082840312156115f857600080fd5b5035919050565b6001600160a01b038116811461051457600080fd5b60008060006060848603121561162957600080fd5b8335611634816115ff565b92506020840135611644816115ff565b929592945050506040919091013590565b6000806040838503121561166857600080fd5b82359150602083013561167a816115ff565b809150509250929050565b6000806020838503121561169857600080fd5b823567ffffffffffffffff808211156116b057600080fd5b818501915085601f8301126116c457600080fd5b8135818111156116d357600080fd5b8660208260051b85010111156116e857600080fd5b60209290920196919550909350505050565b6000806040838503121561170d57600080fd5b8235611718816115ff565b946020939093013593505050565b60006020828403121561173857600080fd5b813561061f816115ff565b60ff8116811461051457600080fd5b60006020828403121561176457600080fd5b813561061f81611743565b60005b8381101561178a578181015183820152602001611772565b50506000910152565b60208152600082518060208401526117b281604085016020870161176f565b601f01601f19169190910160400192915050565b6020808252825182820181905260009190848201906040850190845b818110156118075783516001600160a01b0316835292840192918401916001016117e2565b50909695505050505050565b634e487b7160e01b600052603260045260246000fd5b60006020828403121561183b57600080fd5b815161061f81611743565b60006020828403121561185857600080fd5b8151801515811461061f57600080fd5b634e487b7160e01b600052604160045260246000fd5b60006020828403121561189057600080fd5b815167ffffffffffffffff808211156118a857600080fd5b818401915084601f8301126118bc57600080fd5b8151818111156118ce576118ce611868565b604051601f8201601f19908116603f011681019083821181831017156118f6576118f6611868565b8160405282815287602084870101111561190f57600080fd5b61192083602083016020880161176f565b979650505050505050565b634e487b7160e01b600052601160045260246000fd5b6000816119505761195061192b565b506000190190565b6020808252825482820181905260008481528281209092916040850190845b818110156118075783546001600160a01b031683526001938401939285019201611977565b818103818111156105485761054861192b565b600080858511156119bf57600080fd5b838611156119cc57600080fd5b5050820193919092039150565b6bffffffffffffffffffffffff198135818116916014851015611a065780818660140360031b1b83161692505b505092915050565b634e487b7160e01b600052603160045260246000fdfeb3c151d85eb431da97012a1682e6ab41bddc7db1012e7c40bd326c24bf56f999a264697066735822122001e96293b791a1cb7a365e53c8a2381e86a2d2227bf7299377f4ae8437a930e364736f6c63430008160033",
  "methodIdentifiers": {
    "DEFAULT_ADMIN_ROLE()": "a217fddf",
    "RULE_ENGINE_OPERATOR_ROLE()": "6728f545",
    "TOKEN_CONTRACT_ROLE()": "0fbbfb55",
    "addRuleOperation(address)": "c68a651a",
    "addRuleValidation(address)": "cd1d4dc7",
    "clearRulesOperation()": "001582f7",
    "clearRulesValidation()": "8a1b6c8e",
    "detectTransferRestriction(address,address,uint256)": "d4ce1415",
    "detectTransferRestrictionValidation(address,address,uint256)": "28aa67bc",
    "getRoleAdmin(bytes32)": "248a9ca3",
    "getRuleIndexOperation(address)": "d0e835f2",
    "getRuleIndexValidation(address)": "83304df0",
    "grantRole(bytes32,address)": "2f2ff15d",
    "hasRole(bytes32,address)": "91d14854",
    "isTrustedForwarder(address)": "572b6c05",
    "messageForTransferRestriction(uint8)": "7f4ab1dd",
    "operateOnTransfer(address,address,uint256)": "c03888c2",
    "removeRuleOperation(address,uint256)": "ce29ed35",
    "removeRuleValidation(address,uint256)": "4d53374e",
    "renounceRole(bytes32,address)": "36568abe",
    "revokeRole(bytes32,address)": "d547741f",
    "ruleOperation(uint256)": "ca3e16e7",
    "ruleValidation(uint256)": "397a7d3c",
    "rulesCountOperation()": "323a4616",
    "rulesCountValidation()": "8a2021b1",
    "rulesOperation()": "a39eda14",
    "rulesValidation()": "c57086a1",
    "setRulesOperation(address[])": "ca1f6c4d",
    "setRulesValidation(address[])": "334a29cc",
    "supportsInterface(bytes4)": "01ffc9a7",
    "trustedForwarder()": "7da0a877",
    "validateTransfer(address,address,uint256)": "c6946a12",
    "validateTransferValidation(address,address,uint256)": "eb2647e3"
  },
  "id": 84
}