{"abi":[{"type":"constructor","inputs":[{"name":"admin","type":"address","internalType":"address"},{"name":"forwarderIrrevocable","type":"address","internalType":"address"}],"stateMutability":"nonpayable"},{"type":"function","name":"CODE_ADDRESS_FROM_NOT_WHITELISTED","inputs":[],"outputs":[{"name":"","type":"uint8","internalType":"uint8"}],"stateMutability":"view"},{"type":"function","name":"CODE_ADDRESS_TO_NOT_WHITELISTED","inputs":[],"outputs":[{"name":"","type":"uint8","internalType":"uint8"}],"stateMutability":"view"},{"type":"function","name":"DEFAULT_ADMIN_ROLE","inputs":[],"outputs":[{"name":"","type":"bytes32","internalType":"bytes32"}],"stateMutability":"view"},{"type":"function","name":"RULE_ENGINE_OPERATOR_ROLE","inputs":[],"outputs":[{"name":"","type":"bytes32","internalType":"bytes32"}],"stateMutability":"view"},{"type":"function","name":"TOKEN_CONTRACT_ROLE","inputs":[],"outputs":[{"name":"","type":"bytes32","internalType":"bytes32"}],"stateMutability":"view"},{"type":"function","name":"addRuleValidation","inputs":[{"name":"rule_","type":"address","internalType":"contract IRuleValidation"}],"outputs":[],"stateMutability":"nonpayable"},{"type":"function","name":"canReturnTransferRestrictionCode","inputs":[{"name":"_restrictionCode","type":"uint8","internalType":"uint8"}],"outputs":[{"name":"","type":"bool","internalType":"bool"}],"stateMutability":"pure"},{"type":"function","name":"clearRulesValidation","inputs":[],"outputs":[],"stateMutability":"nonpayable"},{"type":"function","name":"detectTransferRestriction","inputs":[{"name":"_from","type":"address","internalType":"address"},{"name":"_to","type":"address","internalType":"address"},{"name":"","type":"uint256","internalType":"uint256"}],"outputs":[{"name":"","type":"uint8","internalType":"uint8"}],"stateMutability":"view"},{"type":"function","name":"getRoleAdmin","inputs":[{"name":"role","type":"bytes32","internalType":"bytes32"}],"outputs":[{"name":"","type":"bytes32","internalType":"bytes32"}],"stateMutability":"view"},{"type":"function","name":"getRuleIndexValidation","inputs":[{"name":"rule_","type":"address","internalType":"contract IRuleValidation"}],"outputs":[{"name":"index","type":"uint256","internalType":"uint256"}],"stateMutability":"view"},{"type":"function","name":"grantRole","inputs":[{"name":"role","type":"bytes32","internalType":"bytes32"},{"name":"account","type":"address","internalType":"address"}],"outputs":[],"stateMutability":"nonpayable"},{"type":"function","name":"hasRole","inputs":[{"name":"role","type":"bytes32","internalType":"bytes32"},{"name":"account","type":"address","internalType":"address"}],"outputs":[{"name":"","type":"bool","internalType":"bool"}],"stateMutability":"view"},{"type":"function","name":"isTrustedForwarder","inputs":[{"name":"forwarder","type":"address","internalType":"address"}],"outputs":[{"name":"","type":"bool","internalType":"bool"}],"stateMutability":"view"},{"type":"function","name":"messageForTransferRestriction","inputs":[{"name":"_restrictionCode","type":"uint8","internalType":"uint8"}],"outputs":[{"name":"","type":"string","internalType":"string"}],"stateMutability":"pure"},{"type":"function","name":"removeRuleValidation","inputs":[{"name":"rule_","type":"address","internalType":"contract IRuleValidation"},{"name":"index","type":"uint256","internalType":"uint256"}],"outputs":[],"stateMutability":"nonpayable"},{"type":"function","name":"renounceRole","inputs":[{"name":"role","type":"bytes32","internalType":"bytes32"},{"name":"callerConfirmation","type":"address","internalType":"address"}],"outputs":[],"stateMutability":"nonpayable"},{"type":"function","name":"revokeRole","inputs":[{"name":"role","type":"bytes32","internalType":"bytes32"},{"name":"account","type":"address","internalType":"address"}],"outputs":[],"stateMutability":"nonpayable"},{"type":"function","name":"ruleValidation","inputs":[{"name":"ruleId","type":"uint256","internalType":"uint256"}],"outputs":[{"name":"","type":"address","internalType":"address"}],"stateMutability":"view"},{"type":"function","name":"rulesCountValidation","inputs":[],"outputs":[{"name":"","type":"uint256","internalType":"uint256"}],"stateMutability":"view"},{"type":"function","name":"rulesValidation","inputs":[],"outputs":[{"name":"","type":"address[]","internalType":"address[]"}],"stateMutability":"view"},{"type":"function","name":"setRulesValidation","inputs":[{"name":"rules_","type":"address[]","internalType":"address[]"}],"outputs":[],"stateMutability":"nonpayable"},{"type":"function","name":"supportsInterface","inputs":[{"name":"interfaceId","type":"bytes4","internalType":"bytes4"}],"outputs":[{"name":"","type":"bool","internalType":"bool"}],"stateMutability":"view"},{"type":"function","name":"trustedForwarder","inputs":[],"outputs":[{"name":"","type":"address","internalType":"address"}],"stateMutability":"view"},{"type":"function","name":"validateTransfer","inputs":[{"name":"_from","type":"address","internalType":"address"},{"name":"_to","type":"address","internalType":"address"},{"name":"_amount","type":"uint256","internalType":"uint256"}],"outputs":[{"name":"isValid","type":"bool","internalType":"bool"}],"stateMutability":"view"},{"type":"event","name":"AddRule","inputs":[{"name":"rule","type":"address","indexed":true,"internalType":"address"}],"anonymous":false},{"type":"event","name":"ClearRules","inputs":[{"name":"rulesRemoved","type":"address[]","indexed":false,"internalType":"address[]"}],"anonymous":false},{"type":"event","name":"RemoveRule","inputs":[{"name":"rule","type":"address","indexed":true,"internalType":"address"}],"anonymous":false},{"type":"event","name":"RoleAdminChanged","inputs":[{"name":"role","type":"bytes32","indexed":true,"internalType":"bytes32"},{"name":"previousAdminRole","type":"bytes32","indexed":true,"internalType":"bytes32"},{"name":"newAdminRole","type":"bytes32","indexed":true,"internalType":"bytes32"}],"anonymous":false},{"type":"event","name":"RoleGranted","inputs":[{"name":"role","type":"bytes32","indexed":true,"internalType":"bytes32"},{"name":"account","type":"address","indexed":true,"internalType":"address"},{"name":"sender","type":"address","indexed":true,"internalType":"address"}],"anonymous":false},{"type":"event","name":"RoleRevoked","inputs":[{"name":"role","type":"bytes32","indexed":true,"internalType":"bytes32"},{"name":"account","type":"address","indexed":true,"internalType":"address"},{"name":"sender","type":"address","indexed":true,"internalType":"address"}],"anonymous":false},{"type":"error","name":"AccessControlBadConfirmation","inputs":[]},{"type":"error","name":"AccessControlUnauthorizedAccount","inputs":[{"name":"account","type":"address","internalType":"address"},{"name":"neededRole","type":"bytes32","internalType":"bytes32"}]},{"type":"error","name":"RuleEngine_AdminWithAddressZeroNotAllowed","inputs":[]},{"type":"error","name":"RuleEngine_ArrayIsEmpty","inputs":[]},{"type":"error","name":"RuleEngine_RuleAddressZeroNotAllowed","inputs":[]},{"type":"error","name":"RuleEngine_RuleAlreadyExists","inputs":[]},{"type":"error","name":"RuleEngine_RuleDoNotMatch","inputs":[]}],"bytecode":{"object":"0x60a06040523480156200001157600080fd5b506040516200197138038062001971833981016040819052620000349162000207565b6001600160a01b0380821660805282166200006257604051630872273360e21b815260040160405180910390fd5b6200006f600083620000a5565b506200009c7fb3c151d85eb431da97012a1682e6ab41bddc7db1012e7c40bd326c24bf56f99983620000a5565b505050620002be565b6000828152602081815260408083206001600160a01b038516845290915281205460ff166200014c576000838152602081815260408083206001600160a01b03861684529091529020805460ff191660011790556200010362000156565b6001600160a01b0316826001600160a01b0316847f2f8788117e7eff1d82e926ec794901d17c78024a50270940304540a733656f0d60405160405180910390a450600162000150565b5060005b92915050565b60006200016262000167565b905090565b60003660146200017733620001c3565b8015620001845750808210155b15620001bb576000366200019983856200023f565b620001a692829062000261565b620001b1916200028d565b60601c9250505090565b339250505090565b6000620001cf60805190565b6001600160a01b0316826001600160a01b0316149050919050565b80516001600160a01b03811681146200020257600080fd5b919050565b600080604083850312156200021b57600080fd5b6200022683620001ea565b91506200023660208401620001ea565b90509250929050565b818103818111156200015057634e487b7160e01b600052601160045260246000fd5b600080858511156200027257600080fd5b838611156200028057600080fd5b5050820193919092039150565b6001600160601b03198135818116916014851015620002b65780818660140360031b1b83161692505b505092915050565b608051611689620002e860003960008181610281015281816102f50152610f4701526116896000f3fe608060405234801561001057600080fd5b50600436106101735760003560e01c80637da0a877116100de578063a217fddf11610097578063cd1d4dc711610071578063cd1d4dc71461039f578063d4ce1415146103b2578063d547741f146103c5578063db136dad146103d857600080fd5b8063a217fddf1461036f578063c57086a114610377578063c6946a121461038c57600080fd5b80637da0a877146102f35780637f4ab1dd1461031957806383304df0146103395780638a1b6c8e1461034c5780638a2021b11461035457806391d148541461035c57600080fd5b8063397a7d3c11610130578063397a7d3c146102335780634d53374e1461025e578063572b6c05146102715780635b119c0a146102b15780636728f545146102cb5780637d045df6146102e057600080fd5b806301ffc9a7146101785780630fbbfb55146101a0578063248a9ca3146101d55780632f2ff15d146101f8578063334a29cc1461020d57806336568abe14610220575b600080fd5b61018b610186366004611186565b6103e0565b60405190151581526020015b60405180910390f35b6101c77fd32fd1ee5f4f111da6f27444787e5200ec57a8849509c00ef2998467052b32a381565b604051908152602001610197565b6101c76101e33660046111b0565b60009081526020819052604090206001015490565b61020b6102063660046111de565b610417565b005b61020b61021b36600461120e565b610442565b61020b61022e3660046111de565b610480565b6102466102413660046111b0565b6104c8565b6040516001600160a01b039091168152602001610197565b61020b61026c366004611283565b6104f8565b61018b61027f3660046112af565b7f00000000000000000000000000000000000000000000000000000000000000006001600160a01b0390811691161490565b6102b9601581565b60405160ff9091168152602001610197565b6101c76000805160206115ed83398151915281565b61018b6102ee3660046112db565b61051a565b7f0000000000000000000000000000000000000000000000000000000000000000610246565b61032c6103273660046112db565b610536565b60405161019791906112f8565b6101c76103473660046112af565b6105cc565b61020b6105d9565b6002546101c7565b61018b61036a3660046111de565b6105fc565b6101c7600081565b61037f610625565b6040516101979190611347565b61018b61039a366004611394565b610687565b61020b6103ad3660046112af565b610711565b6102b96103c0366004611394565b61076c565b61020b6103d33660046111de565b610a1c565b6102b9601681565b60006001600160e01b03198216637965db0b60e01b148061041157506301ffc9a760e01b6001600160e01b03198316145b92915050565b60008281526020819052604090206001015461043281610a41565b61043c8383610a52565b50505050565b6000805160206115ed83398151915261045a81610a41565b6002541561046a5761046a610ae5565b6104748383610b75565b61043c6002848461110e565b610488610d10565b6001600160a01b0316816001600160a01b0316146104b95760405163334bd91960e11b815260040160405180910390fd5b6104c38282610d1f565b505050565b6000600282815481106104dd576104dd6113d5565b6000918252602090912001546001600160a01b031692915050565b6000805160206115ed83398151915261051081610a41565b6104c38383610da8565b600060ff821660151480610411575060ff821660161492915050565b606060141960ff831601610563576040518060600160405280602281526020016116326022913992915050565b60151960ff83160161058e5760405180606001604052806025815260200161160d6025913992915050565b505060408051808201909152601881527f556e6b6e6f776e207265737472696374696f6e20636f64650000000000000000602082015290565b919050565b6000610411600283610dec565b6000805160206115ed8339815191526105f181610a41565b6105f9610ae5565b50565b6000918252602082815260408084206001600160a01b0393909316845291905290205460ff1690565b6060600280548060200260200160405190810160405280929190818152602001828054801561067d57602002820191906000526020600020905b81546001600160a01b0316815260019091019060200180831161065f575b5050505050905090565b60405163d4ce141560e01b81526001600160a01b03848116600483015283166024820152604481018290526000908190309063d4ce141590606401602060405180830381865afa1580156106df573d6000803e3d6000fd5b505050506040513d601f19601f8201168201806040525081019061070391906113eb565b60ff161490505b9392505050565b6000805160206115ed83398151915261072981610a41565b610734600283610e4a565b6040516001600160a01b038316907f60305ce6c9104acd0969d358f926bf391174340660aaf5e6215261fd6847bf4690600090a25050565b6040805160028082526060820183526000928392919060208301908036833750506040805160028082526060820183529394506000939092509060208301908036833750506040805160028082526060820183529394506000939092509060208301908036833701905050905086836000815181106107ed576107ed6113d5565b60200260200101906001600160a01b031690816001600160a01b0316815250508583600181518110610821576108216113d5565b6001600160a01b039092166020928302919091019091015260025460005b818110156109b6576002818154811061085a5761085a6113d5565b60009182526020909120015460405163051b206960e11b81526001600160a01b0390911690630a3640d290610893908890600401611347565b600060405180830381865afa1580156108b0573d6000803e3d6000fd5b505050506040513d6000823e601f3d908101601f191682016040526108d8919081019061142e565b9350836000815181106108ed576108ed6113d5565b6020026020010151801561091957508260008151811061090f5761090f6113d5565b6020026020010151155b1561094457600183600081518110610933576109336113d5565b911515602092830291909101909101525b83600181518110610957576109576113d5565b60200260200101518015610983575082600181518110610979576109796113d5565b6020026020010151155b156109ae5760018360018151811061099d5761099d6113d5565b911515602092830291909101909101525b60010161083f565b50816000815181106109ca576109ca6113d5565b60200260200101516109e357601594505050505061070a565b816001815181106109f6576109f66113d5565b6020026020010151610a0f57601694505050505061070a565b600094505050505061070a565b600082815260208190526040902060010154610a3781610a41565b61043c8383610d1f565b6105f981610a4d610d10565b610ef6565b6000610a5e83836105fc565b610add576000838152602081815260408083206001600160a01b03861684529091529020805460ff19166001179055610a95610d10565b6001600160a01b0316826001600160a01b0316847f2f8788117e7eff1d82e926ec794901d17c78024a50270940304540a733656f0d60405160405180910390a4506001610411565b506000610411565b6002546000905b8015610b3957600181039150610b2960028381548110610b0e57610b0e6113d5565b6000918252602090912001546001600160a01b031683610da8565b610b3281611509565b9050610aec565b507f93dd3e43e4773b52a627c0ce6a20183638a2d2a264cfc9b6b7da0cccc95ea4b26002604051610b6a9190611520565b60405180910390a150565b6000819003610b9757604051630b9b3e5960e21b815260040160405180910390fd5b60005b818110156104c3576000838383818110610bb657610bb66113d5565b9050602002016020810190610bcb91906112af565b6001600160a01b031603610bf2576040516350092f7560e11b815260040160405180910390fd5b60016000848484818110610c0857610c086113d5565b9050602002016020810190610c1d91906112af565b6001600160a01b0316815260208101919091526040016000205460ff1615610c585760405163860d015160e01b815260040160405180910390fd5b6001806000858585818110610c6f57610c6f6113d5565b9050602002016020810190610c8491906112af565b6001600160a01b031681526020810191909152604001600020805460ff1916911515919091179055828282818110610cbe57610cbe6113d5565b9050602002016020810190610cd391906112af565b6001600160a01b03167f60305ce6c9104acd0969d358f926bf391174340660aaf5e6215261fd6847bf4660405160405180910390a2600101610b9a565b6000610d1a610f37565b905090565b6000610d2b83836105fc565b15610add576000838152602081815260408083206001600160a01b03861684529091529020805460ff19169055610d60610d10565b6001600160a01b0316826001600160a01b0316847ff6391f5c32d9c69d2a47ea670b442974b53935d1edc7fd64eb21e047a839171b60405160405180910390a4506001610411565b610db460028383610fac565b6040516001600160a01b038316907f6d83315c9718799346b67584ec64301b1457e989c8e35a8e2982a7776c04bfc490600090a25050565b81546000905b80821015610e4157826001600160a01b0316848381548110610e1657610e166113d5565b6000918252602090912001546001600160a01b031603610e365750610411565b816001019150610df2565b50509054919050565b6001600160a01b038116610e71576040516350092f7560e11b815260040160405180910390fd5b6001600160a01b03811660009081526001602052604090205460ff1615610eab5760405163860d015160e01b815260040160405180910390fd5b8154600181810184556000938452602080852090920180546001600160a01b039094166001600160a01b0319909416841790559183528190526040909120805460ff19169091179055565b610f0082826105fc565b610f335760405163e2517d3f60e01b81526001600160a01b03821660048201526024810183905260440160405180910390fd5b5050565b6000366014336001600160a01b037f000000000000000000000000000000000000000000000000000000000000000016148015610f745750808210155b15610fa457600036610f868385611564565b610f91928290611577565b610f9a916115a1565b60601c9250505090565b339250505090565b816001600160a01b0316838281548110610fc857610fc86113d5565b6000918252602090912001546001600160a01b031614610ffb57604051632f64842d60e11b815260040160405180910390fd5b825461100990600190611564565b811461108e578254839061101f90600190611564565b8154811061102f5761102f6113d5565b9060005260206000200160009054906101000a90046001600160a01b031683828154811061105f5761105f6113d5565b9060005260206000200160006101000a8154816001600160a01b0302191690836001600160a01b031602179055505b8280548061109e5761109e6115d6565b60008281526020808220830160001990810180546001600160a01b03191690559092019092556001600160a01b03841680835260019091526040808320805460ff191690555190917f6d83315c9718799346b67584ec64301b1457e989c8e35a8e2982a7776c04bfc491a2505050565b828054828255906000526020600020908101928215611161579160200282015b828111156111615781546001600160a01b0319166001600160a01b0384351617825560209092019160019091019061112e565b5061116d929150611171565b5090565b5b8082111561116d5760008155600101611172565b60006020828403121561119857600080fd5b81356001600160e01b03198116811461070a57600080fd5b6000602082840312156111c257600080fd5b5035919050565b6001600160a01b03811681146105f957600080fd5b600080604083850312156111f157600080fd5b823591506020830135611203816111c9565b809150509250929050565b6000806020838503121561122157600080fd5b823567ffffffffffffffff8082111561123957600080fd5b818501915085601f83011261124d57600080fd5b81358181111561125c57600080fd5b8660208260051b850101111561127157600080fd5b60209290920196919550909350505050565b6000806040838503121561129657600080fd5b82356112a1816111c9565b946020939093013593505050565b6000602082840312156112c157600080fd5b813561070a816111c9565b60ff811681146105f957600080fd5b6000602082840312156112ed57600080fd5b813561070a816112cc565b60006020808352835180602085015260005b818110156113265785810183015185820160400152820161130a565b506000604082860101526040601f19601f8301168501019250505092915050565b6020808252825182820181905260009190848201906040850190845b818110156113885783516001600160a01b031683529284019291840191600101611363565b50909695505050505050565b6000806000606084860312156113a957600080fd5b83356113b4816111c9565b925060208401356113c4816111c9565b929592945050506040919091013590565b634e487b7160e01b600052603260045260246000fd5b6000602082840312156113fd57600080fd5b815161070a816112cc565b634e487b7160e01b600052604160045260246000fd5b805180151581146105c757600080fd5b6000602080838503121561144157600080fd5b825167ffffffffffffffff8082111561145957600080fd5b818501915085601f83011261146d57600080fd5b81518181111561147f5761147f611408565b8060051b604051601f19603f830116810181811085821117156114a4576114a4611408565b6040529182528482019250838101850191888311156114c257600080fd5b938501935b828510156114e7576114d88561141e565b845293850193928501926114c7565b98975050505050505050565b634e487b7160e01b600052601160045260246000fd5b600081611518576115186114f3565b506000190190565b6020808252825482820181905260008481528281209092916040850190845b818110156113885783546001600160a01b03168352600193840193928501920161153f565b81810381811115610411576104116114f3565b6000808585111561158757600080fd5b8386111561159457600080fd5b5050820193919092039150565b6bffffffffffffffffffffffff1981358181169160148510156115ce5780818660140360031b1b83161692505b505092915050565b634e487b7160e01b600052603160045260246000fdfeb3c151d85eb431da97012a1682e6ab41bddc7db1012e7c40bd326c24bf56f99954686520726563697069656e74206973206e6f7420696e207468652077686974656c6973745468652073656e646572206973206e6f7420696e207468652077686974656c697374a2646970667358221220c9bcc22ff72080e0282cf07f741b675b81145f982e8e2d2edd186a14334e038e64736f6c63430008160033","linkReferences":{}},"methodIdentifiers":{"CODE_ADDRESS_FROM_NOT_WHITELISTED()":"5b119c0a","CODE_ADDRESS_TO_NOT_WHITELISTED()":"db136dad","DEFAULT_ADMIN_ROLE()":"a217fddf","RULE_ENGINE_OPERATOR_ROLE()":"6728f545","TOKEN_CONTRACT_ROLE()":"0fbbfb55","addRuleValidation(address)":"cd1d4dc7","canReturnTransferRestrictionCode(uint8)":"7d045df6","clearRulesValidation()":"8a1b6c8e","detectTransferRestriction(address,address,uint256)":"d4ce1415","getRoleAdmin(bytes32)":"248a9ca3","getRuleIndexValidation(address)":"83304df0","grantRole(bytes32,address)":"2f2ff15d","hasRole(bytes32,address)":"91d14854","isTrustedForwarder(address)":"572b6c05","messageForTransferRestriction(uint8)":"7f4ab1dd","removeRuleValidation(address,uint256)":"4d53374e","renounceRole(bytes32,address)":"36568abe","revokeRole(bytes32,address)":"d547741f","ruleValidation(uint256)":"397a7d3c","rulesCountValidation()":"8a2021b1","rulesValidation()":"c57086a1","setRulesValidation(address[])":"334a29cc","supportsInterface(bytes4)":"01ffc9a7","trustedForwarder()":"7da0a877","validateTransfer(address,address,uint256)":"c6946a12"},"id":101}