{
  "contractName": "RuleWhitelist",
  "abi": [
    {
      "type": "constructor",
      "inputs": [
        {
          "name": "admin",
          "type": "address",
          "internalType": "address"
        },
        {
          "name": "forwarderIrrevocable",
          "type": "address",
          "internalType": "address"
        }
      ],
      "stateMutability": "nonpayable"
    },
    {
      "type": "function",
      "name": "ADDRESS_LIST_ADD_ROLE",
      "inputs": [],
      "outputs": [
        {
          "name": "",
          "type": "bytes32",
          "internalType": "bytes32"
        }
      ],
      "stateMutability": "view"
    },
    {
      "type": "function",
      "name": "ADDRESS_LIST_REMOVE_ROLE",
      "inputs": [],
      "outputs": [
        {
          "name": "",
          "type": "bytes32",
          "internalType": "bytes32"
        }
      ],
      "stateMutability": "view"
    },
    {
      "type": "function",
      "name": "CODE_ADDRESS_FROM_NOT_WHITELISTED",
      "inputs": [],
      "outputs": [
        {
          "name": "",
          "type": "uint8",
          "internalType": "uint8"
        }
      ],
      "stateMutability": "view"
    },
    {
      "type": "function",
      "name": "CODE_ADDRESS_TO_NOT_WHITELISTED",
      "inputs": [],
      "outputs": [
        {
          "name": "",
          "type": "uint8",
          "internalType": "uint8"
        }
      ],
      "stateMutability": "view"
    },
    {
      "type": "function",
      "name": "DEFAULT_ADMIN_ROLE",
      "inputs": [],
      "outputs": [
        {
          "name": "",
          "type": "bytes32",
          "internalType": "bytes32"
        }
      ],
      "stateMutability": "view"
    },
    {
      "type": "function",
      "name": "addAddressToTheList",
      "inputs": [
        {
          "name": "_newWhitelistAddress",
          "type": "address",
          "internalType": "address"
        }
      ],
      "outputs": [],
      "stateMutability": "nonpayable"
    },
    {
      "type": "function",
      "name": "addAddressesToTheList",
      "inputs": [
        {
          "name": "listWhitelistedAddress",
          "type": "address[]",
          "internalType": "address[]"
        }
      ],
      "outputs": [],
      "stateMutability": "nonpayable"
    },
    {
      "type": "function",
      "name": "addressIsListed",
      "inputs": [
        {
          "name": "_targetAddress",
          "type": "address",
          "internalType": "address"
        }
      ],
      "outputs": [
        {
          "name": "",
          "type": "bool",
          "internalType": "bool"
        }
      ],
      "stateMutability": "view"
    },
    {
      "type": "function",
      "name": "addressIsListedBatch",
      "inputs": [
        {
          "name": "_targetAddresses",
          "type": "address[]",
          "internalType": "address[]"
        }
      ],
      "outputs": [
        {
          "name": "",
          "type": "bool[]",
          "internalType": "bool[]"
        }
      ],
      "stateMutability": "view"
    },
    {
      "type": "function",
      "name": "canReturnTransferRestrictionCode",
      "inputs": [
        {
          "name": "_restrictionCode",
          "type": "uint8",
          "internalType": "uint8"
        }
      ],
      "outputs": [
        {
          "name": "",
          "type": "bool",
          "internalType": "bool"
        }
      ],
      "stateMutability": "pure"
    },
    {
      "type": "function",
      "name": "detectTransferRestriction",
      "inputs": [
        {
          "name": "_from",
          "type": "address",
          "internalType": "address"
        },
        {
          "name": "_to",
          "type": "address",
          "internalType": "address"
        },
        {
          "name": "",
          "type": "uint256",
          "internalType": "uint256"
        }
      ],
      "outputs": [
        {
          "name": "",
          "type": "uint8",
          "internalType": "uint8"
        }
      ],
      "stateMutability": "view"
    },
    {
      "type": "function",
      "name": "getRoleAdmin",
      "inputs": [
        {
          "name": "role",
          "type": "bytes32",
          "internalType": "bytes32"
        }
      ],
      "outputs": [
        {
          "name": "",
          "type": "bytes32",
          "internalType": "bytes32"
        }
      ],
      "stateMutability": "view"
    },
    {
      "type": "function",
      "name": "grantRole",
      "inputs": [
        {
          "name": "role",
          "type": "bytes32",
          "internalType": "bytes32"
        },
        {
          "name": "account",
          "type": "address",
          "internalType": "address"
        }
      ],
      "outputs": [],
      "stateMutability": "nonpayable"
    },
    {
      "type": "function",
      "name": "hasRole",
      "inputs": [
        {
          "name": "role",
          "type": "bytes32",
          "internalType": "bytes32"
        },
        {
          "name": "account",
          "type": "address",
          "internalType": "address"
        }
      ],
      "outputs": [
        {
          "name": "",
          "type": "bool",
          "internalType": "bool"
        }
      ],
      "stateMutability": "view"
    },
    {
      "type": "function",
      "name": "isTrustedForwarder",
      "inputs": [
        {
          "name": "forwarder",
          "type": "address",
          "internalType": "address"
        }
      ],
      "outputs": [
        {
          "name": "",
          "type": "bool",
          "internalType": "bool"
        }
      ],
      "stateMutability": "view"
    },
    {
      "type": "function",
      "name": "messageForTransferRestriction",
      "inputs": [
        {
          "name": "_restrictionCode",
          "type": "uint8",
          "internalType": "uint8"
        }
      ],
      "outputs": [
        {
          "name": "",
          "type": "string",
          "internalType": "string"
        }
      ],
      "stateMutability": "pure"
    },
    {
      "type": "function",
      "name": "numberListedAddress",
      "inputs": [],
      "outputs": [
        {
          "name": "",
          "type": "uint256",
          "internalType": "uint256"
        }
      ],
      "stateMutability": "view"
    },
    {
      "type": "function",
      "name": "removeAddressFromTheList",
      "inputs": [
        {
          "name": "_removeWhitelistAddress",
          "type": "address",
          "internalType": "address"
        }
      ],
      "outputs": [],
      "stateMutability": "nonpayable"
    },
    {
      "type": "function",
      "name": "removeAddressesFromTheList",
      "inputs": [
        {
          "name": "listWhitelistedAddress",
          "type": "address[]",
          "internalType": "address[]"
        }
      ],
      "outputs": [],
      "stateMutability": "nonpayable"
    },
    {
      "type": "function",
      "name": "renounceRole",
      "inputs": [
        {
          "name": "role",
          "type": "bytes32",
          "internalType": "bytes32"
        },
        {
          "name": "callerConfirmation",
          "type": "address",
          "internalType": "address"
        }
      ],
      "outputs": [],
      "stateMutability": "nonpayable"
    },
    {
      "type": "function",
      "name": "revokeRole",
      "inputs": [
        {
          "name": "role",
          "type": "bytes32",
          "internalType": "bytes32"
        },
        {
          "name": "account",
          "type": "address",
          "internalType": "address"
        }
      ],
      "outputs": [],
      "stateMutability": "nonpayable"
    },
    {
      "type": "function",
      "name": "supportsInterface",
      "inputs": [
        {
          "name": "interfaceId",
          "type": "bytes4",
          "internalType": "bytes4"
        }
      ],
      "outputs": [
        {
          "name": "",
          "type": "bool",
          "internalType": "bool"
        }
      ],
      "stateMutability": "view"
    },
    {
      "type": "function",
      "name": "trustedForwarder",
      "inputs": [],
      "outputs": [
        {
          "name": "",
          "type": "address",
          "internalType": "address"
        }
      ],
      "stateMutability": "view"
    },
    {
      "type": "function",
      "name": "validateTransfer",
      "inputs": [
        {
          "name": "_from",
          "type": "address",
          "internalType": "address"
        },
        {
          "name": "_to",
          "type": "address",
          "internalType": "address"
        },
        {
          "name": "_amount",
          "type": "uint256",
          "internalType": "uint256"
        }
      ],
      "outputs": [
        {
          "name": "isValid",
          "type": "bool",
          "internalType": "bool"
        }
      ],
      "stateMutability": "view"
    },
    {
      "type": "event",
      "name": "RoleAdminChanged",
      "inputs": [
        {
          "name": "role",
          "type": "bytes32",
          "indexed": true,
          "internalType": "bytes32"
        },
        {
          "name": "previousAdminRole",
          "type": "bytes32",
          "indexed": true,
          "internalType": "bytes32"
        },
        {
          "name": "newAdminRole",
          "type": "bytes32",
          "indexed": true,
          "internalType": "bytes32"
        }
      ],
      "anonymous": false
    },
    {
      "type": "event",
      "name": "RoleGranted",
      "inputs": [
        {
          "name": "role",
          "type": "bytes32",
          "indexed": true,
          "internalType": "bytes32"
        },
        {
          "name": "account",
          "type": "address",
          "indexed": true,
          "internalType": "address"
        },
        {
          "name": "sender",
          "type": "address",
          "indexed": true,
          "internalType": "address"
        }
      ],
      "anonymous": false
    },
    {
      "type": "event",
      "name": "RoleRevoked",
      "inputs": [
        {
          "name": "role",
          "type": "bytes32",
          "indexed": true,
          "internalType": "bytes32"
        },
        {
          "name": "account",
          "type": "address",
          "indexed": true,
          "internalType": "address"
        },
        {
          "name": "sender",
          "type": "address",
          "indexed": true,
          "internalType": "address"
        }
      ],
      "anonymous": false
    },
    {
      "type": "error",
      "name": "AccessControlBadConfirmation",
      "inputs": []
    },
    {
      "type": "error",
      "name": "AccessControlUnauthorizedAccount",
      "inputs": [
        {
          "name": "account",
          "type": "address",
          "internalType": "address"
        },
        {
          "name": "neededRole",
          "type": "bytes32",
          "internalType": "bytes32"
        }
      ]
    },
    {
      "type": "error",
      "name": "RuleAddressList_AdminWithAddressZeroNotAllowed",
      "inputs": []
    },
    {
      "type": "error",
      "name": "Rulelist_AddressAlreadylisted",
      "inputs": []
    },
    {
      "type": "error",
      "name": "Rulelist_AddressNotPresent",
      "inputs": []
    }
  ],
  "bytecode": "0x60a06040523480156200001157600080fd5b50604051620013ca380380620013ca83398101604081905262000034916200023a565b6001600160a01b0380821660805282908290821662000066576040516317c69b0360e21b815260040160405180910390fd5b62000073600083620000d8565b50620000a07f1b03c849816e077359373cf0a8d6d8f741d643bc1e95273ffe11515f83bebf6183620000d8565b50620000cd7f1b94c92b564251ed6b49246d9a82eb7a486b6490f3b3a3bf3b28d2e99801f3ec83620000d8565b5050505050620002f1565b6000828152602081815260408083206001600160a01b038516845290915281205460ff166200017f576000838152602081815260408083206001600160a01b03861684529091529020805460ff191660011790556200013662000189565b6001600160a01b0316826001600160a01b0316847f2f8788117e7eff1d82e926ec794901d17c78024a50270940304540a733656f0d60405160405180910390a450600162000183565b5060005b92915050565b6000620001956200019a565b905090565b6000366014620001aa33620001f6565b8015620001b75750808210155b15620001ee57600036620001cc838562000272565b620001d992829062000294565b620001e491620002c0565b60601c9250505090565b339250505090565b60006200020260805190565b6001600160a01b0316826001600160a01b0316149050919050565b80516001600160a01b03811681146200023557600080fd5b919050565b600080604083850312156200024e57600080fd5b62000259836200021d565b915062000269602084016200021d565b90509250929050565b818103818111156200018357634e487b7160e01b600052601160045260246000fd5b60008085851115620002a557600080fd5b83861115620002b357600080fd5b5050820193919092039150565b6001600160601b03198135818116916014851015620002e95780818660140360031b1b83161692505b505092915050565b6080516110af6200031b6000396000818161023c015281816102b90152610bf401526110af6000f3fe608060405234801561001057600080fd5b50600436106101585760003560e01c80637da0a877116100c3578063c6946a121161007c578063c6946a1214610358578063d4ce14151461036b578063d547741f1461037e578063daafd1c714610391578063db136dad146103a4578063fa83a2da146103ac57600080fd5b80637da0a877146102ac5780637f4ab1dd146102e3578063893c14401461030357806391d1485414610316578063948b851e14610329578063a217fddf1461035057600080fd5b80633630e2ea116101155780633630e2ea1461020657806336568abe14610219578063572b6c051461022c5780635b119c0a1461026c5780635b577f66146102865780637d045df61461029957600080fd5b806301ffc9a71461015d5780630a3640d21461018557806311d1c5ca146101a557806313be3212146101ba578063248a9ca3146101d05780632f2ff15d146101f3575b600080fd5b61017061016b366004610c59565b6103d3565b60405190151581526020015b60405180910390f35b610198610193366004610cb0565b61040a565b60405161017c9190610d75565b6101b86101b3366004610dbb565b6104cc565b005b6101c2610505565b60405190815260200161017c565b6101c26101de366004610e30565b60009081526020819052604090206001015490565b6101b8610201366004610e49565b610515565b6101b8610214366004610dbb565b610540565b6101b8610227366004610e49565b610574565b61017061023a366004610e75565b7f00000000000000000000000000000000000000000000000000000000000000006001600160a01b0390811691161490565b610274601581565b60405160ff909116815260200161017c565b610170610294366004610e75565b6105b7565b6101706102a7366004610e9f565b6105d8565b6040516001600160a01b037f000000000000000000000000000000000000000000000000000000000000000016815260200161017c565b6102f66102f1366004610e9f565b6105f4565b60405161017c9190610ebc565b6101b8610311366004610e75565b61068a565b610170610324366004610e49565b6106c1565b6101c27f1b03c849816e077359373cf0a8d6d8f741d643bc1e95273ffe11515f83bebf6181565b6101c2600081565b610170610366366004610f0b565b6106ea565b610274610379366004610f0b565b610774565b6101b861038c366004610e49565b6107a8565b6101b861039f366004610e75565b6107cd565b610274601681565b6101c27f1b94c92b564251ed6b49246d9a82eb7a486b6490f3b3a3bf3b28d2e99801f3ec81565b60006001600160e01b03198216637965db0b60e01b148061040457506301ffc9a760e01b6001600160e01b03198316145b92915050565b60606000825167ffffffffffffffff81111561042857610428610c83565b604051908082528060200260200182016040528015610451578160200160208202803683370190505b50905060005b83518110156104c55761049b84828151811061047557610475610f47565b60200260200101516001600160a01b031660009081526001602052604090205460ff1690565b8282815181106104ad576104ad610f47565b91151560209283029190910190910152600101610457565b5092915050565b7f1b03c849816e077359373cf0a8d6d8f741d643bc1e95273ffe11515f83bebf616104f681610800565b6105008383610814565b505050565b600061051060025490565b905090565b60008281526020819052604090206001015461053081610800565b61053a83836108de565b50505050565b7f1b94c92b564251ed6b49246d9a82eb7a486b6490f3b3a3bf3b28d2e99801f3ec61056a81610800565b6105008383610971565b61057c610a35565b6001600160a01b0316816001600160a01b0316146105ad5760405163334bd91960e11b815260040160405180910390fd5b6105008282610a3f565b6001600160a01b03811660009081526001602052604081205460ff16610404565b600060ff821660151480610404575060ff821660161492915050565b606060141960ff831601610621576040518060600160405280602281526020016110586022913992915050565b60151960ff83160161064c576040518060600160405280602581526020016110336025913992915050565b505060408051808201909152601881527f556e6b6e6f776e207265737472696374696f6e20636f64650000000000000000602082015290565b919050565b7f1b94c92b564251ed6b49246d9a82eb7a486b6490f3b3a3bf3b28d2e99801f3ec6106b481610800565b6106bd82610ac8565b5050565b6000918252602082815260408084206001600160a01b0393909316845291905290205460ff1690565b60405163d4ce141560e01b81526001600160a01b03848116600483015283166024820152604481018290526000908190309063d4ce141590606401602060405180830381865afa158015610742573d6000803e3d6000fd5b505050506040513d601f19601f820116820180604052508101906107669190610f5d565b60ff161490505b9392505050565b600061077f846105b7565b61078b5750601561076d565b610794836105b7565b6107a05750601661076d565b50600061076d565b6000828152602081905260409020600101546107c381610800565b61053a8383610a3f565b7f1b03c849816e077359373cf0a8d6d8f741d643bc1e95273ffe11515f83bebf616107f781610800565b6106bd82610b38565b6108118161080c610a35565b610ba7565b50565b60025460005b828110156108d6576001600085858481811061083857610838610f47565b905060200201602081019061084d9190610e75565b6001600160a01b0316815260208101919091526040016000205460ff166108ce57600180600086868581811061088557610885610f47565b905060200201602081019061089a9190610e75565b6001600160a01b031681526020810191909152604001600020805460ff19169115159190911790556108cb82610f90565b91505b60010161081a565b506002555050565b60006108ea83836106c1565b610969576000838152602081815260408083206001600160a01b03861684529091529020805460ff19166001179055610921610a35565b6001600160a01b0316826001600160a01b0316847f2f8788117e7eff1d82e926ec794901d17c78024a50270940304540a733656f0d60405160405180910390a4506001610404565b506000610404565b60025460005b828110156108d6576001600085858481811061099557610995610f47565b90506020020160208101906109aa9190610e75565b6001600160a01b0316815260208101919091526040016000205460ff1615610a2d576000600160008686858181106109e4576109e4610f47565b90506020020160208101906109f99190610e75565b6001600160a01b031681526020810191909152604001600020805460ff1916911515919091179055610a2a82610fa9565b91505b600101610977565b6000610510610be4565b6000610a4b83836106c1565b15610969576000838152602081815260408083206001600160a01b03861684529091529020805460ff19169055610a80610a35565b6001600160a01b0316826001600160a01b0316847ff6391f5c32d9c69d2a47ea670b442974b53935d1edc7fd64eb21e047a839171b60405160405180910390a4506001610404565b6001600160a01b03811660009081526001602052604090205460ff16610b015760405163cfc5cc9560e01b815260040160405180910390fd5b6001600160a01b0381166000908152600160205260408120805460ff1916905560028054909190610b3190610fa9565b9091555050565b6001600160a01b03811660009081526001602052604090205460ff1615610b72576040516357845b8b60e01b815260040160405180910390fd5b6001600160a01b03811660009081526001602081905260408220805460ff1916909117905560028054909190610b3190610f90565b610bb182826106c1565b6106bd5760405163e2517d3f60e01b81526001600160a01b03821660048201526024810183905260440160405180910390fd5b6000366014336001600160a01b037f000000000000000000000000000000000000000000000000000000000000000016148015610c215750808210155b15610c5157600036610c338385610fc0565b610c3e928290610fd3565b610c4791610ffd565b60601c9250505090565b339250505090565b600060208284031215610c6b57600080fd5b81356001600160e01b03198116811461076d57600080fd5b634e487b7160e01b600052604160045260246000fd5b80356001600160a01b038116811461068557600080fd5b60006020808385031215610cc357600080fd5b823567ffffffffffffffff80821115610cdb57600080fd5b818501915085601f830112610cef57600080fd5b813581811115610d0157610d01610c83565b8060051b604051601f19603f83011681018181108582111715610d2657610d26610c83565b604052918252848201925083810185019188831115610d4457600080fd5b938501935b82851015610d6957610d5a85610c99565b84529385019392850192610d49565b98975050505050505050565b6020808252825182820181905260009190848201906040850190845b81811015610daf578351151583529284019291840191600101610d91565b50909695505050505050565b60008060208385031215610dce57600080fd5b823567ffffffffffffffff80821115610de657600080fd5b818501915085601f830112610dfa57600080fd5b813581811115610e0957600080fd5b8660208260051b8501011115610e1e57600080fd5b60209290920196919550909350505050565b600060208284031215610e4257600080fd5b5035919050565b60008060408385031215610e5c57600080fd5b82359150610e6c60208401610c99565b90509250929050565b600060208284031215610e8757600080fd5b61076d82610c99565b60ff8116811461081157600080fd5b600060208284031215610eb157600080fd5b813561076d81610e90565b60006020808352835180602085015260005b81811015610eea57858101830151858201604001528201610ece565b506000604082860101526040601f19601f8301168501019250505092915050565b600080600060608486031215610f2057600080fd5b610f2984610c99565b9250610f3760208501610c99565b9150604084013590509250925092565b634e487b7160e01b600052603260045260246000fd5b600060208284031215610f6f57600080fd5b815161076d81610e90565b634e487b7160e01b600052601160045260246000fd5b600060018201610fa257610fa2610f7a565b5060010190565b600081610fb857610fb8610f7a565b506000190190565b8181038181111561040457610404610f7a565b60008085851115610fe357600080fd5b83861115610ff057600080fd5b5050820193919092039150565b6bffffffffffffffffffffffff19813581811691601485101561102a5780818660140360031b1b83161692505b50509291505056fe54686520726563697069656e74206973206e6f7420696e207468652077686974656c6973745468652073656e646572206973206e6f7420696e207468652077686974656c697374a26469706673582212202f76450923b188395ecb3c568a17c231c8c077751daf86f1e09a79884d5888dc64736f6c63430008160033",
  "methodIdentifiers": {
    "ADDRESS_LIST_ADD_ROLE()": "948b851e",
    "ADDRESS_LIST_REMOVE_ROLE()": "fa83a2da",
    "CODE_ADDRESS_FROM_NOT_WHITELISTED()": "5b119c0a",
    "CODE_ADDRESS_TO_NOT_WHITELISTED()": "db136dad",
    "DEFAULT_ADMIN_ROLE()": "a217fddf",
    "addAddressToTheList(address)": "daafd1c7",
    "addAddressesToTheList(address[])": "11d1c5ca",
    "addressIsListed(address)": "5b577f66",
    "addressIsListedBatch(address[])": "0a3640d2",
    "canReturnTransferRestrictionCode(uint8)": "7d045df6",
    "detectTransferRestriction(address,address,uint256)": "d4ce1415",
    "getRoleAdmin(bytes32)": "248a9ca3",
    "grantRole(bytes32,address)": "2f2ff15d",
    "hasRole(bytes32,address)": "91d14854",
    "isTrustedForwarder(address)": "572b6c05",
    "messageForTransferRestriction(uint8)": "7f4ab1dd",
    "numberListedAddress()": "13be3212",
    "removeAddressFromTheList(address)": "893c1440",
    "removeAddressesFromTheList(address[])": "3630e2ea",
    "renounceRole(bytes32,address)": "36568abe",
    "revokeRole(bytes32,address)": "d547741f",
    "supportsInterface(bytes4)": "01ffc9a7",
    "trustedForwarder()": "7da0a877",
    "validateTransfer(address,address,uint256)": "c6946a12"
  },
  "id": 100
}