{
  "_format": "hh-sol-artifact-1",
  "contractName": "RuleEngine",
  "sourceName": "src/RuleEngine.sol",
  "abi": [
    {
      "inputs": [
        {
          "internalType": "address",
          "name": "admin",
          "type": "address"
        },
        {
          "internalType": "address",
          "name": "forwarderIrrevocable",
          "type": "address"
        },
        {
          "internalType": "address",
          "name": "tokenContract",
          "type": "address"
        }
      ],
      "stateMutability": "nonpayable",
      "type": "constructor"
    },
    {
      "inputs": [],
      "name": "AccessControlBadConfirmation",
      "type": "error"
    },
    {
      "inputs": [
        {
          "internalType": "address",
          "name": "account",
          "type": "address"
        },
        {
          "internalType": "bytes32",
          "name": "neededRole",
          "type": "bytes32"
        }
      ],
      "name": "AccessControlUnauthorizedAccount",
      "type": "error"
    },
    {
      "inputs": [],
      "name": "RuleEngine_AdminWithAddressZeroNotAllowed",
      "type": "error"
    },
    {
      "inputs": [],
      "name": "RuleEngine_ERC3643Compliance_InvalidTokenAddress",
      "type": "error"
    },
    {
      "inputs": [],
      "name": "RuleEngine_ERC3643Compliance_OperationNotSuccessful",
      "type": "error"
    },
    {
      "inputs": [],
      "name": "RuleEngine_ERC3643Compliance_TokenAlreadyBound",
      "type": "error"
    },
    {
      "inputs": [],
      "name": "RuleEngine_ERC3643Compliance_TokenNotBound",
      "type": "error"
    },
    {
      "inputs": [],
      "name": "RuleEngine_ERC3643Compliance_UnauthorizedCaller",
      "type": "error"
    },
    {
      "inputs": [],
      "name": "RuleEngine_RulesManagementModule_ArrayIsEmpty",
      "type": "error"
    },
    {
      "inputs": [],
      "name": "RuleEngine_RulesManagementModule_OperationNotSuccessful",
      "type": "error"
    },
    {
      "inputs": [],
      "name": "RuleEngine_RulesManagementModule_RuleAddressZeroNotAllowed",
      "type": "error"
    },
    {
      "inputs": [],
      "name": "RuleEngine_RulesManagementModule_RuleAlreadyExists",
      "type": "error"
    },
    {
      "inputs": [],
      "name": "RuleEngine_RulesManagementModule_RuleDoNotMatch",
      "type": "error"
    },
    {
      "anonymous": false,
      "inputs": [
        {
          "indexed": true,
          "internalType": "contract IRule",
          "name": "rule",
          "type": "address"
        }
      ],
      "name": "AddRule",
      "type": "event"
    },
    {
      "anonymous": false,
      "inputs": [],
      "name": "ClearRules",
      "type": "event"
    },
    {
      "anonymous": false,
      "inputs": [
        {
          "indexed": true,
          "internalType": "contract IRule",
          "name": "rule",
          "type": "address"
        }
      ],
      "name": "RemoveRule",
      "type": "event"
    },
    {
      "anonymous": false,
      "inputs": [
        {
          "indexed": true,
          "internalType": "bytes32",
          "name": "role",
          "type": "bytes32"
        },
        {
          "indexed": true,
          "internalType": "bytes32",
          "name": "previousAdminRole",
          "type": "bytes32"
        },
        {
          "indexed": true,
          "internalType": "bytes32",
          "name": "newAdminRole",
          "type": "bytes32"
        }
      ],
      "name": "RoleAdminChanged",
      "type": "event"
    },
    {
      "anonymous": false,
      "inputs": [
        {
          "indexed": true,
          "internalType": "bytes32",
          "name": "role",
          "type": "bytes32"
        },
        {
          "indexed": true,
          "internalType": "address",
          "name": "account",
          "type": "address"
        },
        {
          "indexed": true,
          "internalType": "address",
          "name": "sender",
          "type": "address"
        }
      ],
      "name": "RoleGranted",
      "type": "event"
    },
    {
      "anonymous": false,
      "inputs": [
        {
          "indexed": true,
          "internalType": "bytes32",
          "name": "role",
          "type": "bytes32"
        },
        {
          "indexed": true,
          "internalType": "address",
          "name": "account",
          "type": "address"
        },
        {
          "indexed": true,
          "internalType": "address",
          "name": "sender",
          "type": "address"
        }
      ],
      "name": "RoleRevoked",
      "type": "event"
    },
    {
      "anonymous": false,
      "inputs": [
        {
          "indexed": false,
          "internalType": "address",
          "name": "token",
          "type": "address"
        }
      ],
      "name": "TokenBound",
      "type": "event"
    },
    {
      "anonymous": false,
      "inputs": [
        {
          "indexed": false,
          "internalType": "address",
          "name": "token",
          "type": "address"
        }
      ],
      "name": "TokenUnbound",
      "type": "event"
    },
    {
      "inputs": [],
      "name": "COMPLIANCE_MANAGER_ROLE",
      "outputs": [
        {
          "internalType": "bytes32",
          "name": "",
          "type": "bytes32"
        }
      ],
      "stateMutability": "view",
      "type": "function"
    },
    {
      "inputs": [],
      "name": "DEFAULT_ADMIN_ROLE",
      "outputs": [
        {
          "internalType": "bytes32",
          "name": "",
          "type": "bytes32"
        }
      ],
      "stateMutability": "view",
      "type": "function"
    },
    {
      "inputs": [],
      "name": "RULES_MANAGEMENT_ROLE",
      "outputs": [
        {
          "internalType": "bytes32",
          "name": "",
          "type": "bytes32"
        }
      ],
      "stateMutability": "view",
      "type": "function"
    },
    {
      "inputs": [
        {
          "internalType": "contract IRule",
          "name": "rule_",
          "type": "address"
        }
      ],
      "name": "addRule",
      "outputs": [],
      "stateMutability": "nonpayable",
      "type": "function"
    },
    {
      "inputs": [
        {
          "internalType": "address",
          "name": "token",
          "type": "address"
        }
      ],
      "name": "bindToken",
      "outputs": [],
      "stateMutability": "nonpayable",
      "type": "function"
    },
    {
      "inputs": [
        {
          "internalType": "address",
          "name": "from",
          "type": "address"
        },
        {
          "internalType": "address",
          "name": "to",
          "type": "address"
        },
        {
          "internalType": "uint256",
          "name": "value",
          "type": "uint256"
        }
      ],
      "name": "canTransfer",
      "outputs": [
        {
          "internalType": "bool",
          "name": "",
          "type": "bool"
        }
      ],
      "stateMutability": "view",
      "type": "function"
    },
    {
      "inputs": [
        {
          "internalType": "address",
          "name": "spender",
          "type": "address"
        },
        {
          "internalType": "address",
          "name": "from",
          "type": "address"
        },
        {
          "internalType": "address",
          "name": "to",
          "type": "address"
        },
        {
          "internalType": "uint256",
          "name": "value",
          "type": "uint256"
        }
      ],
      "name": "canTransferFrom",
      "outputs": [
        {
          "internalType": "bool",
          "name": "",
          "type": "bool"
        }
      ],
      "stateMutability": "view",
      "type": "function"
    },
    {
      "inputs": [],
      "name": "clearRules",
      "outputs": [],
      "stateMutability": "nonpayable",
      "type": "function"
    },
    {
      "inputs": [
        {
          "internalType": "contract IRule",
          "name": "rule_",
          "type": "address"
        }
      ],
      "name": "containsRule",
      "outputs": [
        {
          "internalType": "bool",
          "name": "",
          "type": "bool"
        }
      ],
      "stateMutability": "view",
      "type": "function"
    },
    {
      "inputs": [
        {
          "internalType": "address",
          "name": "to",
          "type": "address"
        },
        {
          "internalType": "uint256",
          "name": "value",
          "type": "uint256"
        }
      ],
      "name": "created",
      "outputs": [],
      "stateMutability": "nonpayable",
      "type": "function"
    },
    {
      "inputs": [
        {
          "internalType": "address",
          "name": "from",
          "type": "address"
        },
        {
          "internalType": "uint256",
          "name": "value",
          "type": "uint256"
        }
      ],
      "name": "destroyed",
      "outputs": [],
      "stateMutability": "nonpayable",
      "type": "function"
    },
    {
      "inputs": [
        {
          "internalType": "address",
          "name": "from",
          "type": "address"
        },
        {
          "internalType": "address",
          "name": "to",
          "type": "address"
        },
        {
          "internalType": "uint256",
          "name": "value",
          "type": "uint256"
        }
      ],
      "name": "detectTransferRestriction",
      "outputs": [
        {
          "internalType": "uint8",
          "name": "",
          "type": "uint8"
        }
      ],
      "stateMutability": "view",
      "type": "function"
    },
    {
      "inputs": [
        {
          "internalType": "address",
          "name": "spender",
          "type": "address"
        },
        {
          "internalType": "address",
          "name": "from",
          "type": "address"
        },
        {
          "internalType": "address",
          "name": "to",
          "type": "address"
        },
        {
          "internalType": "uint256",
          "name": "value",
          "type": "uint256"
        }
      ],
      "name": "detectTransferRestrictionFrom",
      "outputs": [
        {
          "internalType": "uint8",
          "name": "",
          "type": "uint8"
        }
      ],
      "stateMutability": "view",
      "type": "function"
    },
    {
      "inputs": [
        {
          "internalType": "bytes32",
          "name": "role",
          "type": "bytes32"
        }
      ],
      "name": "getRoleAdmin",
      "outputs": [
        {
          "internalType": "bytes32",
          "name": "",
          "type": "bytes32"
        }
      ],
      "stateMutability": "view",
      "type": "function"
    },
    {
      "inputs": [],
      "name": "getTokenBound",
      "outputs": [
        {
          "internalType": "address",
          "name": "",
          "type": "address"
        }
      ],
      "stateMutability": "view",
      "type": "function"
    },
    {
      "inputs": [],
      "name": "getTokenBounds",
      "outputs": [
        {
          "internalType": "address[]",
          "name": "",
          "type": "address[]"
        }
      ],
      "stateMutability": "view",
      "type": "function"
    },
    {
      "inputs": [
        {
          "internalType": "bytes32",
          "name": "role",
          "type": "bytes32"
        },
        {
          "internalType": "address",
          "name": "account",
          "type": "address"
        }
      ],
      "name": "grantRole",
      "outputs": [],
      "stateMutability": "nonpayable",
      "type": "function"
    },
    {
      "inputs": [
        {
          "internalType": "bytes32",
          "name": "role",
          "type": "bytes32"
        },
        {
          "internalType": "address",
          "name": "account",
          "type": "address"
        }
      ],
      "name": "hasRole",
      "outputs": [
        {
          "internalType": "bool",
          "name": "",
          "type": "bool"
        }
      ],
      "stateMutability": "view",
      "type": "function"
    },
    {
      "inputs": [
        {
          "internalType": "address",
          "name": "token",
          "type": "address"
        }
      ],
      "name": "isTokenBound",
      "outputs": [
        {
          "internalType": "bool",
          "name": "",
          "type": "bool"
        }
      ],
      "stateMutability": "view",
      "type": "function"
    },
    {
      "inputs": [
        {
          "internalType": "address",
          "name": "forwarder",
          "type": "address"
        }
      ],
      "name": "isTrustedForwarder",
      "outputs": [
        {
          "internalType": "bool",
          "name": "",
          "type": "bool"
        }
      ],
      "stateMutability": "view",
      "type": "function"
    },
    {
      "inputs": [
        {
          "internalType": "uint8",
          "name": "restrictionCode",
          "type": "uint8"
        }
      ],
      "name": "messageForTransferRestriction",
      "outputs": [
        {
          "internalType": "string",
          "name": "",
          "type": "string"
        }
      ],
      "stateMutability": "view",
      "type": "function"
    },
    {
      "inputs": [
        {
          "internalType": "contract IRule",
          "name": "rule_",
          "type": "address"
        }
      ],
      "name": "removeRule",
      "outputs": [],
      "stateMutability": "nonpayable",
      "type": "function"
    },
    {
      "inputs": [
        {
          "internalType": "bytes32",
          "name": "role",
          "type": "bytes32"
        },
        {
          "internalType": "address",
          "name": "callerConfirmation",
          "type": "address"
        }
      ],
      "name": "renounceRole",
      "outputs": [],
      "stateMutability": "nonpayable",
      "type": "function"
    },
    {
      "inputs": [
        {
          "internalType": "bytes32",
          "name": "role",
          "type": "bytes32"
        },
        {
          "internalType": "address",
          "name": "account",
          "type": "address"
        }
      ],
      "name": "revokeRole",
      "outputs": [],
      "stateMutability": "nonpayable",
      "type": "function"
    },
    {
      "inputs": [
        {
          "internalType": "uint256",
          "name": "ruleId",
          "type": "uint256"
        }
      ],
      "name": "rule",
      "outputs": [
        {
          "internalType": "address",
          "name": "",
          "type": "address"
        }
      ],
      "stateMutability": "view",
      "type": "function"
    },
    {
      "inputs": [],
      "name": "rules",
      "outputs": [
        {
          "internalType": "address[]",
          "name": "",
          "type": "address[]"
        }
      ],
      "stateMutability": "view",
      "type": "function"
    },
    {
      "inputs": [],
      "name": "rulesCount",
      "outputs": [
        {
          "internalType": "uint256",
          "name": "",
          "type": "uint256"
        }
      ],
      "stateMutability": "view",
      "type": "function"
    },
    {
      "inputs": [
        {
          "internalType": "contract IRule[]",
          "name": "rules_",
          "type": "address[]"
        }
      ],
      "name": "setRules",
      "outputs": [],
      "stateMutability": "nonpayable",
      "type": "function"
    },
    {
      "inputs": [
        {
          "internalType": "bytes4",
          "name": "interfaceId",
          "type": "bytes4"
        }
      ],
      "name": "supportsInterface",
      "outputs": [
        {
          "internalType": "bool",
          "name": "",
          "type": "bool"
        }
      ],
      "stateMutability": "view",
      "type": "function"
    },
    {
      "inputs": [
        {
          "internalType": "address",
          "name": "spender",
          "type": "address"
        },
        {
          "internalType": "address",
          "name": "from",
          "type": "address"
        },
        {
          "internalType": "address",
          "name": "to",
          "type": "address"
        },
        {
          "internalType": "uint256",
          "name": "value",
          "type": "uint256"
        }
      ],
      "name": "transferred",
      "outputs": [],
      "stateMutability": "nonpayable",
      "type": "function"
    },
    {
      "inputs": [
        {
          "internalType": "address",
          "name": "from",
          "type": "address"
        },
        {
          "internalType": "address",
          "name": "to",
          "type": "address"
        },
        {
          "internalType": "uint256",
          "name": "value",
          "type": "uint256"
        }
      ],
      "name": "transferred",
      "outputs": [],
      "stateMutability": "nonpayable",
      "type": "function"
    },
    {
      "inputs": [],
      "name": "trustedForwarder",
      "outputs": [
        {
          "internalType": "address",
          "name": "",
          "type": "address"
        }
      ],
      "stateMutability": "view",
      "type": "function"
    },
    {
      "inputs": [
        {
          "internalType": "address",
          "name": "token",
          "type": "address"
        }
      ],
      "name": "unbindToken",
      "outputs": [],
      "stateMutability": "nonpayable",
      "type": "function"
    },
    {
      "inputs": [],
      "name": "version",
      "outputs": [
        {
          "internalType": "string",
          "name": "version_",
          "type": "string"
        }
      ],
      "stateMutability": "view",
      "type": "function"
    }
  ],
  "bytecode": "0x60a060405234801561000f575f5ffd5b5060405161316338038061316383398181016040528101906100319190610641565b81808073ffffffffffffffffffffffffffffffffffffffff1660808173ffffffffffffffffffffffffffffffffffffffff168152505050505f73ffffffffffffffffffffffffffffffffffffffff168373ffffffffffffffffffffffffffffffffffffffff16036100ce576040517f21c89ccc00000000000000000000000000000000000000000000000000000000815260040160405180910390fd5b5f73ffffffffffffffffffffffffffffffffffffffff168173ffffffffffffffffffffffffffffffffffffffff1614610111576101108161012c60201b60201c565b5b6101235f5f1b8461026060201b60201c565b5050505061079a565b5f73ffffffffffffffffffffffffffffffffffffffff168173ffffffffffffffffffffffffffffffffffffffff1603610191576040517fdc418b8000000000000000000000000000000000000000000000000000000000815260040160405180910390fd5b6101a581600361035560201b90919060201c565b156101dc576040517ff423354700000000000000000000000000000000000000000000000000000000815260040160405180910390fd5b6101f081600361038860201b90919060201c565b610226576040517f369bb9e600000000000000000000000000000000000000000000000000000000815260040160405180910390fd5b7f2de35142b19ed5a07796cf30791959c592018f70b1d2d7c460eef8ffe713692b8160405161025591906106a0565b60405180910390a150565b5f61027183836103bb60201b60201c565b61034b5760015f5f8581526020019081526020015f205f015f8473ffffffffffffffffffffffffffffffffffffffff1673ffffffffffffffffffffffffffffffffffffffff1681526020019081526020015f205f6101000a81548160ff0219169083151502179055506102e86103f560201b60201c565b73ffffffffffffffffffffffffffffffffffffffff168273ffffffffffffffffffffffffffffffffffffffff16847f2f8788117e7eff1d82e926ec794901d17c78024a50270940304540a733656f0d60405160405180910390a46001905061034f565b5f90505b92915050565b5f610380835f018373ffffffffffffffffffffffffffffffffffffffff165f1b61040960201b60201c565b905092915050565b5f6103b3835f018373ffffffffffffffffffffffffffffffffffffffff165f1b61042960201b60201c565b905092915050565b5f6103ce5f5f1b8361049660201b60201c565b156103dc57600190506103ef565b6103ec838361049660201b60201c565b90505b92915050565b5f6104046104f960201b60201c565b905090565b5f5f836001015f8481526020019081526020015f20541415905092915050565b5f61043a838361040960201b60201c565b61048c57825f0182908060018154018082558091505060019003905f5260205f20015f9091909190915055825f0180549050836001015f8481526020019081526020015f208190555060019050610490565b5f90505b92915050565b5f5f5f8481526020019081526020015f205f015f8373ffffffffffffffffffffffffffffffffffffffff1673ffffffffffffffffffffffffffffffffffffffff1681526020019081526020015f205f9054906101000a900460ff16905092915050565b5f5f5f36905090505f61051061057360201b60201c565b905080821015801561052d575061052c3361058760201b60201c565b5b1561055d575f36828403908092610546939291906106c1565b90610551919061073c565b60601c92505050610570565b61056b6105cb60201b60201c565b925050505b90565b5f6105826105d260201b60201c565b905090565b5f6105966105da60201b60201c565b73ffffffffffffffffffffffffffffffffffffffff168273ffffffffffffffffffffffffffffffffffffffff16149050919050565b5f33905090565b5f6014905090565b5f608051905090565b5f5ffd5b5f73ffffffffffffffffffffffffffffffffffffffff82169050919050565b5f610610826105e7565b9050919050565b61062081610606565b811461062a575f5ffd5b50565b5f8151905061063b81610617565b92915050565b5f5f5f60608486031215610658576106576105e3565b5b5f6106658682870161062d565b93505060206106768682870161062d565b92505060406106878682870161062d565b9150509250925092565b61069a81610606565b82525050565b5f6020820190506106b35f830184610691565b92915050565b5f5ffd5b5f5ffd5b5f5f858511156106d4576106d36106b9565b5b838611156106e5576106e46106bd565b5b6001850283019150848603905094509492505050565b5f82905092915050565b5f7fffffffffffffffffffffffffffffffffffffffff00000000000000000000000082169050919050565b5f82821b905092915050565b5f61074783836106fb565b826107528135610705565b925060148210156107925761078d7fffffffffffffffffffffffffffffffffffffffff00000000000000000000000083601403600802610730565b831692505b505092915050565b6080516129b16107b25f395f610a4701526129b15ff3fe608060405234801561000f575f5ffd5b5060043610610204575f3560e01c80638baf29b411610118578063bc13eacc116100ab578063db18af6c1161007a578063db18af6c146105fa578063df21950f1461062a578063e3c4602c14610646578063e46638e614610662578063e54621d21461069257610204565b8063bc13eacc14610560578063d32c7bb51461057e578063d4ce1415146105ae578063d547741f146105de57610204565b80639b11c115116100e75780639b11c115146104fe578063a217fddf1461051c578063b043572e1461053a578063b27aef3a1461054457610204565b80638baf29b4146104665780638d2ea7721461048257806391d148541461049e578063993e8b95146104ce57610204565b806352f6747a1161019b5780635f8dead31161016a5780635f8dead3146103ae5780636a3edf28146103ca5780637157797f146103e85780637da0a877146104185780637f4ab1dd1461043657610204565b806352f6747a1461031257806354e4b9451461033057806354fd4d5014610360578063572b6c051461037e57610204565b806336568abe116101d757806336568abe146102a25780633e5af4ca146102be5780633ff5aa02146102da57806340db3b50146102f657610204565b806301ffc9a71461020857806303c26bcd14610238578063248a9ca3146102565780632f2ff15d14610286575b5f5ffd5b610222600480360381019061021d9190611ed6565b6106b0565b60405161022f9190611f1b565b60405180910390f35b610240610729565b60405161024d9190611f4c565b60405180910390f35b610270600480360381019061026b9190611f8f565b61074d565b60405161027d9190611f4c565b60405180910390f35b6102a0600480360381019061029b9190612014565b610769565b005b6102bc60048036038101906102b79190612014565b61078b565b005b6102d860048036038101906102d39190612085565b610806565b005b6102f460048036038101906102ef91906120e9565b610869565b005b610310600480360381019061030b91906120e9565b6108a0565b005b61031a6108d7565b60405161032791906121cb565b60405180910390f35b61034a60048036038101906103459190612226565b6108e8565b6040516103579190611f1b565b60405180910390f35b610368610904565b60405161037591906122c1565b60405180910390f35b610398600480360381019061039391906120e9565b610941565b6040516103a59190611f1b565b60405180910390f35b6103c860048036038101906103c391906122e1565b61097f565b005b6103d26109df565b6040516103df919061232e565b60405180910390f35b61040260048036038101906103fd9190612085565b610a13565b60405161040f9190611f1b565b60405180910390f35b610420610a44565b60405161042d919061232e565b60405180910390f35b610450600480360381019061044b919061237d565b610a6b565b60405161045d91906122c1565b60405180910390f35b610480600480360381019061047b91906123a8565b610be1565b005b61049c600480360381019061049791906122e1565b610c42565b005b6104b860048036038101906104b39190612014565b610ca2565b6040516104c59190611f1b565b60405180910390f35b6104e860048036038101906104e391906120e9565b610cd0565b6040516104f59190611f1b565b60405180910390f35b610506610cec565b6040516105139190611f4c565b60405180910390f35b610524610d10565b6040516105319190611f4c565b60405180910390f35b610542610d16565b005b61055e60048036038101906105599190612459565b610d4b565b005b610568610ef7565b60405161057591906124b3565b60405180910390f35b61059860048036038101906105939190612085565b610f07565b6040516105a591906124db565b60405180910390f35b6105c860048036038101906105c391906123a8565b610feb565b6040516105d591906124db565b60405180910390f35b6105f860048036038101906105f39190612014565b6110cc565b005b610614600480360381019061060f91906124f4565b6110ee565b604051610621919061232e565b60405180910390f35b610644600480360381019061063f9190612226565b611124565b005b610660600480360381019061065b9190612226565b6111a5565b005b61067c600480360381019061067791906123a8565b611269565b6040516106899190611f1b565b60405180910390f35b61069a611298565b6040516106a791906121cb565b60405180910390f35b5f7f7965db0b000000000000000000000000000000000000000000000000000000007bffffffffffffffffffffffffffffffffffffffffffffffffffffffff1916827bffffffffffffffffffffffffffffffffffffffffffffffffffffffff191614806107225750610721826112a9565b5b9050919050565b7fe5c50d0927e06141e032cb9a67e1d7092dc85c0b0825191f7e1cede60002856881565b5f5f5f8381526020019081526020015f20600101549050919050565b6107728261074d565b61077b81611312565b6107858383611326565b50505050565b61079361140f565b73ffffffffffffffffffffffffffffffffffffffff168173ffffffffffffffffffffffffffffffffffffffff16146107f7576040517f6697b23200000000000000000000000000000000000000000000000000000000815260040160405180910390fd5b610801828261141d565b505050565b61082161081161140f565b600361150690919063ffffffff16565b610857576040517fe39b3c8f00000000000000000000000000000000000000000000000000000000815260040160405180910390fd5b61086384848484611533565b50505050565b7fe5c50d0927e06141e032cb9a67e1d7092dc85c0b0825191f7e1cede60002856861089381611312565b61089c826115df565b5050565b7fe5c50d0927e06141e032cb9a67e1d7092dc85c0b0825191f7e1cede6000285686108ca81611312565b6108d382611713565b5050565b60606108e360016117e1565b905090565b5f6108fd82600161150690919063ffffffff16565b9050919050565b60606040518060400160405280600581526020017f332e302e30000000000000000000000000000000000000000000000000000000815250905090565b5f61094a610a44565b73ffffffffffffffffffffffffffffffffffffffff168273ffffffffffffffffffffffffffffffffffffffff16149050919050565b61099a61098a61140f565b600361150690919063ffffffff16565b6109d0576040517fe39b3c8f00000000000000000000000000000000000000000000000000000000815260040160405180910390fd5b6109db5f8383611800565b5050565b5f5f6109eb60036118a9565b1115610a0c57610a055f60036118bc90919063ffffffff16565b9050610a10565b5f90505b90565b5f5f6006811115610a2757610a2661251f565b5b60ff16610a3686868686610f07565b60ff16149050949350505050565b5f7f0000000000000000000000000000000000000000000000000000000000000000905090565b60605f610a76610ef7565b90505f5f90505b81811015610ba157610a8e816110ee565b73ffffffffffffffffffffffffffffffffffffffff16637d045df6856040518263ffffffff1660e01b8152600401610ac691906124db565b602060405180830381865afa158015610ae1573d5f5f3e3d5ffd5b505050506040513d601f19601f82011682018060405250810190610b059190612576565b15610b9657610b13816110ee565b73ffffffffffffffffffffffffffffffffffffffff16637f4ab1dd856040518263ffffffff1660e01b8152600401610b4b91906124db565b5f60405180830381865afa158015610b65573d5f5f3e3d5ffd5b505050506040513d5f823e3d601f19601f82011682018060405250810190610b8d91906126bb565b92505050610bdc565b806001019050610a7d565b506040518060400160405280601881526020017f556e6b6e6f776e207265737472696374696f6e20636f646500000000000000008152509150505b919050565b610bfc610bec61140f565b600361150690919063ffffffff16565b610c32576040517fe39b3c8f00000000000000000000000000000000000000000000000000000000815260040160405180910390fd5b610c3d838383611800565b505050565b610c5d610c4d61140f565b600361150690919063ffffffff16565b610c93576040517fe39b3c8f00000000000000000000000000000000000000000000000000000000815260040160405180910390fd5b610c9e825f83611800565b5050565b5f610caf5f5f1b836118d3565b15610cbd5760019050610cca565b610cc783836118d3565b90505b92915050565b5f610ce582600361150690919063ffffffff16565b9050919050565b7fea5f4eb72290e50c32abd6c23e45de3d8300b3286e1cbc2e293114b92e034e5e81565b5f5f1b81565b7fea5f4eb72290e50c32abd6c23e45de3d8300b3286e1cbc2e293114b92e034e5e610d4081611312565b610d48611936565b50565b7fea5f4eb72290e50c32abd6c23e45de3d8300b3286e1cbc2e293114b92e034e5e610d7581611312565b5f8383905003610db1576040517f59203cb900000000000000000000000000000000000000000000000000000000815260040160405180910390fd5b5f610dbc60016118a9565b1115610dcb57610dca611936565b5b5f5f90505b83839050811015610ef157610e0b848483818110610df157610df0612702565b5b9050602002016020810190610e069190612226565b61196e565b610e46848483818110610e2157610e20612702565b5b9050602002016020810190610e369190612226565b6001611a2190919063ffffffff16565b610e7c576040517ff280d16100000000000000000000000000000000000000000000000000000000815260040160405180910390fd5b838382818110610e8f57610e8e612702565b5b9050602002016020810190610ea49190612226565b73ffffffffffffffffffffffffffffffffffffffff167f60305ce6c9104acd0969d358f926bf391174340660aaf5e6215261fd6847bf4660405160405180910390a2806001019050610dd0565b50505050565b5f610f0260016118a9565b905090565b5f5f610f11610ef7565b90505f5f90505b81811015610fcb575f610f2a826110ee565b73ffffffffffffffffffffffffffffffffffffffff1663d32c7bb5898989896040518563ffffffff1660e01b8152600401610f68949392919061272f565b602060405180830381865afa158015610f83573d5f5f3e3d5ffd5b505050506040513d601f19601f82011682018060405250810190610fa79190612786565b90505f8160ff161115610fbf57809350505050610fe3565b50806001019050610f18565b505f6006811115610fdf57610fde61251f565b5b9150505b949350505050565b5f5f610ff5610ef7565b90505f5f90505b818110156110ad575f61100e826110ee565b73ffffffffffffffffffffffffffffffffffffffff1663d4ce14158888886040518463ffffffff1660e01b815260040161104a939291906127b1565b602060405180830381865afa158015611065573d5f5f3e3d5ffd5b505050506040513d601f19601f820116820180604052508101906110899190612786565b90505f8160ff1611156110a1578093505050506110c5565b50806001019050610ffc565b505f60068111156110c1576110c061251f565b5b9150505b9392505050565b6110d58261074d565b6110de81611312565b6110e8838361141d565b50505050565b5f6110f960016118a9565b82101561111b576111148260016118bc90919063ffffffff16565b905061111f565b5f90505b919050565b7fea5f4eb72290e50c32abd6c23e45de3d8300b3286e1cbc2e293114b92e034e5e61114e81611312565b61116282600161150690919063ffffffff16565b611198576040517fb370e90400000000000000000000000000000000000000000000000000000000815260040160405180910390fd5b6111a182611a4e565b5050565b7fea5f4eb72290e50c32abd6c23e45de3d8300b3286e1cbc2e293114b92e034e5e6111cf81611312565b6111d88261196e565b6111ec826001611a2190919063ffffffff16565b611222576040517ff280d16100000000000000000000000000000000000000000000000000000000815260040160405180910390fd5b8173ffffffffffffffffffffffffffffffffffffffff167f60305ce6c9104acd0969d358f926bf391174340660aaf5e6215261fd6847bf4660405160405180910390a25050565b5f5f600681111561127d5761127c61251f565b5b60ff1661128b858585610feb565b60ff161490509392505050565b60606112a460036117e1565b905090565b5f7f01ffc9a7000000000000000000000000000000000000000000000000000000007bffffffffffffffffffffffffffffffffffffffffffffffffffffffff1916827bffffffffffffffffffffffffffffffffffffffffffffffffffffffff1916149050919050565b6113238161131e61140f565b611ade565b50565b5f6113318383610ca2565b6114055760015f5f8581526020019081526020015f205f015f8473ffffffffffffffffffffffffffffffffffffffff1673ffffffffffffffffffffffffffffffffffffffff1681526020019081526020015f205f6101000a81548160ff0219169083151502179055506113a261140f565b73ffffffffffffffffffffffffffffffffffffffff168273ffffffffffffffffffffffffffffffffffffffff16847f2f8788117e7eff1d82e926ec794901d17c78024a50270940304540a733656f0d60405160405180910390a460019050611409565b5f90505b92915050565b5f611418611b2f565b905090565b5f6114288383610ca2565b156114fc575f5f5f8581526020019081526020015f205f015f8473ffffffffffffffffffffffffffffffffffffffff1673ffffffffffffffffffffffffffffffffffffffff1681526020019081526020015f205f6101000a81548160ff02191690831515021790555061149961140f565b73ffffffffffffffffffffffffffffffffffffffff168273ffffffffffffffffffffffffffffffffffffffff16847ff6391f5c32d9c69d2a47ea670b442974b53935d1edc7fd64eb21e047a839171b60405160405180910390a460019050611500565b5f90505b92915050565b5f61152b835f018373ffffffffffffffffffffffffffffffffffffffff165f1b611b97565b905092915050565b5f61153e60016118a9565b90505f5f90505b818110156115d7576115618160016118bc90919063ffffffff16565b73ffffffffffffffffffffffffffffffffffffffff16633e5af4ca878787876040518563ffffffff1660e01b815260040161159f949392919061272f565b5f604051808303815f87803b1580156115b6575f5ffd5b505af11580156115c8573d5f5f3e3d5ffd5b50505050806001019050611545565b505050505050565b5f73ffffffffffffffffffffffffffffffffffffffff168173ffffffffffffffffffffffffffffffffffffffff1603611644576040517fdc418b8000000000000000000000000000000000000000000000000000000000815260040160405180910390fd5b61165881600361150690919063ffffffff16565b1561168f576040517ff423354700000000000000000000000000000000000000000000000000000000815260040160405180910390fd5b6116a3816003611a2190919063ffffffff16565b6116d9576040517f369bb9e600000000000000000000000000000000000000000000000000000000815260040160405180910390fd5b7f2de35142b19ed5a07796cf30791959c592018f70b1d2d7c460eef8ffe713692b81604051611708919061232e565b60405180910390a150565b61172781600361150690919063ffffffff16565b61175d576040517fd456910600000000000000000000000000000000000000000000000000000000815260040160405180910390fd5b611771816003611bb790919063ffffffff16565b6117a7576040517f369bb9e600000000000000000000000000000000000000000000000000000000815260040160405180910390fd5b7f28a4ca7134a3b3f9aff286e79ad3daadb4a06d1b43d037a3a98bdc074edd9b7a816040516117d6919061232e565b60405180910390a150565b60605f6117ef835f01611be4565b905060608190508092505050919050565b5f61180b60016118a9565b90505f5f90505b818110156118a25761182e8160016118bc90919063ffffffff16565b73ffffffffffffffffffffffffffffffffffffffff16638baf29b48686866040518463ffffffff1660e01b815260040161186a939291906127b1565b5f604051808303815f87803b158015611881575f5ffd5b505af1158015611893573d5f5f3e3d5ffd5b50505050806001019050611812565b5050505050565b5f6118b5825f01611c3d565b9050919050565b5f6118c9835f0183611c4c565b5f1c905092915050565b5f5f5f8481526020019081526020015f205f015f8373ffffffffffffffffffffffffffffffffffffffff1673ffffffffffffffffffffffffffffffffffffffff1681526020019081526020015f205f9054906101000a900460ff16905092915050565b7fdbf61473843cd9be1c9791ce51ef66d0da6c9026d62ba80c1ca433b13fb729b260405160405180910390a161196c6001611c73565b565b5f73ffffffffffffffffffffffffffffffffffffffff168173ffffffffffffffffffffffffffffffffffffffff16036119d3576040517ff9d152fb00000000000000000000000000000000000000000000000000000000815260040160405180910390fd5b6119e781600161150690919063ffffffff16565b15611a1e576040517fcc790a4b00000000000000000000000000000000000000000000000000000000815260040160405180910390fd5b50565b5f611a46835f018373ffffffffffffffffffffffffffffffffffffffff165f1b611c81565b905092915050565b611a62816001611bb790919063ffffffff16565b611a98576040517ff280d16100000000000000000000000000000000000000000000000000000000815260040160405180910390fd5b8073ffffffffffffffffffffffffffffffffffffffff167f6d83315c9718799346b67584ec64301b1457e989c8e35a8e2982a7776c04bfc460405160405180910390a250565b611ae88282610ca2565b611b2b5780826040517fe2517d3f000000000000000000000000000000000000000000000000000000008152600401611b229291906127e6565b60405180910390fd5b5050565b5f5f5f36905090505f611b40611ce8565b9050808210158015611b575750611b5633610941565b5b15611b87575f36828403908092611b7093929190612815565b90611b7b9190612890565b60601c92505050611b94565b611b8f611cf6565b925050505b90565b5f5f836001015f8481526020019081526020015f20541415905092915050565b5f611bdc835f018373ffffffffffffffffffffffffffffffffffffffff165f1b611cfd565b905092915050565b6060815f01805480602002602001604051908101604052809291908181526020018280548015611c3157602002820191905f5260205f20905b815481526020019060010190808311611c1d575b50505050509050919050565b5f815f01805490509050919050565b5f825f018281548110611c6257611c61612702565b5b905f5260205f200154905092915050565b611c7e815f01611df9565b50565b5f611c8c8383611b97565b611cde57825f0182908060018154018082558091505060019003905f5260205f20015f9091909190915055825f0180549050836001015f8481526020019081526020015f208190555060019050611ce2565b5f90505b92915050565b5f611cf1611e61565b905090565b5f33905090565b5f5f836001015f8481526020019081526020015f205490505f8114611dee575f600182611d2a919061291b565b90505f6001865f0180549050611d40919061291b565b9050808214611da6575f865f018281548110611d5f57611d5e612702565b5b905f5260205f200154905080875f018481548110611d8057611d7f612702565b5b905f5260205f20018190555083876001015f8381526020019081526020015f2081905550505b855f01805480611db957611db861294e565b5b600190038181905f5260205f20015f90559055856001015f8681526020019081526020015f205f905560019350505050611df3565b5f9150505b92915050565b5f611e0382611c3d565b90505f5f90505b81811015611e5057826001015f845f018381548110611e2c57611e2b612702565b5b905f5260205f20015481526020019081526020015f205f9055806001019050611e0a565b50611e5d825f015f611e69565b5050565b5f6014905090565b8082555050565b5f604051905090565b5f5ffd5b5f5ffd5b5f7fffffffff0000000000000000000000000000000000000000000000000000000082169050919050565b611eb581611e81565b8114611ebf575f5ffd5b50565b5f81359050611ed081611eac565b92915050565b5f60208284031215611eeb57611eea611e79565b5b5f611ef884828501611ec2565b91505092915050565b5f8115159050919050565b611f1581611f01565b82525050565b5f602082019050611f2e5f830184611f0c565b92915050565b5f819050919050565b611f4681611f34565b82525050565b5f602082019050611f5f5f830184611f3d565b92915050565b611f6e81611f34565b8114611f78575f5ffd5b50565b5f81359050611f8981611f65565b92915050565b5f60208284031215611fa457611fa3611e79565b5b5f611fb184828501611f7b565b91505092915050565b5f73ffffffffffffffffffffffffffffffffffffffff82169050919050565b5f611fe382611fba565b9050919050565b611ff381611fd9565b8114611ffd575f5ffd5b50565b5f8135905061200e81611fea565b92915050565b5f5f6040838503121561202a57612029611e79565b5b5f61203785828601611f7b565b925050602061204885828601612000565b9150509250929050565b5f819050919050565b61206481612052565b811461206e575f5ffd5b50565b5f8135905061207f8161205b565b92915050565b5f5f5f5f6080858703121561209d5761209c611e79565b5b5f6120aa87828801612000565b94505060206120bb87828801612000565b93505060406120cc87828801612000565b92505060606120dd87828801612071565b91505092959194509250565b5f602082840312156120fe576120fd611e79565b5b5f61210b84828501612000565b91505092915050565b5f81519050919050565b5f82825260208201905092915050565b5f819050602082019050919050565b61214681611fd9565b82525050565b5f612157838361213d565b60208301905092915050565b5f602082019050919050565b5f61217982612114565b612183818561211e565b935061218e8361212e565b805f5b838110156121be5781516121a5888261214c565b97506121b083612163565b925050600181019050612191565b5085935050505092915050565b5f6020820190508181035f8301526121e3818461216f565b905092915050565b5f6121f582611fd9565b9050919050565b612205816121eb565b811461220f575f5ffd5b50565b5f81359050612220816121fc565b92915050565b5f6020828403121561223b5761223a611e79565b5b5f61224884828501612212565b91505092915050565b5f81519050919050565b5f82825260208201905092915050565b8281835e5f83830152505050565b5f601f19601f8301169050919050565b5f61229382612251565b61229d818561225b565b93506122ad81856020860161226b565b6122b681612279565b840191505092915050565b5f6020820190508181035f8301526122d98184612289565b905092915050565b5f5f604083850312156122f7576122f6611e79565b5b5f61230485828601612000565b925050602061231585828601612071565b9150509250929050565b61232881611fd9565b82525050565b5f6020820190506123415f83018461231f565b92915050565b5f60ff82169050919050565b61235c81612347565b8114612366575f5ffd5b50565b5f8135905061237781612353565b92915050565b5f6020828403121561239257612391611e79565b5b5f61239f84828501612369565b91505092915050565b5f5f5f606084860312156123bf576123be611e79565b5b5f6123cc86828701612000565b93505060206123dd86828701612000565b92505060406123ee86828701612071565b9150509250925092565b5f5ffd5b5f5ffd5b5f5ffd5b5f5f83601f840112612419576124186123f8565b5b8235905067ffffffffffffffff811115612436576124356123fc565b5b60208301915083602082028301111561245257612451612400565b5b9250929050565b5f5f6020838503121561246f5761246e611e79565b5b5f83013567ffffffffffffffff81111561248c5761248b611e7d565b5b61249885828601612404565b92509250509250929050565b6124ad81612052565b82525050565b5f6020820190506124c65f8301846124a4565b92915050565b6124d581612347565b82525050565b5f6020820190506124ee5f8301846124cc565b92915050565b5f6020828403121561250957612508611e79565b5b5f61251684828501612071565b91505092915050565b7f4e487b71000000000000000000000000000000000000000000000000000000005f52602160045260245ffd5b61255581611f01565b811461255f575f5ffd5b50565b5f815190506125708161254c565b92915050565b5f6020828403121561258b5761258a611e79565b5b5f61259884828501612562565b91505092915050565b5f5ffd5b7f4e487b71000000000000000000000000000000000000000000000000000000005f52604160045260245ffd5b6125db82612279565b810181811067ffffffffffffffff821117156125fa576125f96125a5565b5b80604052505050565b5f61260c611e70565b905061261882826125d2565b919050565b5f67ffffffffffffffff821115612637576126366125a5565b5b61264082612279565b9050602081019050919050565b5f61265f61265a8461261d565b612603565b90508281526020810184848401111561267b5761267a6125a1565b5b61268684828561226b565b509392505050565b5f82601f8301126126a2576126a16123f8565b5b81516126b284826020860161264d565b91505092915050565b5f602082840312156126d0576126cf611e79565b5b5f82015167ffffffffffffffff8111156126ed576126ec611e7d565b5b6126f98482850161268e565b91505092915050565b7f4e487b71000000000000000000000000000000000000000000000000000000005f52603260045260245ffd5b5f6080820190506127425f83018761231f565b61274f602083018661231f565b61275c604083018561231f565b61276960608301846124a4565b95945050505050565b5f8151905061278081612353565b92915050565b5f6020828403121561279b5761279a611e79565b5b5f6127a884828501612772565b91505092915050565b5f6060820190506127c45f83018661231f565b6127d1602083018561231f565b6127de60408301846124a4565b949350505050565b5f6040820190506127f95f83018561231f565b6128066020830184611f3d565b9392505050565b5f5ffd5b5f5ffd5b5f5f858511156128285761282761280d565b5b8386111561283957612838612811565b5b6001850283019150848603905094509492505050565b5f82905092915050565b5f7fffffffffffffffffffffffffffffffffffffffff00000000000000000000000082169050919050565b5f82821b905092915050565b5f61289b838361284f565b826128a68135612859565b925060148210156128e6576128e17fffffffffffffffffffffffffffffffffffffffff00000000000000000000000083601403600802612884565b831692505b505092915050565b7f4e487b71000000000000000000000000000000000000000000000000000000005f52601160045260245ffd5b5f61292582612052565b915061293083612052565b9250828203905081811115612948576129476128ee565b5b92915050565b7f4e487b71000000000000000000000000000000000000000000000000000000005f52603160045260245ffdfea2646970667358221220424f0794bba77302c7f954fbeba7cfe1f1e71aaf9ccfb51c88b7fc8c64e5082264736f6c634300081e0033",
  "linkReferences": {},
  "deployedLinkReferences": {}
}