{
  "_format": "hh-sol-artifact-1",
  "contractName": "RuleEngine",
  "sourceName": "src/RuleEngine.sol",
  "abi": [
    {
      "inputs": [
        {
          "internalType": "address",
          "name": "admin",
          "type": "address"
        },
        {
          "internalType": "address",
          "name": "forwarderIrrevocable",
          "type": "address"
        },
        {
          "internalType": "address",
          "name": "tokenContract",
          "type": "address"
        }
      ],
      "stateMutability": "nonpayable",
      "type": "constructor"
    },
    {
      "inputs": [],
      "name": "AccessControlBadConfirmation",
      "type": "error"
    },
    {
      "inputs": [
        {
          "internalType": "address",
          "name": "account",
          "type": "address"
        },
        {
          "internalType": "bytes32",
          "name": "neededRole",
          "type": "bytes32"
        }
      ],
      "name": "AccessControlUnauthorizedAccount",
      "type": "error"
    },
    {
      "inputs": [],
      "name": "RuleEngine_AdminWithAddressZeroNotAllowed",
      "type": "error"
    },
    {
      "inputs": [],
      "name": "RuleEngine_ERC3643Compliance_InvalidTokenAddress",
      "type": "error"
    },
    {
      "inputs": [],
      "name": "RuleEngine_ERC3643Compliance_OperationNotSuccessful",
      "type": "error"
    },
    {
      "inputs": [],
      "name": "RuleEngine_ERC3643Compliance_TokenAlreadyBound",
      "type": "error"
    },
    {
      "inputs": [],
      "name": "RuleEngine_ERC3643Compliance_TokenNotBound",
      "type": "error"
    },
    {
      "inputs": [],
      "name": "RuleEngine_ERC3643Compliance_UnauthorizedCaller",
      "type": "error"
    },
    {
      "inputs": [],
      "name": "RuleEngine_RulesManagementModule_ArrayIsEmpty",
      "type": "error"
    },
    {
      "inputs": [],
      "name": "RuleEngine_RulesManagementModule_OperationNotSuccessful",
      "type": "error"
    },
    {
      "inputs": [],
      "name": "RuleEngine_RulesManagementModule_RuleAddressZeroNotAllowed",
      "type": "error"
    },
    {
      "inputs": [],
      "name": "RuleEngine_RulesManagementModule_RuleAlreadyExists",
      "type": "error"
    },
    {
      "inputs": [],
      "name": "RuleEngine_RulesManagementModule_RuleDoNotMatch",
      "type": "error"
    },
    {
      "anonymous": false,
      "inputs": [
        {
          "indexed": true,
          "internalType": "contract IRule",
          "name": "rule",
          "type": "address"
        }
      ],
      "name": "AddRule",
      "type": "event"
    },
    {
      "anonymous": false,
      "inputs": [],
      "name": "ClearRules",
      "type": "event"
    },
    {
      "anonymous": false,
      "inputs": [
        {
          "indexed": true,
          "internalType": "contract IRule",
          "name": "rule",
          "type": "address"
        }
      ],
      "name": "RemoveRule",
      "type": "event"
    },
    {
      "anonymous": false,
      "inputs": [
        {
          "indexed": true,
          "internalType": "bytes32",
          "name": "role",
          "type": "bytes32"
        },
        {
          "indexed": true,
          "internalType": "bytes32",
          "name": "previousAdminRole",
          "type": "bytes32"
        },
        {
          "indexed": true,
          "internalType": "bytes32",
          "name": "newAdminRole",
          "type": "bytes32"
        }
      ],
      "name": "RoleAdminChanged",
      "type": "event"
    },
    {
      "anonymous": false,
      "inputs": [
        {
          "indexed": true,
          "internalType": "bytes32",
          "name": "role",
          "type": "bytes32"
        },
        {
          "indexed": true,
          "internalType": "address",
          "name": "account",
          "type": "address"
        },
        {
          "indexed": true,
          "internalType": "address",
          "name": "sender",
          "type": "address"
        }
      ],
      "name": "RoleGranted",
      "type": "event"
    },
    {
      "anonymous": false,
      "inputs": [
        {
          "indexed": true,
          "internalType": "bytes32",
          "name": "role",
          "type": "bytes32"
        },
        {
          "indexed": true,
          "internalType": "address",
          "name": "account",
          "type": "address"
        },
        {
          "indexed": true,
          "internalType": "address",
          "name": "sender",
          "type": "address"
        }
      ],
      "name": "RoleRevoked",
      "type": "event"
    },
    {
      "anonymous": false,
      "inputs": [
        {
          "indexed": false,
          "internalType": "address",
          "name": "token",
          "type": "address"
        }
      ],
      "name": "TokenBound",
      "type": "event"
    },
    {
      "anonymous": false,
      "inputs": [
        {
          "indexed": false,
          "internalType": "address",
          "name": "token",
          "type": "address"
        }
      ],
      "name": "TokenUnbound",
      "type": "event"
    },
    {
      "inputs": [],
      "name": "COMPLIANCE_MANAGER_ROLE",
      "outputs": [
        {
          "internalType": "bytes32",
          "name": "",
          "type": "bytes32"
        }
      ],
      "stateMutability": "view",
      "type": "function"
    },
    {
      "inputs": [],
      "name": "DEFAULT_ADMIN_ROLE",
      "outputs": [
        {
          "internalType": "bytes32",
          "name": "",
          "type": "bytes32"
        }
      ],
      "stateMutability": "view",
      "type": "function"
    },
    {
      "inputs": [],
      "name": "RULES_MANAGEMENT_ROLE",
      "outputs": [
        {
          "internalType": "bytes32",
          "name": "",
          "type": "bytes32"
        }
      ],
      "stateMutability": "view",
      "type": "function"
    },
    {
      "inputs": [
        {
          "internalType": "contract IRule",
          "name": "rule_",
          "type": "address"
        }
      ],
      "name": "addRule",
      "outputs": [],
      "stateMutability": "nonpayable",
      "type": "function"
    },
    {
      "inputs": [
        {
          "internalType": "address",
          "name": "token",
          "type": "address"
        }
      ],
      "name": "bindToken",
      "outputs": [],
      "stateMutability": "nonpayable",
      "type": "function"
    },
    {
      "inputs": [
        {
          "internalType": "address",
          "name": "from",
          "type": "address"
        },
        {
          "internalType": "address",
          "name": "to",
          "type": "address"
        },
        {
          "internalType": "uint256",
          "name": "value",
          "type": "uint256"
        }
      ],
      "name": "canTransfer",
      "outputs": [
        {
          "internalType": "bool",
          "name": "",
          "type": "bool"
        }
      ],
      "stateMutability": "view",
      "type": "function"
    },
    {
      "inputs": [
        {
          "internalType": "address",
          "name": "spender",
          "type": "address"
        },
        {
          "internalType": "address",
          "name": "from",
          "type": "address"
        },
        {
          "internalType": "address",
          "name": "to",
          "type": "address"
        },
        {
          "internalType": "uint256",
          "name": "value",
          "type": "uint256"
        }
      ],
      "name": "canTransferFrom",
      "outputs": [
        {
          "internalType": "bool",
          "name": "",
          "type": "bool"
        }
      ],
      "stateMutability": "view",
      "type": "function"
    },
    {
      "inputs": [],
      "name": "clearRules",
      "outputs": [],
      "stateMutability": "nonpayable",
      "type": "function"
    },
    {
      "inputs": [
        {
          "internalType": "contract IRule",
          "name": "rule_",
          "type": "address"
        }
      ],
      "name": "containsRule",
      "outputs": [
        {
          "internalType": "bool",
          "name": "",
          "type": "bool"
        }
      ],
      "stateMutability": "view",
      "type": "function"
    },
    {
      "inputs": [
        {
          "internalType": "address",
          "name": "to",
          "type": "address"
        },
        {
          "internalType": "uint256",
          "name": "value",
          "type": "uint256"
        }
      ],
      "name": "created",
      "outputs": [],
      "stateMutability": "nonpayable",
      "type": "function"
    },
    {
      "inputs": [
        {
          "internalType": "address",
          "name": "from",
          "type": "address"
        },
        {
          "internalType": "uint256",
          "name": "value",
          "type": "uint256"
        }
      ],
      "name": "destroyed",
      "outputs": [],
      "stateMutability": "nonpayable",
      "type": "function"
    },
    {
      "inputs": [
        {
          "internalType": "address",
          "name": "from",
          "type": "address"
        },
        {
          "internalType": "address",
          "name": "to",
          "type": "address"
        },
        {
          "internalType": "uint256",
          "name": "value",
          "type": "uint256"
        }
      ],
      "name": "detectTransferRestriction",
      "outputs": [
        {
          "internalType": "uint8",
          "name": "",
          "type": "uint8"
        }
      ],
      "stateMutability": "view",
      "type": "function"
    },
    {
      "inputs": [
        {
          "internalType": "address",
          "name": "spender",
          "type": "address"
        },
        {
          "internalType": "address",
          "name": "from",
          "type": "address"
        },
        {
          "internalType": "address",
          "name": "to",
          "type": "address"
        },
        {
          "internalType": "uint256",
          "name": "value",
          "type": "uint256"
        }
      ],
      "name": "detectTransferRestrictionFrom",
      "outputs": [
        {
          "internalType": "uint8",
          "name": "",
          "type": "uint8"
        }
      ],
      "stateMutability": "view",
      "type": "function"
    },
    {
      "inputs": [
        {
          "internalType": "bytes32",
          "name": "role",
          "type": "bytes32"
        }
      ],
      "name": "getRoleAdmin",
      "outputs": [
        {
          "internalType": "bytes32",
          "name": "",
          "type": "bytes32"
        }
      ],
      "stateMutability": "view",
      "type": "function"
    },
    {
      "inputs": [],
      "name": "getTokenBound",
      "outputs": [
        {
          "internalType": "address",
          "name": "",
          "type": "address"
        }
      ],
      "stateMutability": "view",
      "type": "function"
    },
    {
      "inputs": [],
      "name": "getTokenBounds",
      "outputs": [
        {
          "internalType": "address[]",
          "name": "",
          "type": "address[]"
        }
      ],
      "stateMutability": "view",
      "type": "function"
    },
    {
      "inputs": [
        {
          "internalType": "bytes32",
          "name": "role",
          "type": "bytes32"
        },
        {
          "internalType": "address",
          "name": "account",
          "type": "address"
        }
      ],
      "name": "grantRole",
      "outputs": [],
      "stateMutability": "nonpayable",
      "type": "function"
    },
    {
      "inputs": [
        {
          "internalType": "bytes32",
          "name": "role",
          "type": "bytes32"
        },
        {
          "internalType": "address",
          "name": "account",
          "type": "address"
        }
      ],
      "name": "hasRole",
      "outputs": [
        {
          "internalType": "bool",
          "name": "",
          "type": "bool"
        }
      ],
      "stateMutability": "view",
      "type": "function"
    },
    {
      "inputs": [
        {
          "internalType": "address",
          "name": "token",
          "type": "address"
        }
      ],
      "name": "isTokenBound",
      "outputs": [
        {
          "internalType": "bool",
          "name": "",
          "type": "bool"
        }
      ],
      "stateMutability": "view",
      "type": "function"
    },
    {
      "inputs": [
        {
          "internalType": "address",
          "name": "forwarder",
          "type": "address"
        }
      ],
      "name": "isTrustedForwarder",
      "outputs": [
        {
          "internalType": "bool",
          "name": "",
          "type": "bool"
        }
      ],
      "stateMutability": "view",
      "type": "function"
    },
    {
      "inputs": [
        {
          "internalType": "uint8",
          "name": "restrictionCode",
          "type": "uint8"
        }
      ],
      "name": "messageForTransferRestriction",
      "outputs": [
        {
          "internalType": "string",
          "name": "",
          "type": "string"
        }
      ],
      "stateMutability": "view",
      "type": "function"
    },
    {
      "inputs": [
        {
          "internalType": "contract IRule",
          "name": "rule_",
          "type": "address"
        }
      ],
      "name": "removeRule",
      "outputs": [],
      "stateMutability": "nonpayable",
      "type": "function"
    },
    {
      "inputs": [
        {
          "internalType": "bytes32",
          "name": "role",
          "type": "bytes32"
        },
        {
          "internalType": "address",
          "name": "callerConfirmation",
          "type": "address"
        }
      ],
      "name": "renounceRole",
      "outputs": [],
      "stateMutability": "nonpayable",
      "type": "function"
    },
    {
      "inputs": [
        {
          "internalType": "bytes32",
          "name": "role",
          "type": "bytes32"
        },
        {
          "internalType": "address",
          "name": "account",
          "type": "address"
        }
      ],
      "name": "revokeRole",
      "outputs": [],
      "stateMutability": "nonpayable",
      "type": "function"
    },
    {
      "inputs": [
        {
          "internalType": "uint256",
          "name": "ruleId",
          "type": "uint256"
        }
      ],
      "name": "rule",
      "outputs": [
        {
          "internalType": "address",
          "name": "",
          "type": "address"
        }
      ],
      "stateMutability": "view",
      "type": "function"
    },
    {
      "inputs": [],
      "name": "rules",
      "outputs": [
        {
          "internalType": "address[]",
          "name": "",
          "type": "address[]"
        }
      ],
      "stateMutability": "view",
      "type": "function"
    },
    {
      "inputs": [],
      "name": "rulesCount",
      "outputs": [
        {
          "internalType": "uint256",
          "name": "",
          "type": "uint256"
        }
      ],
      "stateMutability": "view",
      "type": "function"
    },
    {
      "inputs": [
        {
          "internalType": "contract IRule[]",
          "name": "rules_",
          "type": "address[]"
        }
      ],
      "name": "setRules",
      "outputs": [],
      "stateMutability": "nonpayable",
      "type": "function"
    },
    {
      "inputs": [
        {
          "internalType": "bytes4",
          "name": "interfaceId",
          "type": "bytes4"
        }
      ],
      "name": "supportsInterface",
      "outputs": [
        {
          "internalType": "bool",
          "name": "",
          "type": "bool"
        }
      ],
      "stateMutability": "view",
      "type": "function"
    },
    {
      "inputs": [
        {
          "internalType": "address",
          "name": "spender",
          "type": "address"
        },
        {
          "internalType": "address",
          "name": "from",
          "type": "address"
        },
        {
          "internalType": "address",
          "name": "to",
          "type": "address"
        },
        {
          "internalType": "uint256",
          "name": "value",
          "type": "uint256"
        }
      ],
      "name": "transferred",
      "outputs": [],
      "stateMutability": "nonpayable",
      "type": "function"
    },
    {
      "inputs": [
        {
          "internalType": "address",
          "name": "from",
          "type": "address"
        },
        {
          "internalType": "address",
          "name": "to",
          "type": "address"
        },
        {
          "internalType": "uint256",
          "name": "value",
          "type": "uint256"
        }
      ],
      "name": "transferred",
      "outputs": [],
      "stateMutability": "nonpayable",
      "type": "function"
    },
    {
      "inputs": [],
      "name": "trustedForwarder",
      "outputs": [
        {
          "internalType": "address",
          "name": "",
          "type": "address"
        }
      ],
      "stateMutability": "view",
      "type": "function"
    },
    {
      "inputs": [
        {
          "internalType": "address",
          "name": "token",
          "type": "address"
        }
      ],
      "name": "unbindToken",
      "outputs": [],
      "stateMutability": "nonpayable",
      "type": "function"
    },
    {
      "inputs": [],
      "name": "version",
      "outputs": [
        {
          "internalType": "string",
          "name": "version_",
          "type": "string"
        }
      ],
      "stateMutability": "view",
      "type": "function"
    }
  ],
  "bytecode": "0x60a060405234801561000f575f5ffd5b5060405161314938038061314983398181016040528101906100319190610641565b81808073ffffffffffffffffffffffffffffffffffffffff1660808173ffffffffffffffffffffffffffffffffffffffff168152505050505f73ffffffffffffffffffffffffffffffffffffffff168373ffffffffffffffffffffffffffffffffffffffff16036100ce576040517f21c89ccc00000000000000000000000000000000000000000000000000000000815260040160405180910390fd5b5f73ffffffffffffffffffffffffffffffffffffffff168173ffffffffffffffffffffffffffffffffffffffff1614610111576101108161012c60201b60201c565b5b6101235f5f1b8461026060201b60201c565b5050505061079a565b5f73ffffffffffffffffffffffffffffffffffffffff168173ffffffffffffffffffffffffffffffffffffffff1603610191576040517fdc418b8000000000000000000000000000000000000000000000000000000000815260040160405180910390fd5b6101a581600361035560201b90919060201c565b156101dc576040517ff423354700000000000000000000000000000000000000000000000000000000815260040160405180910390fd5b6101f081600361038860201b90919060201c565b610226576040517f369bb9e600000000000000000000000000000000000000000000000000000000815260040160405180910390fd5b7f2de35142b19ed5a07796cf30791959c592018f70b1d2d7c460eef8ffe713692b8160405161025591906106a0565b60405180910390a150565b5f61027183836103bb60201b60201c565b61034b5760015f5f8581526020019081526020015f205f015f8473ffffffffffffffffffffffffffffffffffffffff1673ffffffffffffffffffffffffffffffffffffffff1681526020019081526020015f205f6101000a81548160ff0219169083151502179055506102e86103f560201b60201c565b73ffffffffffffffffffffffffffffffffffffffff168273ffffffffffffffffffffffffffffffffffffffff16847f2f8788117e7eff1d82e926ec794901d17c78024a50270940304540a733656f0d60405160405180910390a46001905061034f565b5f90505b92915050565b5f610380835f018373ffffffffffffffffffffffffffffffffffffffff165f1b61040960201b60201c565b905092915050565b5f6103b3835f018373ffffffffffffffffffffffffffffffffffffffff165f1b61042960201b60201c565b905092915050565b5f6103ce5f5f1b8361049660201b60201c565b156103dc57600190506103ef565b6103ec838361049660201b60201c565b90505b92915050565b5f6104046104f960201b60201c565b905090565b5f5f836001015f8481526020019081526020015f20541415905092915050565b5f61043a838361040960201b60201c565b61048c57825f0182908060018154018082558091505060019003905f5260205f20015f9091909190915055825f0180549050836001015f8481526020019081526020015f208190555060019050610490565b5f90505b92915050565b5f5f5f8481526020019081526020015f205f015f8373ffffffffffffffffffffffffffffffffffffffff1673ffffffffffffffffffffffffffffffffffffffff1681526020019081526020015f205f9054906101000a900460ff16905092915050565b5f5f5f36905090505f61051061057360201b60201c565b905080821015801561052d575061052c3361058760201b60201c565b5b1561055d575f36828403908092610546939291906106c1565b90610551919061073c565b60601c92505050610570565b61056b6105cb60201b60201c565b925050505b90565b5f6105826105d260201b60201c565b905090565b5f6105966105da60201b60201c565b73ffffffffffffffffffffffffffffffffffffffff168273ffffffffffffffffffffffffffffffffffffffff16149050919050565b5f33905090565b5f6014905090565b5f608051905090565b5f5ffd5b5f73ffffffffffffffffffffffffffffffffffffffff82169050919050565b5f610610826105e7565b9050919050565b61062081610606565b811461062a575f5ffd5b50565b5f8151905061063b81610617565b92915050565b5f5f5f60608486031215610658576106576105e3565b5b5f6106658682870161062d565b93505060206106768682870161062d565b92505060406106878682870161062d565b9150509250925092565b61069a81610606565b82525050565b5f6020820190506106b35f830184610691565b92915050565b5f5ffd5b5f5ffd5b5f5f858511156106d4576106d36106b9565b5b838611156106e5576106e46106bd565b5b6001850283019150848603905094509492505050565b5f82905092915050565b5f7fffffffffffffffffffffffffffffffffffffffff00000000000000000000000082169050919050565b5f82821b905092915050565b5f61074783836106fb565b826107528135610705565b925060148210156107925761078d7fffffffffffffffffffffffffffffffffffffffff00000000000000000000000083601403600802610730565b831692505b505092915050565b6080516129976107b25f395f610a4701526129975ff3fe608060405234801561000f575f5ffd5b5060043610610204575f3560e01c80638baf29b411610118578063bc13eacc116100ab578063db18af6c1161007a578063db18af6c146105fa578063df21950f1461062a578063e3c4602c14610646578063e46638e614610662578063e54621d21461069257610204565b8063bc13eacc14610560578063d32c7bb51461057e578063d4ce1415146105ae578063d547741f146105de57610204565b80639b11c115116100e75780639b11c115146104fe578063a217fddf1461051c578063b043572e1461053a578063b27aef3a1461054457610204565b80638baf29b4146104665780638d2ea7721461048257806391d148541461049e578063993e8b95146104ce57610204565b806352f6747a1161019b5780635f8dead31161016a5780635f8dead3146103ae5780636a3edf28146103ca5780637157797f146103e85780637da0a877146104185780637f4ab1dd1461043657610204565b806352f6747a1461031257806354e4b9451461033057806354fd4d5014610360578063572b6c051461037e57610204565b806336568abe116101d757806336568abe146102a25780633e5af4ca146102be5780633ff5aa02146102da57806340db3b50146102f657610204565b806301ffc9a71461020857806303c26bcd14610238578063248a9ca3146102565780632f2ff15d14610286575b5f5ffd5b610222600480360381019061021d9190611ebc565b6106b0565b60405161022f9190611f01565b60405180910390f35b610240610729565b60405161024d9190611f32565b60405180910390f35b610270600480360381019061026b9190611f75565b61074d565b60405161027d9190611f32565b60405180910390f35b6102a0600480360381019061029b9190611ffa565b610769565b005b6102bc60048036038101906102b79190611ffa565b61078b565b005b6102d860048036038101906102d3919061206b565b610806565b005b6102f460048036038101906102ef91906120cf565b610869565b005b610310600480360381019061030b91906120cf565b6108a0565b005b61031a6108d7565b60405161032791906121b1565b60405180910390f35b61034a6004803603810190610345919061220c565b6108e8565b6040516103579190611f01565b60405180910390f35b610368610904565b60405161037591906122a7565b60405180910390f35b610398600480360381019061039391906120cf565b610941565b6040516103a59190611f01565b60405180910390f35b6103c860048036038101906103c391906122c7565b61097f565b005b6103d26109df565b6040516103df9190612314565b60405180910390f35b61040260048036038101906103fd919061206b565b610a13565b60405161040f9190611f01565b60405180910390f35b610420610a44565b60405161042d9190612314565b60405180910390f35b610450600480360381019061044b9190612363565b610a6b565b60405161045d91906122a7565b60405180910390f35b610480600480360381019061047b919061238e565b610be1565b005b61049c600480360381019061049791906122c7565b610c42565b005b6104b860048036038101906104b39190611ffa565b610ca2565b6040516104c59190611f01565b60405180910390f35b6104e860048036038101906104e391906120cf565b610cd0565b6040516104f59190611f01565b60405180910390f35b610506610cec565b6040516105139190611f32565b60405180910390f35b610524610d10565b6040516105319190611f32565b60405180910390f35b610542610d16565b005b61055e6004803603810190610559919061243f565b610d4b565b005b610568610ef7565b6040516105759190612499565b60405180910390f35b6105986004803603810190610593919061206b565b610f07565b6040516105a591906124c1565b60405180910390f35b6105c860048036038101906105c3919061238e565b610feb565b6040516105d591906124c1565b60405180910390f35b6105f860048036038101906105f39190611ffa565b6110cc565b005b610614600480360381019061060f91906124da565b6110ee565b6040516106219190612314565b60405180910390f35b610644600480360381019061063f919061220c565b61110a565b005b610660600480360381019061065b919061220c565b61118b565b005b61067c6004803603810190610677919061238e565b61124f565b6040516106899190611f01565b60405180910390f35b61069a61127e565b6040516106a791906121b1565b60405180910390f35b5f7f7965db0b000000000000000000000000000000000000000000000000000000007bffffffffffffffffffffffffffffffffffffffffffffffffffffffff1916827bffffffffffffffffffffffffffffffffffffffffffffffffffffffff1916148061072257506107218261128f565b5b9050919050565b7fe5c50d0927e06141e032cb9a67e1d7092dc85c0b0825191f7e1cede60002856881565b5f5f5f8381526020019081526020015f20600101549050919050565b6107728261074d565b61077b816112f8565b610785838361130c565b50505050565b6107936113f5565b73ffffffffffffffffffffffffffffffffffffffff168173ffffffffffffffffffffffffffffffffffffffff16146107f7576040517f6697b23200000000000000000000000000000000000000000000000000000000815260040160405180910390fd5b6108018282611403565b505050565b6108216108116113f5565b60036114ec90919063ffffffff16565b610857576040517fe39b3c8f00000000000000000000000000000000000000000000000000000000815260040160405180910390fd5b61086384848484611519565b50505050565b7fe5c50d0927e06141e032cb9a67e1d7092dc85c0b0825191f7e1cede600028568610893816112f8565b61089c826115c5565b5050565b7fe5c50d0927e06141e032cb9a67e1d7092dc85c0b0825191f7e1cede6000285686108ca816112f8565b6108d3826116f9565b5050565b60606108e360016117c7565b905090565b5f6108fd8260016114ec90919063ffffffff16565b9050919050565b60606040518060400160405280600581526020017f332e302e30000000000000000000000000000000000000000000000000000000815250905090565b5f61094a610a44565b73ffffffffffffffffffffffffffffffffffffffff168273ffffffffffffffffffffffffffffffffffffffff16149050919050565b61099a61098a6113f5565b60036114ec90919063ffffffff16565b6109d0576040517fe39b3c8f00000000000000000000000000000000000000000000000000000000815260040160405180910390fd5b6109db5f83836117e6565b5050565b5f5f6109eb600361188f565b1115610a0c57610a055f60036118a290919063ffffffff16565b9050610a10565b5f90505b90565b5f5f6006811115610a2757610a26612505565b5b60ff16610a3686868686610f07565b60ff16149050949350505050565b5f7f0000000000000000000000000000000000000000000000000000000000000000905090565b60605f610a76610ef7565b90505f5f90505b81811015610ba157610a8e816110ee565b73ffffffffffffffffffffffffffffffffffffffff16637d045df6856040518263ffffffff1660e01b8152600401610ac691906124c1565b602060405180830381865afa158015610ae1573d5f5f3e3d5ffd5b505050506040513d601f19601f82011682018060405250810190610b05919061255c565b15610b9657610b13816110ee565b73ffffffffffffffffffffffffffffffffffffffff16637f4ab1dd856040518263ffffffff1660e01b8152600401610b4b91906124c1565b5f60405180830381865afa158015610b65573d5f5f3e3d5ffd5b505050506040513d5f823e3d601f19601f82011682018060405250810190610b8d91906126a1565b92505050610bdc565b806001019050610a7d565b506040518060400160405280601881526020017f556e6b6e6f776e207265737472696374696f6e20636f646500000000000000008152509150505b919050565b610bfc610bec6113f5565b60036114ec90919063ffffffff16565b610c32576040517fe39b3c8f00000000000000000000000000000000000000000000000000000000815260040160405180910390fd5b610c3d8383836117e6565b505050565b610c5d610c4d6113f5565b60036114ec90919063ffffffff16565b610c93576040517fe39b3c8f00000000000000000000000000000000000000000000000000000000815260040160405180910390fd5b610c9e825f836117e6565b5050565b5f610caf5f5f1b836118b9565b15610cbd5760019050610cca565b610cc783836118b9565b90505b92915050565b5f610ce58260036114ec90919063ffffffff16565b9050919050565b7fea5f4eb72290e50c32abd6c23e45de3d8300b3286e1cbc2e293114b92e034e5e81565b5f5f1b81565b7fea5f4eb72290e50c32abd6c23e45de3d8300b3286e1cbc2e293114b92e034e5e610d40816112f8565b610d4861191c565b50565b7fea5f4eb72290e50c32abd6c23e45de3d8300b3286e1cbc2e293114b92e034e5e610d75816112f8565b5f8383905003610db1576040517f59203cb900000000000000000000000000000000000000000000000000000000815260040160405180910390fd5b5f610dbc600161188f565b1115610dcb57610dca61191c565b5b5f5f90505b83839050811015610ef157610e0b848483818110610df157610df06126e8565b5b9050602002016020810190610e06919061220c565b611954565b610e46848483818110610e2157610e206126e8565b5b9050602002016020810190610e36919061220c565b6001611a0790919063ffffffff16565b610e7c576040517ff280d16100000000000000000000000000000000000000000000000000000000815260040160405180910390fd5b838382818110610e8f57610e8e6126e8565b5b9050602002016020810190610ea4919061220c565b73ffffffffffffffffffffffffffffffffffffffff167f60305ce6c9104acd0969d358f926bf391174340660aaf5e6215261fd6847bf4660405160405180910390a2806001019050610dd0565b50505050565b5f610f02600161188f565b905090565b5f5f610f11610ef7565b90505f5f90505b81811015610fcb575f610f2a826110ee565b73ffffffffffffffffffffffffffffffffffffffff1663d32c7bb5898989896040518563ffffffff1660e01b8152600401610f689493929190612715565b602060405180830381865afa158015610f83573d5f5f3e3d5ffd5b505050506040513d601f19601f82011682018060405250810190610fa7919061276c565b90505f8160ff161115610fbf57809350505050610fe3565b50806001019050610f18565b505f6006811115610fdf57610fde612505565b5b9150505b949350505050565b5f5f610ff5610ef7565b90505f5f90505b818110156110ad575f61100e826110ee565b73ffffffffffffffffffffffffffffffffffffffff1663d4ce14158888886040518463ffffffff1660e01b815260040161104a93929190612797565b602060405180830381865afa158015611065573d5f5f3e3d5ffd5b505050506040513d601f19601f82011682018060405250810190611089919061276c565b90505f8160ff1611156110a1578093505050506110c5565b50806001019050610ffc565b505f60068111156110c1576110c0612505565b5b9150505b9392505050565b6110d58261074d565b6110de816112f8565b6110e88383611403565b50505050565b5f6111038260016118a290919063ffffffff16565b9050919050565b7fea5f4eb72290e50c32abd6c23e45de3d8300b3286e1cbc2e293114b92e034e5e611134816112f8565b6111488260016114ec90919063ffffffff16565b61117e576040517fb370e90400000000000000000000000000000000000000000000000000000000815260040160405180910390fd5b61118782611a34565b5050565b7fea5f4eb72290e50c32abd6c23e45de3d8300b3286e1cbc2e293114b92e034e5e6111b5816112f8565b6111be82611954565b6111d2826001611a0790919063ffffffff16565b611208576040517ff280d16100000000000000000000000000000000000000000000000000000000815260040160405180910390fd5b8173ffffffffffffffffffffffffffffffffffffffff167f60305ce6c9104acd0969d358f926bf391174340660aaf5e6215261fd6847bf4660405160405180910390a25050565b5f5f600681111561126357611262612505565b5b60ff16611271858585610feb565b60ff161490509392505050565b606061128a60036117c7565b905090565b5f7f01ffc9a7000000000000000000000000000000000000000000000000000000007bffffffffffffffffffffffffffffffffffffffffffffffffffffffff1916827bffffffffffffffffffffffffffffffffffffffffffffffffffffffff1916149050919050565b611309816113046113f5565b611ac4565b50565b5f6113178383610ca2565b6113eb5760015f5f8581526020019081526020015f205f015f8473ffffffffffffffffffffffffffffffffffffffff1673ffffffffffffffffffffffffffffffffffffffff1681526020019081526020015f205f6101000a81548160ff0219169083151502179055506113886113f5565b73ffffffffffffffffffffffffffffffffffffffff168273ffffffffffffffffffffffffffffffffffffffff16847f2f8788117e7eff1d82e926ec794901d17c78024a50270940304540a733656f0d60405160405180910390a4600190506113ef565b5f90505b92915050565b5f6113fe611b15565b905090565b5f61140e8383610ca2565b156114e2575f5f5f8581526020019081526020015f205f015f8473ffffffffffffffffffffffffffffffffffffffff1673ffffffffffffffffffffffffffffffffffffffff1681526020019081526020015f205f6101000a81548160ff02191690831515021790555061147f6113f5565b73ffffffffffffffffffffffffffffffffffffffff168273ffffffffffffffffffffffffffffffffffffffff16847ff6391f5c32d9c69d2a47ea670b442974b53935d1edc7fd64eb21e047a839171b60405160405180910390a4600190506114e6565b5f90505b92915050565b5f611511835f018373ffffffffffffffffffffffffffffffffffffffff165f1b611b7d565b905092915050565b5f611524600161188f565b90505f5f90505b818110156115bd576115478160016118a290919063ffffffff16565b73ffffffffffffffffffffffffffffffffffffffff16633e5af4ca878787876040518563ffffffff1660e01b81526004016115859493929190612715565b5f604051808303815f87803b15801561159c575f5ffd5b505af11580156115ae573d5f5f3e3d5ffd5b5050505080600101905061152b565b505050505050565b5f73ffffffffffffffffffffffffffffffffffffffff168173ffffffffffffffffffffffffffffffffffffffff160361162a576040517fdc418b8000000000000000000000000000000000000000000000000000000000815260040160405180910390fd5b61163e8160036114ec90919063ffffffff16565b15611675576040517ff423354700000000000000000000000000000000000000000000000000000000815260040160405180910390fd5b611689816003611a0790919063ffffffff16565b6116bf576040517f369bb9e600000000000000000000000000000000000000000000000000000000815260040160405180910390fd5b7f2de35142b19ed5a07796cf30791959c592018f70b1d2d7c460eef8ffe713692b816040516116ee9190612314565b60405180910390a150565b61170d8160036114ec90919063ffffffff16565b611743576040517fd456910600000000000000000000000000000000000000000000000000000000815260040160405180910390fd5b611757816003611b9d90919063ffffffff16565b61178d576040517f369bb9e600000000000000000000000000000000000000000000000000000000815260040160405180910390fd5b7f28a4ca7134a3b3f9aff286e79ad3daadb4a06d1b43d037a3a98bdc074edd9b7a816040516117bc9190612314565b60405180910390a150565b60605f6117d5835f01611bca565b905060608190508092505050919050565b5f6117f1600161188f565b90505f5f90505b81811015611888576118148160016118a290919063ffffffff16565b73ffffffffffffffffffffffffffffffffffffffff16638baf29b48686866040518463ffffffff1660e01b815260040161185093929190612797565b5f604051808303815f87803b158015611867575f5ffd5b505af1158015611879573d5f5f3e3d5ffd5b505050508060010190506117f8565b5050505050565b5f61189b825f01611c23565b9050919050565b5f6118af835f0183611c32565b5f1c905092915050565b5f5f5f8481526020019081526020015f205f015f8373ffffffffffffffffffffffffffffffffffffffff1673ffffffffffffffffffffffffffffffffffffffff1681526020019081526020015f205f9054906101000a900460ff16905092915050565b7fdbf61473843cd9be1c9791ce51ef66d0da6c9026d62ba80c1ca433b13fb729b260405160405180910390a16119526001611c59565b565b5f73ffffffffffffffffffffffffffffffffffffffff168173ffffffffffffffffffffffffffffffffffffffff16036119b9576040517ff9d152fb00000000000000000000000000000000000000000000000000000000815260040160405180910390fd5b6119cd8160016114ec90919063ffffffff16565b15611a04576040517fcc790a4b00000000000000000000000000000000000000000000000000000000815260040160405180910390fd5b50565b5f611a2c835f018373ffffffffffffffffffffffffffffffffffffffff165f1b611c67565b905092915050565b611a48816001611b9d90919063ffffffff16565b611a7e576040517ff280d16100000000000000000000000000000000000000000000000000000000815260040160405180910390fd5b8073ffffffffffffffffffffffffffffffffffffffff167f6d83315c9718799346b67584ec64301b1457e989c8e35a8e2982a7776c04bfc460405160405180910390a250565b611ace8282610ca2565b611b115780826040517fe2517d3f000000000000000000000000000000000000000000000000000000008152600401611b089291906127cc565b60405180910390fd5b5050565b5f5f5f36905090505f611b26611cce565b9050808210158015611b3d5750611b3c33610941565b5b15611b6d575f36828403908092611b56939291906127fb565b90611b619190612876565b60601c92505050611b7a565b611b75611cdc565b925050505b90565b5f5f836001015f8481526020019081526020015f20541415905092915050565b5f611bc2835f018373ffffffffffffffffffffffffffffffffffffffff165f1b611ce3565b905092915050565b6060815f01805480602002602001604051908101604052809291908181526020018280548015611c1757602002820191905f5260205f20905b815481526020019060010190808311611c03575b50505050509050919050565b5f815f01805490509050919050565b5f825f018281548110611c4857611c476126e8565b5b905f5260205f200154905092915050565b611c64815f01611ddf565b50565b5f611c728383611b7d565b611cc457825f0182908060018154018082558091505060019003905f5260205f20015f9091909190915055825f0180549050836001015f8481526020019081526020015f208190555060019050611cc8565b5f90505b92915050565b5f611cd7611e47565b905090565b5f33905090565b5f5f836001015f8481526020019081526020015f205490505f8114611dd4575f600182611d109190612901565b90505f6001865f0180549050611d269190612901565b9050808214611d8c575f865f018281548110611d4557611d446126e8565b5b905f5260205f200154905080875f018481548110611d6657611d656126e8565b5b905f5260205f20018190555083876001015f8381526020019081526020015f2081905550505b855f01805480611d9f57611d9e612934565b5b600190038181905f5260205f20015f90559055856001015f8681526020019081526020015f205f905560019350505050611dd9565b5f9150505b92915050565b5f611de982611c23565b90505f5f90505b81811015611e3657826001015f845f018381548110611e1257611e116126e8565b5b905f5260205f20015481526020019081526020015f205f9055806001019050611df0565b50611e43825f015f611e4f565b5050565b5f6014905090565b8082555050565b5f604051905090565b5f5ffd5b5f5ffd5b5f7fffffffff0000000000000000000000000000000000000000000000000000000082169050919050565b611e9b81611e67565b8114611ea5575f5ffd5b50565b5f81359050611eb681611e92565b92915050565b5f60208284031215611ed157611ed0611e5f565b5b5f611ede84828501611ea8565b91505092915050565b5f8115159050919050565b611efb81611ee7565b82525050565b5f602082019050611f145f830184611ef2565b92915050565b5f819050919050565b611f2c81611f1a565b82525050565b5f602082019050611f455f830184611f23565b92915050565b611f5481611f1a565b8114611f5e575f5ffd5b50565b5f81359050611f6f81611f4b565b92915050565b5f60208284031215611f8a57611f89611e5f565b5b5f611f9784828501611f61565b91505092915050565b5f73ffffffffffffffffffffffffffffffffffffffff82169050919050565b5f611fc982611fa0565b9050919050565b611fd981611fbf565b8114611fe3575f5ffd5b50565b5f81359050611ff481611fd0565b92915050565b5f5f604083850312156120105761200f611e5f565b5b5f61201d85828601611f61565b925050602061202e85828601611fe6565b9150509250929050565b5f819050919050565b61204a81612038565b8114612054575f5ffd5b50565b5f8135905061206581612041565b92915050565b5f5f5f5f6080858703121561208357612082611e5f565b5b5f61209087828801611fe6565b94505060206120a187828801611fe6565b93505060406120b287828801611fe6565b92505060606120c387828801612057565b91505092959194509250565b5f602082840312156120e4576120e3611e5f565b5b5f6120f184828501611fe6565b91505092915050565b5f81519050919050565b5f82825260208201905092915050565b5f819050602082019050919050565b61212c81611fbf565b82525050565b5f61213d8383612123565b60208301905092915050565b5f602082019050919050565b5f61215f826120fa565b6121698185612104565b935061217483612114565b805f5b838110156121a457815161218b8882612132565b975061219683612149565b925050600181019050612177565b5085935050505092915050565b5f6020820190508181035f8301526121c98184612155565b905092915050565b5f6121db82611fbf565b9050919050565b6121eb816121d1565b81146121f5575f5ffd5b50565b5f81359050612206816121e2565b92915050565b5f6020828403121561222157612220611e5f565b5b5f61222e848285016121f8565b91505092915050565b5f81519050919050565b5f82825260208201905092915050565b8281835e5f83830152505050565b5f601f19601f8301169050919050565b5f61227982612237565b6122838185612241565b9350612293818560208601612251565b61229c8161225f565b840191505092915050565b5f6020820190508181035f8301526122bf818461226f565b905092915050565b5f5f604083850312156122dd576122dc611e5f565b5b5f6122ea85828601611fe6565b92505060206122fb85828601612057565b9150509250929050565b61230e81611fbf565b82525050565b5f6020820190506123275f830184612305565b92915050565b5f60ff82169050919050565b6123428161232d565b811461234c575f5ffd5b50565b5f8135905061235d81612339565b92915050565b5f6020828403121561237857612377611e5f565b5b5f6123858482850161234f565b91505092915050565b5f5f5f606084860312156123a5576123a4611e5f565b5b5f6123b286828701611fe6565b93505060206123c386828701611fe6565b92505060406123d486828701612057565b9150509250925092565b5f5ffd5b5f5ffd5b5f5ffd5b5f5f83601f8401126123ff576123fe6123de565b5b8235905067ffffffffffffffff81111561241c5761241b6123e2565b5b602083019150836020820283011115612438576124376123e6565b5b9250929050565b5f5f6020838503121561245557612454611e5f565b5b5f83013567ffffffffffffffff81111561247257612471611e63565b5b61247e858286016123ea565b92509250509250929050565b61249381612038565b82525050565b5f6020820190506124ac5f83018461248a565b92915050565b6124bb8161232d565b82525050565b5f6020820190506124d45f8301846124b2565b92915050565b5f602082840312156124ef576124ee611e5f565b5b5f6124fc84828501612057565b91505092915050565b7f4e487b71000000000000000000000000000000000000000000000000000000005f52602160045260245ffd5b61253b81611ee7565b8114612545575f5ffd5b50565b5f8151905061255681612532565b92915050565b5f6020828403121561257157612570611e5f565b5b5f61257e84828501612548565b91505092915050565b5f5ffd5b7f4e487b71000000000000000000000000000000000000000000000000000000005f52604160045260245ffd5b6125c18261225f565b810181811067ffffffffffffffff821117156125e0576125df61258b565b5b80604052505050565b5f6125f2611e56565b90506125fe82826125b8565b919050565b5f67ffffffffffffffff82111561261d5761261c61258b565b5b6126268261225f565b9050602081019050919050565b5f61264561264084612603565b6125e9565b90508281526020810184848401111561266157612660612587565b5b61266c848285612251565b509392505050565b5f82601f830112612688576126876123de565b5b8151612698848260208601612633565b91505092915050565b5f602082840312156126b6576126b5611e5f565b5b5f82015167ffffffffffffffff8111156126d3576126d2611e63565b5b6126df84828501612674565b91505092915050565b7f4e487b71000000000000000000000000000000000000000000000000000000005f52603260045260245ffd5b5f6080820190506127285f830187612305565b6127356020830186612305565b6127426040830185612305565b61274f606083018461248a565b95945050505050565b5f8151905061276681612339565b92915050565b5f6020828403121561278157612780611e5f565b5b5f61278e84828501612758565b91505092915050565b5f6060820190506127aa5f830186612305565b6127b76020830185612305565b6127c4604083018461248a565b949350505050565b5f6040820190506127df5f830185612305565b6127ec6020830184611f23565b9392505050565b5f5ffd5b5f5ffd5b5f5f8585111561280e5761280d6127f3565b5b8386111561281f5761281e6127f7565b5b6001850283019150848603905094509492505050565b5f82905092915050565b5f7fffffffffffffffffffffffffffffffffffffffff00000000000000000000000082169050919050565b5f82821b905092915050565b5f6128818383612835565b8261288c813561283f565b925060148210156128cc576128c77fffffffffffffffffffffffffffffffffffffffff0000000000000000000000008360140360080261286a565b831692505b505092915050565b7f4e487b71000000000000000000000000000000000000000000000000000000005f52601160045260245ffd5b5f61290b82612038565b915061291683612038565b925082820390508181111561292e5761292d6128d4565b5b92915050565b7f4e487b71000000000000000000000000000000000000000000000000000000005f52603160045260245ffdfea2646970667358221220e0094026c1397003920d08e899aa02c502b551f90670a3dc20116960ba068d3064736f6c634300081e0033",
  "linkReferences": {},
  "deployedLinkReferences": {}
}