{
  "_format": "hh-sol-artifact-1",
  "contractName": "RuleConditionalTransferLight",
  "sourceName": "src/mocks/rules/operation/RuleConditionalTransferLight.sol",
  "abi": [
    {
      "inputs": [
        {
          "internalType": "address",
          "name": "admin",
          "type": "address"
        },
        {
          "internalType": "contract IRuleEngine",
          "name": "ruleEngineContract",
          "type": "address"
        }
      ],
      "stateMutability": "nonpayable",
      "type": "constructor"
    },
    {
      "inputs": [],
      "name": "AccessControlBadConfirmation",
      "type": "error"
    },
    {
      "inputs": [
        {
          "internalType": "address",
          "name": "account",
          "type": "address"
        },
        {
          "internalType": "bytes32",
          "name": "neededRole",
          "type": "bytes32"
        }
      ],
      "name": "AccessControlUnauthorizedAccount",
      "type": "error"
    },
    {
      "inputs": [],
      "name": "TransferNotApproved",
      "type": "error"
    },
    {
      "anonymous": false,
      "inputs": [
        {
          "indexed": true,
          "internalType": "bytes32",
          "name": "role",
          "type": "bytes32"
        },
        {
          "indexed": true,
          "internalType": "bytes32",
          "name": "previousAdminRole",
          "type": "bytes32"
        },
        {
          "indexed": true,
          "internalType": "bytes32",
          "name": "newAdminRole",
          "type": "bytes32"
        }
      ],
      "name": "RoleAdminChanged",
      "type": "event"
    },
    {
      "anonymous": false,
      "inputs": [
        {
          "indexed": true,
          "internalType": "bytes32",
          "name": "role",
          "type": "bytes32"
        },
        {
          "indexed": true,
          "internalType": "address",
          "name": "account",
          "type": "address"
        },
        {
          "indexed": true,
          "internalType": "address",
          "name": "sender",
          "type": "address"
        }
      ],
      "name": "RoleGranted",
      "type": "event"
    },
    {
      "anonymous": false,
      "inputs": [
        {
          "indexed": true,
          "internalType": "bytes32",
          "name": "role",
          "type": "bytes32"
        },
        {
          "indexed": true,
          "internalType": "address",
          "name": "account",
          "type": "address"
        },
        {
          "indexed": true,
          "internalType": "address",
          "name": "sender",
          "type": "address"
        }
      ],
      "name": "RoleRevoked",
      "type": "event"
    },
    {
      "anonymous": false,
      "inputs": [
        {
          "indexed": true,
          "internalType": "address",
          "name": "from",
          "type": "address"
        },
        {
          "indexed": true,
          "internalType": "address",
          "name": "to",
          "type": "address"
        },
        {
          "indexed": false,
          "internalType": "uint256",
          "name": "value",
          "type": "uint256"
        },
        {
          "indexed": false,
          "internalType": "uint256",
          "name": "count",
          "type": "uint256"
        }
      ],
      "name": "TransferApproved",
      "type": "event"
    },
    {
      "anonymous": false,
      "inputs": [
        {
          "indexed": true,
          "internalType": "address",
          "name": "from",
          "type": "address"
        },
        {
          "indexed": true,
          "internalType": "address",
          "name": "to",
          "type": "address"
        },
        {
          "indexed": false,
          "internalType": "uint256",
          "name": "value",
          "type": "uint256"
        },
        {
          "indexed": false,
          "internalType": "uint256",
          "name": "remaining",
          "type": "uint256"
        }
      ],
      "name": "TransferExecuted",
      "type": "event"
    },
    {
      "inputs": [],
      "name": "CODE_TRANSFER_REQUEST_NOT_APPROVED",
      "outputs": [
        {
          "internalType": "uint8",
          "name": "",
          "type": "uint8"
        }
      ],
      "stateMutability": "view",
      "type": "function"
    },
    {
      "inputs": [],
      "name": "DEFAULT_ADMIN_ROLE",
      "outputs": [
        {
          "internalType": "bytes32",
          "name": "",
          "type": "bytes32"
        }
      ],
      "stateMutability": "view",
      "type": "function"
    },
    {
      "inputs": [],
      "name": "OPERATOR_ROLE",
      "outputs": [
        {
          "internalType": "bytes32",
          "name": "",
          "type": "bytes32"
        }
      ],
      "stateMutability": "view",
      "type": "function"
    },
    {
      "inputs": [],
      "name": "RULE_ENGINE_CONTRACT_ROLE",
      "outputs": [
        {
          "internalType": "bytes32",
          "name": "",
          "type": "bytes32"
        }
      ],
      "stateMutability": "view",
      "type": "function"
    },
    {
      "inputs": [
        {
          "internalType": "bytes32",
          "name": "",
          "type": "bytes32"
        }
      ],
      "name": "approvalCounts",
      "outputs": [
        {
          "internalType": "uint256",
          "name": "",
          "type": "uint256"
        }
      ],
      "stateMutability": "view",
      "type": "function"
    },
    {
      "inputs": [
        {
          "internalType": "address",
          "name": "from",
          "type": "address"
        },
        {
          "internalType": "address",
          "name": "to",
          "type": "address"
        },
        {
          "internalType": "uint256",
          "name": "value",
          "type": "uint256"
        }
      ],
      "name": "approveTransfer",
      "outputs": [],
      "stateMutability": "nonpayable",
      "type": "function"
    },
    {
      "inputs": [
        {
          "internalType": "address",
          "name": "from",
          "type": "address"
        },
        {
          "internalType": "address",
          "name": "to",
          "type": "address"
        },
        {
          "internalType": "uint256",
          "name": "value",
          "type": "uint256"
        }
      ],
      "name": "approvedCount",
      "outputs": [
        {
          "internalType": "uint256",
          "name": "",
          "type": "uint256"
        }
      ],
      "stateMutability": "view",
      "type": "function"
    },
    {
      "inputs": [
        {
          "internalType": "uint8",
          "name": "restrictionCode",
          "type": "uint8"
        }
      ],
      "name": "canReturnTransferRestrictionCode",
      "outputs": [
        {
          "internalType": "bool",
          "name": "",
          "type": "bool"
        }
      ],
      "stateMutability": "pure",
      "type": "function"
    },
    {
      "inputs": [
        {
          "internalType": "address",
          "name": "_from",
          "type": "address"
        },
        {
          "internalType": "address",
          "name": "_to",
          "type": "address"
        },
        {
          "internalType": "uint256",
          "name": "_amount",
          "type": "uint256"
        }
      ],
      "name": "canTransfer",
      "outputs": [
        {
          "internalType": "bool",
          "name": "isValid",
          "type": "bool"
        }
      ],
      "stateMutability": "view",
      "type": "function"
    },
    {
      "inputs": [
        {
          "internalType": "address",
          "name": "spender",
          "type": "address"
        },
        {
          "internalType": "address",
          "name": "from",
          "type": "address"
        },
        {
          "internalType": "address",
          "name": "to",
          "type": "address"
        },
        {
          "internalType": "uint256",
          "name": "value",
          "type": "uint256"
        }
      ],
      "name": "canTransferFrom",
      "outputs": [
        {
          "internalType": "bool",
          "name": "",
          "type": "bool"
        }
      ],
      "stateMutability": "view",
      "type": "function"
    },
    {
      "inputs": [
        {
          "internalType": "address",
          "name": "from",
          "type": "address"
        },
        {
          "internalType": "address",
          "name": "to",
          "type": "address"
        },
        {
          "internalType": "uint256",
          "name": "value",
          "type": "uint256"
        }
      ],
      "name": "detectTransferRestriction",
      "outputs": [
        {
          "internalType": "uint8",
          "name": "",
          "type": "uint8"
        }
      ],
      "stateMutability": "view",
      "type": "function"
    },
    {
      "inputs": [
        {
          "internalType": "address",
          "name": "",
          "type": "address"
        },
        {
          "internalType": "address",
          "name": "from",
          "type": "address"
        },
        {
          "internalType": "address",
          "name": "to",
          "type": "address"
        },
        {
          "internalType": "uint256",
          "name": "value",
          "type": "uint256"
        }
      ],
      "name": "detectTransferRestrictionFrom",
      "outputs": [
        {
          "internalType": "uint8",
          "name": "",
          "type": "uint8"
        }
      ],
      "stateMutability": "view",
      "type": "function"
    },
    {
      "inputs": [
        {
          "internalType": "bytes32",
          "name": "role",
          "type": "bytes32"
        }
      ],
      "name": "getRoleAdmin",
      "outputs": [
        {
          "internalType": "bytes32",
          "name": "",
          "type": "bytes32"
        }
      ],
      "stateMutability": "view",
      "type": "function"
    },
    {
      "inputs": [
        {
          "internalType": "bytes32",
          "name": "role",
          "type": "bytes32"
        },
        {
          "internalType": "address",
          "name": "account",
          "type": "address"
        }
      ],
      "name": "grantRole",
      "outputs": [],
      "stateMutability": "nonpayable",
      "type": "function"
    },
    {
      "inputs": [
        {
          "internalType": "bytes32",
          "name": "role",
          "type": "bytes32"
        },
        {
          "internalType": "address",
          "name": "account",
          "type": "address"
        }
      ],
      "name": "hasRole",
      "outputs": [
        {
          "internalType": "bool",
          "name": "",
          "type": "bool"
        }
      ],
      "stateMutability": "view",
      "type": "function"
    },
    {
      "inputs": [
        {
          "internalType": "uint8",
          "name": "restrictionCode",
          "type": "uint8"
        }
      ],
      "name": "messageForTransferRestriction",
      "outputs": [
        {
          "internalType": "string",
          "name": "",
          "type": "string"
        }
      ],
      "stateMutability": "pure",
      "type": "function"
    },
    {
      "inputs": [
        {
          "internalType": "bytes32",
          "name": "role",
          "type": "bytes32"
        },
        {
          "internalType": "address",
          "name": "callerConfirmation",
          "type": "address"
        }
      ],
      "name": "renounceRole",
      "outputs": [],
      "stateMutability": "nonpayable",
      "type": "function"
    },
    {
      "inputs": [
        {
          "internalType": "bytes32",
          "name": "role",
          "type": "bytes32"
        },
        {
          "internalType": "address",
          "name": "account",
          "type": "address"
        }
      ],
      "name": "revokeRole",
      "outputs": [],
      "stateMutability": "nonpayable",
      "type": "function"
    },
    {
      "inputs": [
        {
          "internalType": "bytes4",
          "name": "interfaceId",
          "type": "bytes4"
        }
      ],
      "name": "supportsInterface",
      "outputs": [
        {
          "internalType": "bool",
          "name": "",
          "type": "bool"
        }
      ],
      "stateMutability": "view",
      "type": "function"
    },
    {
      "inputs": [
        {
          "internalType": "address",
          "name": "",
          "type": "address"
        },
        {
          "internalType": "address",
          "name": "from",
          "type": "address"
        },
        {
          "internalType": "address",
          "name": "to",
          "type": "address"
        },
        {
          "internalType": "uint256",
          "name": "value",
          "type": "uint256"
        }
      ],
      "name": "transferred",
      "outputs": [],
      "stateMutability": "nonpayable",
      "type": "function"
    },
    {
      "inputs": [
        {
          "internalType": "address",
          "name": "from",
          "type": "address"
        },
        {
          "internalType": "address",
          "name": "to",
          "type": "address"
        },
        {
          "internalType": "uint256",
          "name": "value",
          "type": "uint256"
        }
      ],
      "name": "transferred",
      "outputs": [],
      "stateMutability": "nonpayable",
      "type": "function"
    }
  ],
  "bytecode": "0x608060405234801561000f575f5ffd5b5060405161174138038061174183398181016040528101906100319190610347565b5f73ffffffffffffffffffffffffffffffffffffffff168273ffffffffffffffffffffffffffffffffffffffff160361009f576040517f08c379a0000000000000000000000000000000000000000000000000000000008152600401610096906103df565b60405180910390fd5b6100b15f5f1b3361014f60201b60201c565b506100e27f97667070c54ef182b0f5858b034beac1b6f3089aa2d3188bb1e8929f4fa9b9298361014f60201b60201c565b505f73ffffffffffffffffffffffffffffffffffffffff168173ffffffffffffffffffffffffffffffffffffffff1614610148576101467f5007339590b47d4786f4ab2ef7ffa0ec54bc5fe7244dd97bc6efa6ab3799807b8261014f60201b60201c565b505b50506103fd565b5f610160838361024460201b60201c565b61023a5760015f5f8581526020019081526020015f205f015f8473ffffffffffffffffffffffffffffffffffffffff1673ffffffffffffffffffffffffffffffffffffffff1681526020019081526020015f205f6101000a81548160ff0219169083151502179055506101d76102a760201b60201c565b73ffffffffffffffffffffffffffffffffffffffff168273ffffffffffffffffffffffffffffffffffffffff16847f2f8788117e7eff1d82e926ec794901d17c78024a50270940304540a733656f0d60405160405180910390a46001905061023e565b5f90505b92915050565b5f5f5f8481526020019081526020015f205f015f8373ffffffffffffffffffffffffffffffffffffffff1673ffffffffffffffffffffffffffffffffffffffff1681526020019081526020015f205f9054906101000a900460ff16905092915050565b5f33905090565b5f5ffd5b5f73ffffffffffffffffffffffffffffffffffffffff82169050919050565b5f6102db826102b2565b9050919050565b6102eb816102d1565b81146102f5575f5ffd5b50565b5f81519050610306816102e2565b92915050565b5f610316826102d1565b9050919050565b6103268161030c565b8114610330575f5ffd5b50565b5f815190506103418161031d565b92915050565b5f5f6040838503121561035d5761035c6102ae565b5b5f61036a858286016102f8565b925050602061037b85828601610333565b9150509250929050565b5f82825260208201905092915050565b7f496e76616c6964206f70657261746f72000000000000000000000000000000005f82015250565b5f6103c9601083610385565b91506103d482610395565b602082019050919050565b5f6020820190508181035f8301526103f6816103bd565b9050919050565b6113378061040a5f395ff3fe608060405234801561000f575f5ffd5b5060043610610135575f3560e01c80638abed32b116100b6578063d4ce14151161007a578063d4ce141514610393578063d547741f146103c3578063dfdc49b9146103df578063e46638e6146103fd578063f02322f01461042d578063f5b541a61461044b57610135565b80638abed32b146102c95780638baf29b4146102f957806391d1485414610315578063a217fddf14610345578063d32c7bb51461036357610135565b80633e5af4ca116100fd5780633e5af4ca146102015780637157797f1461021d5780637d045df61461024d5780637f4ab1dd1461027d57806382580805146102ad57610135565b806301ffc9a714610139578063248a9ca31461016957806325005a41146101995780632f2ff15d146101c957806336568abe146101e5575b5f5ffd5b610153600480360381019061014e9190610d6a565b610469565b6040516101609190610daf565b60405180910390f35b610183600480360381019061017e9190610dfb565b6104e2565b6040516101909190610e35565b60405180910390f35b6101b360048036038101906101ae9190610edb565b6104fe565b6040516101c09190610f3a565b60405180910390f35b6101e360048036038101906101de9190610f53565b610549565b005b6101ff60048036038101906101fa9190610f53565b61056b565b005b61021b60048036038101906102169190610f91565b6105e6565b005b61023760048036038101906102329190610f91565b6105f7565b6040516102449190610daf565b60405180910390f35b6102676004803603810190610262919061102b565b610628565b6040516102749190610daf565b60405180910390f35b6102976004803603810190610292919061102b565b61063a565b6040516102a491906110c6565b60405180910390f35b6102c760048036038101906102c29190610edb565b6106a8565b005b6102e360048036038101906102de9190610dfb565b6107a6565b6040516102f09190610f3a565b60405180910390f35b610313600480360381019061030e9190610edb565b6107bb565b005b61032f600480360381019061032a9190610f53565b6108d8565b60405161033c9190610daf565b60405180910390f35b61034d61093b565b60405161035a9190610e35565b60405180910390f35b61037d60048036038101906103789190610f91565b610941565b60405161038a91906110f5565b60405180910390f35b6103ad60048036038101906103a89190610edb565b610957565b6040516103ba91906110f5565b60405180910390f35b6103dd60048036038101906103d89190610f53565b6109cc565b005b6103e76109ee565b6040516103f491906110f5565b60405180910390f35b61041760048036038101906104129190610edb565b6109f3565b6040516104249190610daf565b60405180910390f35b610435610a22565b6040516104429190610e35565b60405180910390f35b610453610a46565b6040516104609190610e35565b60405180910390f35b5f7f7965db0b000000000000000000000000000000000000000000000000000000007bffffffffffffffffffffffffffffffffffffffffffffffffffffffff1916827bffffffffffffffffffffffffffffffffffffffffffffffffffffffff191614806104db57506104da82610a6a565b5b9050919050565b5f5f5f8381526020019081526020015f20600101549050919050565b5f5f84848460405160200161051593929190611173565b60405160208183030381529060405280519060200120905060015f8281526020019081526020015f20549150509392505050565b610552826104e2565b61055b81610ad3565b6105658383610ae7565b50505050565b610573610bd0565b73ffffffffffffffffffffffffffffffffffffffff168173ffffffffffffffffffffffffffffffffffffffff16146105d7576040517f6697b23200000000000000000000000000000000000000000000000000000000815260040160405180910390fd5b6105e18282610bd7565b505050565b6105f18383836107bb565b50505050565b5f5f600681111561060b5761060a6111af565b5b60ff1661061a86868686610941565b60ff16149050949350505050565b5f604760ff168260ff16149050919050565b6060604760ff168260ff160361066a576040518060600160405280603581526020016112cd6035913990506106a3565b6040518060400160405280601881526020017f556e6b6e6f776e207265737472696374696f6e20636f6465000000000000000081525090505b919050565b7f97667070c54ef182b0f5858b034beac1b6f3089aa2d3188bb1e8929f4fa9b9296106d281610ad3565b5f8484846040516020016106e893929190611173565b6040516020818303038152906040528051906020012090506001805f8381526020019081526020015f205f8282546107209190611209565b925050819055508373ffffffffffffffffffffffffffffffffffffffff168573ffffffffffffffffffffffffffffffffffffffff167feccbdf7c486b88cbffbd8100b22951057ab0de2b73f27f625cc468ccabc3d08a8560015f8681526020019081526020015f205460405161079792919061123c565b60405180910390a35050505050565b6001602052805f5260405f205f915090505481565b5f8383836040516020016107d193929190611173565b6040516020818303038152906040528051906020012090505f60015f8381526020019081526020015f205490505f8103610837576040517ff82ba75a00000000000000000000000000000000000000000000000000000000815260040160405180910390fd5b6001816108449190611263565b60015f8481526020019081526020015f20819055508373ffffffffffffffffffffffffffffffffffffffff168573ffffffffffffffffffffffffffffffffffffffff167f8e386ea29f37964fdbdb87193d773dea74e258b0f6108461c88c712051fb27bc8560015f8781526020019081526020015f20546040516108c992919061123c565b60405180910390a35050505050565b5f5f5f8481526020019081526020015f205f015f8373ffffffffffffffffffffffffffffffffffffffff1673ffffffffffffffffffffffffffffffffffffffff1681526020019081526020015f205f9054906101000a900460ff16905092915050565b5f5f1b81565b5f61094d848484610957565b9050949350505050565b5f5f84848460405160200161096e93929190611173565b6040516020818303038152906040528051906020012090505f60015f8381526020019081526020015f205490505f81036109ad576047925050506109c5565b5f60068111156109c0576109bf6111af565b5b925050505b9392505050565b6109d5826104e2565b6109de81610ad3565b6109e88383610bd7565b50505050565b604781565b5f5f6006811115610a0757610a066111af565b5b60ff16610a15858585610957565b60ff161490509392505050565b7f5007339590b47d4786f4ab2ef7ffa0ec54bc5fe7244dd97bc6efa6ab3799807b81565b7f97667070c54ef182b0f5858b034beac1b6f3089aa2d3188bb1e8929f4fa9b92981565b5f7f01ffc9a7000000000000000000000000000000000000000000000000000000007bffffffffffffffffffffffffffffffffffffffffffffffffffffffff1916827bffffffffffffffffffffffffffffffffffffffffffffffffffffffff1916149050919050565b610ae481610adf610bd0565b610cc0565b50565b5f610af283836108d8565b610bc65760015f5f8581526020019081526020015f205f015f8473ffffffffffffffffffffffffffffffffffffffff1673ffffffffffffffffffffffffffffffffffffffff1681526020019081526020015f205f6101000a81548160ff021916908315150217905550610b63610bd0565b73ffffffffffffffffffffffffffffffffffffffff168273ffffffffffffffffffffffffffffffffffffffff16847f2f8788117e7eff1d82e926ec794901d17c78024a50270940304540a733656f0d60405160405180910390a460019050610bca565b5f90505b92915050565b5f33905090565b5f610be283836108d8565b15610cb6575f5f5f8581526020019081526020015f205f015f8473ffffffffffffffffffffffffffffffffffffffff1673ffffffffffffffffffffffffffffffffffffffff1681526020019081526020015f205f6101000a81548160ff021916908315150217905550610c53610bd0565b73ffffffffffffffffffffffffffffffffffffffff168273ffffffffffffffffffffffffffffffffffffffff16847ff6391f5c32d9c69d2a47ea670b442974b53935d1edc7fd64eb21e047a839171b60405160405180910390a460019050610cba565b5f90505b92915050565b610cca82826108d8565b610d0d5780826040517fe2517d3f000000000000000000000000000000000000000000000000000000008152600401610d049291906112a5565b60405180910390fd5b5050565b5f5ffd5b5f7fffffffff0000000000000000000000000000000000000000000000000000000082169050919050565b610d4981610d15565b8114610d53575f5ffd5b50565b5f81359050610d6481610d40565b92915050565b5f60208284031215610d7f57610d7e610d11565b5b5f610d8c84828501610d56565b91505092915050565b5f8115159050919050565b610da981610d95565b82525050565b5f602082019050610dc25f830184610da0565b92915050565b5f819050919050565b610dda81610dc8565b8114610de4575f5ffd5b50565b5f81359050610df581610dd1565b92915050565b5f60208284031215610e1057610e0f610d11565b5b5f610e1d84828501610de7565b91505092915050565b610e2f81610dc8565b82525050565b5f602082019050610e485f830184610e26565b92915050565b5f73ffffffffffffffffffffffffffffffffffffffff82169050919050565b5f610e7782610e4e565b9050919050565b610e8781610e6d565b8114610e91575f5ffd5b50565b5f81359050610ea281610e7e565b92915050565b5f819050919050565b610eba81610ea8565b8114610ec4575f5ffd5b50565b5f81359050610ed581610eb1565b92915050565b5f5f5f60608486031215610ef257610ef1610d11565b5b5f610eff86828701610e94565b9350506020610f1086828701610e94565b9250506040610f2186828701610ec7565b9150509250925092565b610f3481610ea8565b82525050565b5f602082019050610f4d5f830184610f2b565b92915050565b5f5f60408385031215610f6957610f68610d11565b5b5f610f7685828601610de7565b9250506020610f8785828601610e94565b9150509250929050565b5f5f5f5f60808587031215610fa957610fa8610d11565b5b5f610fb687828801610e94565b9450506020610fc787828801610e94565b9350506040610fd887828801610e94565b9250506060610fe987828801610ec7565b91505092959194509250565b5f60ff82169050919050565b61100a81610ff5565b8114611014575f5ffd5b50565b5f8135905061102581611001565b92915050565b5f602082840312156110405761103f610d11565b5b5f61104d84828501611017565b91505092915050565b5f81519050919050565b5f82825260208201905092915050565b8281835e5f83830152505050565b5f601f19601f8301169050919050565b5f61109882611056565b6110a28185611060565b93506110b2818560208601611070565b6110bb8161107e565b840191505092915050565b5f6020820190508181035f8301526110de818461108e565b905092915050565b6110ef81610ff5565b82525050565b5f6020820190506111085f8301846110e6565b92915050565b5f8160601b9050919050565b5f6111248261110e565b9050919050565b5f6111358261111a565b9050919050565b61114d61114882610e6d565b61112b565b82525050565b5f819050919050565b61116d61116882610ea8565b611153565b82525050565b5f61117e828661113c565b60148201915061118e828561113c565b60148201915061119e828461115c565b602082019150819050949350505050565b7f4e487b71000000000000000000000000000000000000000000000000000000005f52602160045260245ffd5b7f4e487b71000000000000000000000000000000000000000000000000000000005f52601160045260245ffd5b5f61121382610ea8565b915061121e83610ea8565b9250828201905080821115611236576112356111dc565b5b92915050565b5f60408201905061124f5f830185610f2b565b61125c6020830184610f2b565b9392505050565b5f61126d82610ea8565b915061127883610ea8565b92508282039050818111156112905761128f6111dc565b5b92915050565b61129f81610e6d565b82525050565b5f6040820190506112b85f830185611296565b6112c56020830184610e26565b939250505056fe436f6e646974696f6e616c5472616e736665724c696768743a205468652072657175657374206973206e6f7420617070726f766564a264697066735822122037b97360116ec69b2e625d68757383c571efc8b26affda74da34e99c87ee96d864736f6c634300081e0033",
  "linkReferences": {},
  "deployedLinkReferences": {}
}