{
  "_format": "hh-sol-artifact-1",
  "contractName": "RuleEngineOwnable",
  "sourceName": "src/deployment/RuleEngineOwnable.sol",
  "abi": [
    {
      "inputs": [
        {
          "internalType": "address",
          "name": "owner_",
          "type": "address"
        },
        {
          "internalType": "address",
          "name": "forwarderIrrevocable",
          "type": "address"
        },
        {
          "internalType": "address",
          "name": "tokenContract",
          "type": "address"
        }
      ],
      "stateMutability": "nonpayable",
      "type": "constructor"
    },
    {
      "inputs": [
        {
          "internalType": "address",
          "name": "owner",
          "type": "address"
        }
      ],
      "name": "OwnableInvalidOwner",
      "type": "error"
    },
    {
      "inputs": [
        {
          "internalType": "address",
          "name": "account",
          "type": "address"
        }
      ],
      "name": "OwnableUnauthorizedAccount",
      "type": "error"
    },
    {
      "inputs": [],
      "name": "RuleEngine_AdminWithAddressZeroNotAllowed",
      "type": "error"
    },
    {
      "inputs": [],
      "name": "RuleEngine_ERC3643Compliance_InvalidTokenAddress",
      "type": "error"
    },
    {
      "inputs": [],
      "name": "RuleEngine_ERC3643Compliance_OperationNotSuccessful",
      "type": "error"
    },
    {
      "inputs": [],
      "name": "RuleEngine_ERC3643Compliance_TokenAlreadyBound",
      "type": "error"
    },
    {
      "inputs": [],
      "name": "RuleEngine_ERC3643Compliance_TokenNotBound",
      "type": "error"
    },
    {
      "inputs": [],
      "name": "RuleEngine_ERC3643Compliance_UnauthorizedCaller",
      "type": "error"
    },
    {
      "inputs": [],
      "name": "RuleEngine_RuleInvalidInterface",
      "type": "error"
    },
    {
      "inputs": [],
      "name": "RuleEngine_RulesManagementModule_ArrayIsEmpty",
      "type": "error"
    },
    {
      "inputs": [],
      "name": "RuleEngine_RulesManagementModule_OperationNotSuccessful",
      "type": "error"
    },
    {
      "inputs": [],
      "name": "RuleEngine_RulesManagementModule_RuleAddressZeroNotAllowed",
      "type": "error"
    },
    {
      "inputs": [],
      "name": "RuleEngine_RulesManagementModule_RuleAlreadyExists",
      "type": "error"
    },
    {
      "inputs": [],
      "name": "RuleEngine_RulesManagementModule_RuleDoNotMatch",
      "type": "error"
    },
    {
      "anonymous": false,
      "inputs": [
        {
          "indexed": true,
          "internalType": "contract IRule",
          "name": "rule",
          "type": "address"
        }
      ],
      "name": "AddRule",
      "type": "event"
    },
    {
      "anonymous": false,
      "inputs": [],
      "name": "ClearRules",
      "type": "event"
    },
    {
      "anonymous": false,
      "inputs": [
        {
          "indexed": true,
          "internalType": "address",
          "name": "previousOwner",
          "type": "address"
        },
        {
          "indexed": true,
          "internalType": "address",
          "name": "newOwner",
          "type": "address"
        }
      ],
      "name": "OwnershipTransferred",
      "type": "event"
    },
    {
      "anonymous": false,
      "inputs": [
        {
          "indexed": true,
          "internalType": "contract IRule",
          "name": "rule",
          "type": "address"
        }
      ],
      "name": "RemoveRule",
      "type": "event"
    },
    {
      "anonymous": false,
      "inputs": [
        {
          "indexed": false,
          "internalType": "address",
          "name": "token",
          "type": "address"
        }
      ],
      "name": "TokenBound",
      "type": "event"
    },
    {
      "anonymous": false,
      "inputs": [
        {
          "indexed": false,
          "internalType": "address",
          "name": "token",
          "type": "address"
        }
      ],
      "name": "TokenUnbound",
      "type": "event"
    },
    {
      "inputs": [],
      "name": "COMPLIANCE_MANAGER_ROLE",
      "outputs": [
        {
          "internalType": "bytes32",
          "name": "",
          "type": "bytes32"
        }
      ],
      "stateMutability": "view",
      "type": "function"
    },
    {
      "inputs": [],
      "name": "RULES_MANAGEMENT_ROLE",
      "outputs": [
        {
          "internalType": "bytes32",
          "name": "",
          "type": "bytes32"
        }
      ],
      "stateMutability": "view",
      "type": "function"
    },
    {
      "inputs": [
        {
          "internalType": "contract IRule",
          "name": "rule_",
          "type": "address"
        }
      ],
      "name": "addRule",
      "outputs": [],
      "stateMutability": "nonpayable",
      "type": "function"
    },
    {
      "inputs": [
        {
          "internalType": "address",
          "name": "token",
          "type": "address"
        }
      ],
      "name": "bindToken",
      "outputs": [],
      "stateMutability": "nonpayable",
      "type": "function"
    },
    {
      "inputs": [
        {
          "internalType": "address",
          "name": "from",
          "type": "address"
        },
        {
          "internalType": "address",
          "name": "to",
          "type": "address"
        },
        {
          "internalType": "uint256",
          "name": "value",
          "type": "uint256"
        }
      ],
      "name": "canTransfer",
      "outputs": [
        {
          "internalType": "bool",
          "name": "",
          "type": "bool"
        }
      ],
      "stateMutability": "view",
      "type": "function"
    },
    {
      "inputs": [
        {
          "internalType": "address",
          "name": "spender",
          "type": "address"
        },
        {
          "internalType": "address",
          "name": "from",
          "type": "address"
        },
        {
          "internalType": "address",
          "name": "to",
          "type": "address"
        },
        {
          "internalType": "uint256",
          "name": "value",
          "type": "uint256"
        }
      ],
      "name": "canTransferFrom",
      "outputs": [
        {
          "internalType": "bool",
          "name": "",
          "type": "bool"
        }
      ],
      "stateMutability": "view",
      "type": "function"
    },
    {
      "inputs": [],
      "name": "clearRules",
      "outputs": [],
      "stateMutability": "nonpayable",
      "type": "function"
    },
    {
      "inputs": [
        {
          "internalType": "contract IRule",
          "name": "rule_",
          "type": "address"
        }
      ],
      "name": "containsRule",
      "outputs": [
        {
          "internalType": "bool",
          "name": "",
          "type": "bool"
        }
      ],
      "stateMutability": "view",
      "type": "function"
    },
    {
      "inputs": [
        {
          "internalType": "address",
          "name": "to",
          "type": "address"
        },
        {
          "internalType": "uint256",
          "name": "value",
          "type": "uint256"
        }
      ],
      "name": "created",
      "outputs": [],
      "stateMutability": "nonpayable",
      "type": "function"
    },
    {
      "inputs": [
        {
          "internalType": "address",
          "name": "from",
          "type": "address"
        },
        {
          "internalType": "uint256",
          "name": "value",
          "type": "uint256"
        }
      ],
      "name": "destroyed",
      "outputs": [],
      "stateMutability": "nonpayable",
      "type": "function"
    },
    {
      "inputs": [
        {
          "internalType": "address",
          "name": "from",
          "type": "address"
        },
        {
          "internalType": "address",
          "name": "to",
          "type": "address"
        },
        {
          "internalType": "uint256",
          "name": "value",
          "type": "uint256"
        }
      ],
      "name": "detectTransferRestriction",
      "outputs": [
        {
          "internalType": "uint8",
          "name": "",
          "type": "uint8"
        }
      ],
      "stateMutability": "view",
      "type": "function"
    },
    {
      "inputs": [
        {
          "internalType": "address",
          "name": "spender",
          "type": "address"
        },
        {
          "internalType": "address",
          "name": "from",
          "type": "address"
        },
        {
          "internalType": "address",
          "name": "to",
          "type": "address"
        },
        {
          "internalType": "uint256",
          "name": "value",
          "type": "uint256"
        }
      ],
      "name": "detectTransferRestrictionFrom",
      "outputs": [
        {
          "internalType": "uint8",
          "name": "",
          "type": "uint8"
        }
      ],
      "stateMutability": "view",
      "type": "function"
    },
    {
      "inputs": [],
      "name": "getTokenBound",
      "outputs": [
        {
          "internalType": "address",
          "name": "",
          "type": "address"
        }
      ],
      "stateMutability": "view",
      "type": "function"
    },
    {
      "inputs": [],
      "name": "getTokenBounds",
      "outputs": [
        {
          "internalType": "address[]",
          "name": "",
          "type": "address[]"
        }
      ],
      "stateMutability": "view",
      "type": "function"
    },
    {
      "inputs": [
        {
          "internalType": "address",
          "name": "token",
          "type": "address"
        }
      ],
      "name": "isTokenBound",
      "outputs": [
        {
          "internalType": "bool",
          "name": "",
          "type": "bool"
        }
      ],
      "stateMutability": "view",
      "type": "function"
    },
    {
      "inputs": [
        {
          "internalType": "address",
          "name": "forwarder",
          "type": "address"
        }
      ],
      "name": "isTrustedForwarder",
      "outputs": [
        {
          "internalType": "bool",
          "name": "",
          "type": "bool"
        }
      ],
      "stateMutability": "view",
      "type": "function"
    },
    {
      "inputs": [
        {
          "internalType": "uint8",
          "name": "restrictionCode",
          "type": "uint8"
        }
      ],
      "name": "messageForTransferRestriction",
      "outputs": [
        {
          "internalType": "string",
          "name": "",
          "type": "string"
        }
      ],
      "stateMutability": "view",
      "type": "function"
    },
    {
      "inputs": [],
      "name": "owner",
      "outputs": [
        {
          "internalType": "address",
          "name": "",
          "type": "address"
        }
      ],
      "stateMutability": "view",
      "type": "function"
    },
    {
      "inputs": [
        {
          "internalType": "contract IRule",
          "name": "rule_",
          "type": "address"
        }
      ],
      "name": "removeRule",
      "outputs": [],
      "stateMutability": "nonpayable",
      "type": "function"
    },
    {
      "inputs": [],
      "name": "renounceOwnership",
      "outputs": [],
      "stateMutability": "nonpayable",
      "type": "function"
    },
    {
      "inputs": [
        {
          "internalType": "uint256",
          "name": "ruleId",
          "type": "uint256"
        }
      ],
      "name": "rule",
      "outputs": [
        {
          "internalType": "address",
          "name": "",
          "type": "address"
        }
      ],
      "stateMutability": "view",
      "type": "function"
    },
    {
      "inputs": [],
      "name": "rules",
      "outputs": [
        {
          "internalType": "address[]",
          "name": "",
          "type": "address[]"
        }
      ],
      "stateMutability": "view",
      "type": "function"
    },
    {
      "inputs": [],
      "name": "rulesCount",
      "outputs": [
        {
          "internalType": "uint256",
          "name": "",
          "type": "uint256"
        }
      ],
      "stateMutability": "view",
      "type": "function"
    },
    {
      "inputs": [
        {
          "internalType": "contract IRule[]",
          "name": "rules_",
          "type": "address[]"
        }
      ],
      "name": "setRules",
      "outputs": [],
      "stateMutability": "nonpayable",
      "type": "function"
    },
    {
      "inputs": [
        {
          "internalType": "bytes4",
          "name": "interfaceId",
          "type": "bytes4"
        }
      ],
      "name": "supportsInterface",
      "outputs": [
        {
          "internalType": "bool",
          "name": "",
          "type": "bool"
        }
      ],
      "stateMutability": "view",
      "type": "function"
    },
    {
      "inputs": [
        {
          "internalType": "address",
          "name": "newOwner",
          "type": "address"
        }
      ],
      "name": "transferOwnership",
      "outputs": [],
      "stateMutability": "nonpayable",
      "type": "function"
    },
    {
      "inputs": [
        {
          "internalType": "address",
          "name": "spender",
          "type": "address"
        },
        {
          "internalType": "address",
          "name": "from",
          "type": "address"
        },
        {
          "internalType": "address",
          "name": "to",
          "type": "address"
        },
        {
          "internalType": "uint256",
          "name": "value",
          "type": "uint256"
        }
      ],
      "name": "transferred",
      "outputs": [],
      "stateMutability": "nonpayable",
      "type": "function"
    },
    {
      "inputs": [
        {
          "internalType": "address",
          "name": "from",
          "type": "address"
        },
        {
          "internalType": "address",
          "name": "to",
          "type": "address"
        },
        {
          "internalType": "uint256",
          "name": "value",
          "type": "uint256"
        }
      ],
      "name": "transferred",
      "outputs": [],
      "stateMutability": "nonpayable",
      "type": "function"
    },
    {
      "inputs": [],
      "name": "trustedForwarder",
      "outputs": [
        {
          "internalType": "address",
          "name": "",
          "type": "address"
        }
      ],
      "stateMutability": "view",
      "type": "function"
    },
    {
      "inputs": [
        {
          "internalType": "address",
          "name": "token",
          "type": "address"
        }
      ],
      "name": "unbindToken",
      "outputs": [],
      "stateMutability": "nonpayable",
      "type": "function"
    },
    {
      "inputs": [],
      "name": "version",
      "outputs": [
        {
          "internalType": "string",
          "name": "version_",
          "type": "string"
        }
      ],
      "stateMutability": "view",
      "type": "function"
    }
  ],
  "bytecode": "0x60a060405234801561000f575f5ffd5b50604051611ad2380380611ad283398101604081905261002e91610237565b6001600160a01b038083166080528390839083908116156100525761005281610093565b50506001600160a01b03811661008157604051631e4fbdf760e01b81525f600482015260240160405180910390fd5b61008a8161014a565b50505050610277565b6001600160a01b0381166100ba576040516301b8831760e71b815260040160405180910390fd5b6100c560028261019b565b156100e35760405163f423354760e01b815260040160405180910390fd5b6100ee6002826101c1565b61010b57604051631b4ddcf360e11b815260040160405180910390fd5b6040516001600160a01b03821681527f2de35142b19ed5a07796cf30791959c592018f70b1d2d7c460eef8ffe713692b9060200160405180910390a150565b600480546001600160a01b038381166001600160a01b0319831681179093556040519116919082907f8be0079c531659141344cd1fd0a4f28419497f9722a3daafe3b4186f6b6457e0905f90a35050565b6001600160a01b0381165f90815260018301602052604081205415155b90505b92915050565b5f6101b8836001600160a01b0384165f81815260018301602052604081205461021557508154600181810184555f8481526020808220909301849055845484825282860190935260409020919091556101bb565b505f6101bb565b80516001600160a01b0381168114610232575f5ffd5b919050565b5f5f5f60608486031215610249575f5ffd5b6102528461021c565b92506102606020850161021c565b915061026e6040850161021c565b90509250925092565b60805161183561029d5f395f81816102da0152818161035a015261138601526118355ff3fe608060405234801561000f575f5ffd5b50600436106101dc575f3560e01c80638baf29b411610109578063d32c7bb51161009e578063e3c4602c1161006e578063e3c4602c14610483578063e46638e614610496578063e54621d2146104a9578063f2fde38b146104b1575f5ffd5b8063d32c7bb514610425578063d4ce14151461044a578063db18af6c1461045d578063df21950f14610470575f5ffd5b80639b11c115116100d95780639b11c115146103db578063b043572e14610402578063b27aef3a1461040a578063bc13eacc1461041d575f5ffd5b80638baf29b4146103915780638d2ea772146103a45780638da5cb5b146103b7578063993e8b95146103c8575f5ffd5b806354fd4d501161017f578063715018a61161014f578063715018a61461033d5780637157797f146103455780637da0a877146103585780637f4ab1dd1461037e575f5ffd5b806354fd4d50146102a0578063572b6c05146102ca5780635f8dead31461030a5780636a3edf281461031d575f5ffd5b80633ff5aa02116101ba5780633ff5aa021461025257806340db3b501461026557806352f6747a1461027857806354e4b9451461028d575f5ffd5b806301ffc9a7146101e057806303c26bcd146102085780633e5af4ca1461023d575b5f5ffd5b6101f36101ee366004611413565b6104c4565b60405190151581526020015b60405180910390f35b61022f7fe5c50d0927e06141e032cb9a67e1d7092dc85c0b0825191f7e1cede60002856881565b6040519081526020016101ff565b61025061024b36600461144e565b61050a565b005b61025061026036600461149c565b610524565b61025061027336600461149c565b610538565b610280610549565b6040516101ff91906114b7565b6101f361029b36600461149c565b610559565b6040805180820190915260058152640332e302e360dc1b60208201525b6040516101ff9190611502565b6101f36102d836600461149c565b7f00000000000000000000000000000000000000000000000000000000000000006001600160a01b0390811691161490565b610250610318366004611537565b610564565b61032561057b565b6040516001600160a01b0390911681526020016101ff565b61025061059d565b6101f361035336600461144e565b6105b0565b7f0000000000000000000000000000000000000000000000000000000000000000610325565b6102bd61038c36600461156f565b6105cd565b61025061039f36600461158a565b6105d8565b6102506103b2366004611537565b6105f0565b6004546001600160a01b0316610325565b6101f36103d636600461149c565b610603565b61022f7fea5f4eb72290e50c32abd6c23e45de3d8300b3286e1cbc2e293114b92e034e5e81565b61025061060f565b6102506104183660046115c8565b61061f565b61022f61074b565b61043861043336600461144e565b610755565b60405160ff90911681526020016101ff565b61043861045836600461158a565b61076b565b61032561046b366004611639565b610781565b61025061047e36600461149c565b6107a3565b61025061049136600461149c565b6107db565b6101f36104a436600461158a565b610849565b610280610862565b6102506104bf36600461149c565b61086e565b5f6104ce826108ad565b806104e957506001600160e01b031982166307f5828d60e41b145b8061050457506001600160e01b031982166301ffc9a760e01b145b92915050565b610512610918565b61051e84848484610948565b50505050565b61052c6109ea565b610535816109f2565b50565b6105406109ea565b61053581610aaa565b60606105545f610b33565b905090565b5f6105048183610b3f565b61056c610918565b6105775f8383610b5f565b5050565b5f5f6105876002610bf8565b11156105985761055460025f610c01565b505f90565b6105a5610c0c565b6105ae5f610c6a565b565b5f806105be86868686610755565b60ff161490505b949350505050565b606061050482610cbb565b6105e0610918565b6105eb838383610b5f565b505050565b6105f8610918565b610577825f83610b5f565b5f610504600283610b3f565b6106176109ea565b6105ae610e05565b6106276109ea565b5f819003610648576040516359203cb960e01b815260040160405180910390fd5b5f6106525f610bf8565b111561066057610660610e05565b5f5b818110156105eb5761069983838381811061067f5761067f611650565b9050602002016020810190610694919061149c565b610e36565b6106ca8383838181106106ae576106ae611650565b90506020020160208101906106c3919061149c565b5f90610e6d565b6106e75760405163f280d16160e01b815260040160405180910390fd5b8282828181106106f9576106f9611650565b905060200201602081019061070e919061149c565b6001600160a01b03167f60305ce6c9104acd0969d358f926bf391174340660aaf5e6215261fd6847bf4660405160405180910390a2600101610662565b5f6105545f610bf8565b5f61076285858585610e81565b95945050505050565b5f610777848484610f4c565b90505b9392505050565b5f61078b5f610bf8565b82101561079c576105045f83610c01565b505f919050565b6107ab6109ea565b6107b55f82610b3f565b6107d257604051632cdc3a4160e21b815260040160405180910390fd5b6105358161100e565b6107e36109ea565b6107ec81610e36565b6107f65f82610e6d565b6108135760405163f280d16160e01b815260040160405180910390fd5b6040516001600160a01b038216907f60305ce6c9104acd0969d358f926bf391174340660aaf5e6215261fd6847bf46905f90a250565b5f8061085685858561076b565b60ff1614949350505050565b60606105546002610b33565b610876610c0c565b6001600160a01b0381166108a457604051631e4fbdf760e01b81525f60048201526024015b60405180910390fd5b61053581610c6a565b5f6001600160e01b031982166320c49ce760e01b14806108dd57506001600160e01b031982166378a8de7d60e01b145b806108f857506001600160e01b03198216630c51264760e21b145b8061050457506001600160e01b03198216637157797f60e01b1492915050565b61092b61092361106b565b600290610b3f565b6105ae5760405163e39b3c8f60e01b815260040160405180910390fd5b5f6109525f610bf8565b90505f5b818110156109e2576109685f82610c01565b604051631f2d7a6560e11b81526001600160a01b03888116600483015287811660248301528681166044830152606482018690529190911690633e5af4ca906084015f604051808303815f87803b1580156109c1575f5ffd5b505af11580156109d3573d5f5f3e3d5ffd5b50505050806001019050610956565b505050505050565b6105ae610c0c565b6001600160a01b038116610a19576040516301b8831760e71b815260040160405180910390fd5b610a24600282610b3f565b15610a425760405163f423354760e01b815260040160405180910390fd5b610a4d600282610e6d565b610a6a57604051631b4ddcf360e11b815260040160405180910390fd5b6040516001600160a01b03821681527f2de35142b19ed5a07796cf30791959c592018f70b1d2d7c460eef8ffe713692b906020015b60405180910390a150565b610ab5600282610b3f565b610ad257604051636a2b488360e11b815260040160405180910390fd5b610add600282611074565b610afa57604051631b4ddcf360e11b815260040160405180910390fd5b6040516001600160a01b03821681527f28a4ca7134a3b3f9aff286e79ad3daadb4a06d1b43d037a3a98bdc074edd9b7a90602001610a9f565b60605f61077a83611088565b6001600160a01b03165f9081526001919091016020526040902054151590565b5f610b695f610bf8565b90505f5b81811015610bf157610b7f5f82610c01565b6040516322ebca6d60e21b81526001600160a01b0387811660048301528681166024830152604482018690529190911690638baf29b4906064015f604051808303815f87803b158015610bd0575f5ffd5b505af1158015610be2573d5f5f3e3d5ffd5b50505050806001019050610b6d565b5050505050565b5f610504825490565b5f61077a83836110e1565b610c1461106b565b6001600160a01b0316610c2f6004546001600160a01b031690565b6001600160a01b0316146105ae57610c4561106b565b60405163118cdaa760e01b81526001600160a01b03909116600482015260240161089b565b600480546001600160a01b038381166001600160a01b0319831681179093556040519116919082907f8be0079c531659141344cd1fd0a4f28419497f9722a3daafe3b4186f6b6457e0905f90a35050565b60605f610cc661074b565b90505f5b81811015610dc957610cdb81610781565b604051633e822efb60e11b815260ff861660048201526001600160a01b039190911690637d045df690602401602060405180830381865afa158015610d22573d5f5f3e3d5ffd5b505050506040513d601f19601f82011682018060405250810190610d469190611664565b15610dc157610d5481610781565b604051637f4ab1dd60e01b815260ff861660048201526001600160a01b039190911690637f4ab1dd906024015f60405180830381865afa158015610d9a573d5f5f3e3d5ffd5b505050506040513d5f823e601f3d908101601f191682016040526105c59190810190611697565b600101610cca565b505060408051808201909152601881527f556e6b6e6f776e207265737472696374696f6e20636f64650000000000000000602082015292915050565b6040517fdbf61473843cd9be1c9791ce51ef66d0da6c9026d62ba80c1ca433b13fb729b2905f90a16105ae5f611107565b610e3f81611110565b610e5081632497d6cb60e01b61115f565b61053557604051639952e34360e01b815260040160405180910390fd5b5f61077a836001600160a01b03841661117a565b5f5f610e8b61074b565b90505f5b81811015610f40575f610ea182610781565b60405163d32c7bb560e01b81526001600160a01b038a811660048301528981166024830152888116604483015260648201889052919091169063d32c7bb590608401602060405180830381865afa158015610efe573d5f5f3e3d5ffd5b505050506040513d601f19601f82011682018060405250810190610f22919061174a565b905060ff811615610f375792506105c5915050565b50600101610e8f565b505f9695505050505050565b5f5f610f5661074b565b90505f5b81811015611003575f610f6c82610781565b60405163d4ce141560e01b81526001600160a01b038981166004830152888116602483015260448201889052919091169063d4ce141590606401602060405180830381865afa158015610fc1573d5f5f3e3d5ffd5b505050506040513d601f19601f82011682018060405250810190610fe5919061174a565b905060ff811615610ffa57925061077a915050565b50600101610f5a565b505f95945050505050565b6110185f82611074565b6110355760405163f280d16160e01b815260040160405180910390fd5b6040516001600160a01b038216907f6d83315c9718799346b67584ec64301b1457e989c8e35a8e2982a7776c04bfc4905f90a250565b5f6105546111c6565b5f61077a836001600160a01b0384166111d4565b6060815f018054806020026020016040519081016040528092919081815260200182805480156110d557602002820191905f5260205f20905b8154815260200190600101908083116110c1575b50505050509050919050565b5f825f0182815481106110f6576110f6611650565b905f5260205f200154905092915050565b610535816112be565b6001600160a01b0381166111375760405163f9d152fb60e01b815260040160405180910390fd5b6111415f82610b3f565b156105355760405163cc790a4b60e01b815260040160405180910390fd5b5f61116983611317565b801561077a575061077a8383611356565b5f8181526001830160205260408120546111bf57508154600181810184555f848152602080822090930184905584548482528286019093526040902091909155610504565b505f610504565b5f6105545f36816014611377565b5f81815260018301602052604081205480156112ae575f6111f6600183611765565b85549091505f9061120990600190611765565b9050808214611268575f865f01828154811061122757611227611650565b905f5260205f200154905080875f01848154811061124757611247611650565b5f918252602080832090910192909255918252600188019052604090208390555b855486908061127957611279611784565b600190038181905f5260205f20015f90559055856001015f8681526020019081526020015f205f905560019350505050610504565b5f915050610504565b5092915050565b5f6112c7825490565b90505f5b8181101561131057826001015f845f0183815481106112ec576112ec611650565b905f5260205f20015481526020019081526020015f205f90558060010190506112cb565b50505f9055565b5f611329826301ffc9a760e01b611356565b1561079c575f80611342846001600160e01b03196113df565b915091508180156105c55750159392505050565b5f5f5f61136385856113df565b915091508180156107625750949350505050565b90508082101580156113b157507f00000000000000000000000000000000000000000000000000000000000000006001600160a01b031633145b156113d7576113c436828403815f611798565b6113cd916117bf565b60601c9250505090565b339250505090565b6301ffc9a760e01b5f818152600483905290819060208260248188617530fa92505f511515601f3d11169150509250929050565b5f60208284031215611423575f5ffd5b81356001600160e01b03198116811461077a575f5ffd5b6001600160a01b0381168114610535575f5ffd5b5f5f5f5f60808587031215611461575f5ffd5b843561146c8161143a565b9350602085013561147c8161143a565b9250604085013561148c8161143a565b9396929550929360600135925050565b5f602082840312156114ac575f5ffd5b813561077a8161143a565b602080825282518282018190525f918401906040840190835b818110156114f75783516001600160a01b03168352602093840193909201916001016114d0565b509095945050505050565b602081525f82518060208401528060208501604085015e5f604082850101526040601f19601f83011684010191505092915050565b5f5f60408385031215611548575f5ffd5b82356115538161143a565b946020939093013593505050565b60ff81168114610535575f5ffd5b5f6020828403121561157f575f5ffd5b813561077a81611561565b5f5f5f6060848603121561159c575f5ffd5b83356115a78161143a565b925060208401356115b78161143a565b929592945050506040919091013590565b5f5f602083850312156115d9575f5ffd5b823567ffffffffffffffff8111156115ef575f5ffd5b8301601f810185136115ff575f5ffd5b803567ffffffffffffffff811115611615575f5ffd5b8560208260051b8401011115611629575f5ffd5b6020919091019590945092505050565b5f60208284031215611649575f5ffd5b5035919050565b634e487b7160e01b5f52603260045260245ffd5b5f60208284031215611674575f5ffd5b8151801515811461077a575f5ffd5b634e487b7160e01b5f52604160045260245ffd5b5f602082840312156116a7575f5ffd5b815167ffffffffffffffff8111156116bd575f5ffd5b8201601f810184136116cd575f5ffd5b805167ffffffffffffffff8111156116e7576116e7611683565b604051601f8201601f19908116603f0116810167ffffffffffffffff8111828210171561171657611716611683565b60405281815282820160200186101561172d575f5ffd5b8160208401602083015e5f91810160200191909152949350505050565b5f6020828403121561175a575f5ffd5b815161077a81611561565b8181038181111561050457634e487b7160e01b5f52601160045260245ffd5b634e487b7160e01b5f52603160045260245ffd5b5f5f858511156117a6575f5ffd5b838611156117b2575f5ffd5b5050820193919092039150565b80356bffffffffffffffffffffffff1981169060148410156112b7576bffffffffffffffffffffffff1960149490940360031b84901b169092169291505056fea26469706673582212201e9fb211c255bec6228b5933ad98df6d4ed24f7c9a53f9bea90aa6130d1d316b64736f6c63430008220033",
  "linkReferences": {},
  "deployedLinkReferences": {}
}