{
  "_format": "hh-sol-artifact-1",
  "contractName": "RuleEngineOwnable2Step",
  "sourceName": "src/deployment/RuleEngineOwnable2Step.sol",
  "abi": [
    {
      "inputs": [
        {
          "internalType": "address",
          "name": "owner_",
          "type": "address"
        },
        {
          "internalType": "address",
          "name": "forwarderIrrevocable",
          "type": "address"
        },
        {
          "internalType": "address",
          "name": "tokenContract",
          "type": "address"
        }
      ],
      "stateMutability": "nonpayable",
      "type": "constructor"
    },
    {
      "inputs": [
        {
          "internalType": "address",
          "name": "owner",
          "type": "address"
        }
      ],
      "name": "OwnableInvalidOwner",
      "type": "error"
    },
    {
      "inputs": [
        {
          "internalType": "address",
          "name": "account",
          "type": "address"
        }
      ],
      "name": "OwnableUnauthorizedAccount",
      "type": "error"
    },
    {
      "inputs": [],
      "name": "RuleEngine_AdminWithAddressZeroNotAllowed",
      "type": "error"
    },
    {
      "inputs": [],
      "name": "RuleEngine_ERC3643Compliance_InvalidTokenAddress",
      "type": "error"
    },
    {
      "inputs": [],
      "name": "RuleEngine_ERC3643Compliance_OperationNotSuccessful",
      "type": "error"
    },
    {
      "inputs": [],
      "name": "RuleEngine_ERC3643Compliance_TokenAlreadyBound",
      "type": "error"
    },
    {
      "inputs": [],
      "name": "RuleEngine_ERC3643Compliance_TokenNotBound",
      "type": "error"
    },
    {
      "inputs": [],
      "name": "RuleEngine_ERC3643Compliance_UnauthorizedCaller",
      "type": "error"
    },
    {
      "inputs": [],
      "name": "RuleEngine_RuleInvalidInterface",
      "type": "error"
    },
    {
      "inputs": [],
      "name": "RuleEngine_RulesManagementModule_ArrayIsEmpty",
      "type": "error"
    },
    {
      "inputs": [],
      "name": "RuleEngine_RulesManagementModule_OperationNotSuccessful",
      "type": "error"
    },
    {
      "inputs": [],
      "name": "RuleEngine_RulesManagementModule_RuleAddressZeroNotAllowed",
      "type": "error"
    },
    {
      "inputs": [],
      "name": "RuleEngine_RulesManagementModule_RuleAlreadyExists",
      "type": "error"
    },
    {
      "inputs": [],
      "name": "RuleEngine_RulesManagementModule_RuleDoNotMatch",
      "type": "error"
    },
    {
      "anonymous": false,
      "inputs": [
        {
          "indexed": true,
          "internalType": "contract IRule",
          "name": "rule",
          "type": "address"
        }
      ],
      "name": "AddRule",
      "type": "event"
    },
    {
      "anonymous": false,
      "inputs": [],
      "name": "ClearRules",
      "type": "event"
    },
    {
      "anonymous": false,
      "inputs": [
        {
          "indexed": true,
          "internalType": "address",
          "name": "previousOwner",
          "type": "address"
        },
        {
          "indexed": true,
          "internalType": "address",
          "name": "newOwner",
          "type": "address"
        }
      ],
      "name": "OwnershipTransferStarted",
      "type": "event"
    },
    {
      "anonymous": false,
      "inputs": [
        {
          "indexed": true,
          "internalType": "address",
          "name": "previousOwner",
          "type": "address"
        },
        {
          "indexed": true,
          "internalType": "address",
          "name": "newOwner",
          "type": "address"
        }
      ],
      "name": "OwnershipTransferred",
      "type": "event"
    },
    {
      "anonymous": false,
      "inputs": [
        {
          "indexed": true,
          "internalType": "contract IRule",
          "name": "rule",
          "type": "address"
        }
      ],
      "name": "RemoveRule",
      "type": "event"
    },
    {
      "anonymous": false,
      "inputs": [
        {
          "indexed": false,
          "internalType": "address",
          "name": "token",
          "type": "address"
        }
      ],
      "name": "TokenBound",
      "type": "event"
    },
    {
      "anonymous": false,
      "inputs": [
        {
          "indexed": false,
          "internalType": "address",
          "name": "token",
          "type": "address"
        }
      ],
      "name": "TokenUnbound",
      "type": "event"
    },
    {
      "inputs": [],
      "name": "COMPLIANCE_MANAGER_ROLE",
      "outputs": [
        {
          "internalType": "bytes32",
          "name": "",
          "type": "bytes32"
        }
      ],
      "stateMutability": "view",
      "type": "function"
    },
    {
      "inputs": [],
      "name": "RULES_MANAGEMENT_ROLE",
      "outputs": [
        {
          "internalType": "bytes32",
          "name": "",
          "type": "bytes32"
        }
      ],
      "stateMutability": "view",
      "type": "function"
    },
    {
      "inputs": [],
      "name": "acceptOwnership",
      "outputs": [],
      "stateMutability": "nonpayable",
      "type": "function"
    },
    {
      "inputs": [
        {
          "internalType": "contract IRule",
          "name": "rule_",
          "type": "address"
        }
      ],
      "name": "addRule",
      "outputs": [],
      "stateMutability": "nonpayable",
      "type": "function"
    },
    {
      "inputs": [
        {
          "internalType": "address",
          "name": "token",
          "type": "address"
        }
      ],
      "name": "bindToken",
      "outputs": [],
      "stateMutability": "nonpayable",
      "type": "function"
    },
    {
      "inputs": [
        {
          "internalType": "address",
          "name": "from",
          "type": "address"
        },
        {
          "internalType": "address",
          "name": "to",
          "type": "address"
        },
        {
          "internalType": "uint256",
          "name": "value",
          "type": "uint256"
        }
      ],
      "name": "canTransfer",
      "outputs": [
        {
          "internalType": "bool",
          "name": "",
          "type": "bool"
        }
      ],
      "stateMutability": "view",
      "type": "function"
    },
    {
      "inputs": [
        {
          "internalType": "address",
          "name": "spender",
          "type": "address"
        },
        {
          "internalType": "address",
          "name": "from",
          "type": "address"
        },
        {
          "internalType": "address",
          "name": "to",
          "type": "address"
        },
        {
          "internalType": "uint256",
          "name": "value",
          "type": "uint256"
        }
      ],
      "name": "canTransferFrom",
      "outputs": [
        {
          "internalType": "bool",
          "name": "",
          "type": "bool"
        }
      ],
      "stateMutability": "view",
      "type": "function"
    },
    {
      "inputs": [],
      "name": "clearRules",
      "outputs": [],
      "stateMutability": "nonpayable",
      "type": "function"
    },
    {
      "inputs": [
        {
          "internalType": "contract IRule",
          "name": "rule_",
          "type": "address"
        }
      ],
      "name": "containsRule",
      "outputs": [
        {
          "internalType": "bool",
          "name": "",
          "type": "bool"
        }
      ],
      "stateMutability": "view",
      "type": "function"
    },
    {
      "inputs": [
        {
          "internalType": "address",
          "name": "to",
          "type": "address"
        },
        {
          "internalType": "uint256",
          "name": "value",
          "type": "uint256"
        }
      ],
      "name": "created",
      "outputs": [],
      "stateMutability": "nonpayable",
      "type": "function"
    },
    {
      "inputs": [
        {
          "internalType": "address",
          "name": "from",
          "type": "address"
        },
        {
          "internalType": "uint256",
          "name": "value",
          "type": "uint256"
        }
      ],
      "name": "destroyed",
      "outputs": [],
      "stateMutability": "nonpayable",
      "type": "function"
    },
    {
      "inputs": [
        {
          "internalType": "address",
          "name": "from",
          "type": "address"
        },
        {
          "internalType": "address",
          "name": "to",
          "type": "address"
        },
        {
          "internalType": "uint256",
          "name": "value",
          "type": "uint256"
        }
      ],
      "name": "detectTransferRestriction",
      "outputs": [
        {
          "internalType": "uint8",
          "name": "",
          "type": "uint8"
        }
      ],
      "stateMutability": "view",
      "type": "function"
    },
    {
      "inputs": [
        {
          "internalType": "address",
          "name": "spender",
          "type": "address"
        },
        {
          "internalType": "address",
          "name": "from",
          "type": "address"
        },
        {
          "internalType": "address",
          "name": "to",
          "type": "address"
        },
        {
          "internalType": "uint256",
          "name": "value",
          "type": "uint256"
        }
      ],
      "name": "detectTransferRestrictionFrom",
      "outputs": [
        {
          "internalType": "uint8",
          "name": "",
          "type": "uint8"
        }
      ],
      "stateMutability": "view",
      "type": "function"
    },
    {
      "inputs": [],
      "name": "getTokenBound",
      "outputs": [
        {
          "internalType": "address",
          "name": "",
          "type": "address"
        }
      ],
      "stateMutability": "view",
      "type": "function"
    },
    {
      "inputs": [],
      "name": "getTokenBounds",
      "outputs": [
        {
          "internalType": "address[]",
          "name": "",
          "type": "address[]"
        }
      ],
      "stateMutability": "view",
      "type": "function"
    },
    {
      "inputs": [
        {
          "internalType": "address",
          "name": "token",
          "type": "address"
        }
      ],
      "name": "isTokenBound",
      "outputs": [
        {
          "internalType": "bool",
          "name": "",
          "type": "bool"
        }
      ],
      "stateMutability": "view",
      "type": "function"
    },
    {
      "inputs": [
        {
          "internalType": "address",
          "name": "forwarder",
          "type": "address"
        }
      ],
      "name": "isTrustedForwarder",
      "outputs": [
        {
          "internalType": "bool",
          "name": "",
          "type": "bool"
        }
      ],
      "stateMutability": "view",
      "type": "function"
    },
    {
      "inputs": [
        {
          "internalType": "uint8",
          "name": "restrictionCode",
          "type": "uint8"
        }
      ],
      "name": "messageForTransferRestriction",
      "outputs": [
        {
          "internalType": "string",
          "name": "",
          "type": "string"
        }
      ],
      "stateMutability": "view",
      "type": "function"
    },
    {
      "inputs": [],
      "name": "owner",
      "outputs": [
        {
          "internalType": "address",
          "name": "",
          "type": "address"
        }
      ],
      "stateMutability": "view",
      "type": "function"
    },
    {
      "inputs": [],
      "name": "pendingOwner",
      "outputs": [
        {
          "internalType": "address",
          "name": "",
          "type": "address"
        }
      ],
      "stateMutability": "view",
      "type": "function"
    },
    {
      "inputs": [
        {
          "internalType": "contract IRule",
          "name": "rule_",
          "type": "address"
        }
      ],
      "name": "removeRule",
      "outputs": [],
      "stateMutability": "nonpayable",
      "type": "function"
    },
    {
      "inputs": [],
      "name": "renounceOwnership",
      "outputs": [],
      "stateMutability": "nonpayable",
      "type": "function"
    },
    {
      "inputs": [
        {
          "internalType": "uint256",
          "name": "ruleId",
          "type": "uint256"
        }
      ],
      "name": "rule",
      "outputs": [
        {
          "internalType": "address",
          "name": "",
          "type": "address"
        }
      ],
      "stateMutability": "view",
      "type": "function"
    },
    {
      "inputs": [],
      "name": "rules",
      "outputs": [
        {
          "internalType": "address[]",
          "name": "",
          "type": "address[]"
        }
      ],
      "stateMutability": "view",
      "type": "function"
    },
    {
      "inputs": [],
      "name": "rulesCount",
      "outputs": [
        {
          "internalType": "uint256",
          "name": "",
          "type": "uint256"
        }
      ],
      "stateMutability": "view",
      "type": "function"
    },
    {
      "inputs": [
        {
          "internalType": "contract IRule[]",
          "name": "rules_",
          "type": "address[]"
        }
      ],
      "name": "setRules",
      "outputs": [],
      "stateMutability": "nonpayable",
      "type": "function"
    },
    {
      "inputs": [
        {
          "internalType": "bytes4",
          "name": "interfaceId",
          "type": "bytes4"
        }
      ],
      "name": "supportsInterface",
      "outputs": [
        {
          "internalType": "bool",
          "name": "",
          "type": "bool"
        }
      ],
      "stateMutability": "view",
      "type": "function"
    },
    {
      "inputs": [
        {
          "internalType": "address",
          "name": "newOwner",
          "type": "address"
        }
      ],
      "name": "transferOwnership",
      "outputs": [],
      "stateMutability": "nonpayable",
      "type": "function"
    },
    {
      "inputs": [
        {
          "internalType": "address",
          "name": "spender",
          "type": "address"
        },
        {
          "internalType": "address",
          "name": "from",
          "type": "address"
        },
        {
          "internalType": "address",
          "name": "to",
          "type": "address"
        },
        {
          "internalType": "uint256",
          "name": "value",
          "type": "uint256"
        }
      ],
      "name": "transferred",
      "outputs": [],
      "stateMutability": "nonpayable",
      "type": "function"
    },
    {
      "inputs": [
        {
          "internalType": "address",
          "name": "from",
          "type": "address"
        },
        {
          "internalType": "address",
          "name": "to",
          "type": "address"
        },
        {
          "internalType": "uint256",
          "name": "value",
          "type": "uint256"
        }
      ],
      "name": "transferred",
      "outputs": [],
      "stateMutability": "nonpayable",
      "type": "function"
    },
    {
      "inputs": [],
      "name": "trustedForwarder",
      "outputs": [
        {
          "internalType": "address",
          "name": "",
          "type": "address"
        }
      ],
      "stateMutability": "view",
      "type": "function"
    },
    {
      "inputs": [
        {
          "internalType": "address",
          "name": "token",
          "type": "address"
        }
      ],
      "name": "unbindToken",
      "outputs": [],
      "stateMutability": "nonpayable",
      "type": "function"
    },
    {
      "inputs": [],
      "name": "version",
      "outputs": [
        {
          "internalType": "string",
          "name": "version_",
          "type": "string"
        }
      ],
      "stateMutability": "view",
      "type": "function"
    }
  ],
  "bytecode": "0x60a060405234801561000f575f5ffd5b50604051611bd1380380611bd183398101604081905261002e91610258565b6001600160a01b038083166080528390839083908116156100525761005281610093565b50506001600160a01b03811661008157604051631e4fbdf760e01b81525f600482015260240160405180910390fd5b61008a8161014a565b50505050610298565b6001600160a01b0381166100ba576040516301b8831760e71b815260040160405180910390fd5b6100c5600282610166565b156100e35760405163f423354760e01b815260040160405180910390fd5b6100ee60028261018c565b61010b57604051631b4ddcf360e11b815260040160405180910390fd5b6040516001600160a01b03821681527f2de35142b19ed5a07796cf30791959c592018f70b1d2d7c460eef8ffe713692b9060200160405180910390a150565b600580546001600160a01b0319169055610163816101a0565b50565b6001600160a01b0381165f90815260018301602052604081205415155b90505b92915050565b5f610183836001600160a01b0384166101f1565b600480546001600160a01b038381166001600160a01b0319831681179093556040519116919082907f8be0079c531659141344cd1fd0a4f28419497f9722a3daafe3b4186f6b6457e0905f90a35050565b5f81815260018301602052604081205461023657508154600181810184555f848152602080822090930184905584548482528286019093526040902091909155610186565b505f610186565b80516001600160a01b0381168114610253575f5ffd5b919050565b5f5f5f6060848603121561026a575f5ffd5b6102738461023d565b92506102816020850161023d565b915061028f6040850161023d565b90509250925092565b6080516119136102be5f395f81816102f00152818161037801526113ab01526119135ff3fe608060405234801561000f575f5ffd5b50600436106101f2575f3560e01c80638baf29b411610114578063d32c7bb5116100a9578063e30c397811610079578063e30c3978146104a1578063e3c4602c146104b2578063e46638e6146104c5578063e54621d2146104d8578063f2fde38b146104e0575f5ffd5b8063d32c7bb514610443578063d4ce141514610468578063db18af6c1461047b578063df21950f1461048e575f5ffd5b80639b11c115116100e45780639b11c115146103f9578063b043572e14610420578063b27aef3a14610428578063bc13eacc1461043b575f5ffd5b80638baf29b4146103af5780638d2ea772146103c25780638da5cb5b146103d5578063993e8b95146103e6575f5ffd5b8063572b6c051161018a5780637157797f1161015a5780637157797f1461035b57806379ba50971461036e5780637da0a877146103765780637f4ab1dd1461039c575f5ffd5b8063572b6c05146102e05780635f8dead3146103205780636a3edf2814610333578063715018a614610353575f5ffd5b806340db3b50116101c557806340db3b501461027b57806352f6747a1461028e57806354e4b945146102a357806354fd4d50146102b6575f5ffd5b806301ffc9a7146101f657806303c26bcd1461021e5780633e5af4ca146102535780633ff5aa0214610268575b5f5ffd5b6102096102043660046114f1565b6104f3565b60405190151581526020015b60405180910390f35b6102457fe5c50d0927e06141e032cb9a67e1d7092dc85c0b0825191f7e1cede60002856881565b604051908152602001610215565b61026661026136600461152c565b610539565b005b61026661027636600461157a565b610553565b61026661028936600461157a565b610567565b610296610578565b6040516102159190611595565b6102096102b136600461157a565b610588565b6040805180820190915260058152640332e302e360dc1b60208201525b60405161021591906115e0565b6102096102ee36600461157a565b7f00000000000000000000000000000000000000000000000000000000000000006001600160a01b0390811691161490565b61026661032e366004611615565b610593565b61033b6105aa565b6040516001600160a01b039091168152602001610215565b6102666105cc565b61020961036936600461152c565b6105df565b6102666105fc565b7f000000000000000000000000000000000000000000000000000000000000000061033b565b6102d36103aa36600461164d565b610663565b6102666103bd366004611668565b61066e565b6102666103d0366004611615565b610686565b6004546001600160a01b031661033b565b6102096103f436600461157a565b610699565b6102457fea5f4eb72290e50c32abd6c23e45de3d8300b3286e1cbc2e293114b92e034e5e81565b6102666106a5565b6102666104363660046116a6565b6106b5565b6102456107e1565b61045661045136600461152c565b6107eb565b60405160ff9091168152602001610215565b610456610476366004611668565b610801565b61033b610489366004611717565b610817565b61026661049c36600461157a565b610839565b6005546001600160a01b031661033b565b6102666104c036600461157a565b610871565b6102096104d3366004611668565b6108df565b6102966108f8565b6102666104ee36600461157a565b610904565b5f6104fd82610975565b8061051857506001600160e01b031982166307f5828d60e41b145b8061053357506001600160e01b031982166301ffc9a760e01b145b92915050565b6105416109e0565b61054d84848484610a10565b50505050565b61055b610ab2565b61056481610aba565b50565b61056f610ab2565b61056481610b72565b60606105835f610bfb565b905090565b5f6105338183610c07565b61059b6109e0565b6105a65f8383610c27565b5050565b5f5f6105b66002610cc0565b11156105c75761058360025f610cc9565b505f90565b6105d4610cd4565b6105dd5f610d32565b565b5f806105ed868686866107eb565b60ff161490505b949350505050565b5f610605610d4b565b9050806001600160a01b03166106236005546001600160a01b031690565b6001600160a01b03161461065a5760405163118cdaa760e01b81526001600160a01b03821660048201526024015b60405180910390fd5b61056481610d32565b606061053382610d54565b6106766109e0565b610681838383610c27565b505050565b61068e6109e0565b6105a6825f83610c27565b5f610533600283610c07565b6106ad610ab2565b6105dd610e9e565b6106bd610ab2565b5f8190036106de576040516359203cb960e01b815260040160405180910390fd5b5f6106e85f610cc0565b11156106f6576106f6610e9e565b5f5b818110156106815761072f8383838181106107155761071561172e565b905060200201602081019061072a919061157a565b610ecf565b6107608383838181106107445761074461172e565b9050602002016020810190610759919061157a565b5f90610f06565b61077d5760405163f280d16160e01b815260040160405180910390fd5b82828281811061078f5761078f61172e565b90506020020160208101906107a4919061157a565b6001600160a01b03167f60305ce6c9104acd0969d358f926bf391174340660aaf5e6215261fd6847bf4660405160405180910390a26001016106f8565b5f6105835f610cc0565b5f6107f885858585610f1a565b95945050505050565b5f61080d848484610fe5565b90505b9392505050565b5f6108215f610cc0565b821015610832576105335f83610cc9565b505f919050565b610841610ab2565b61084b5f82610c07565b61086857604051632cdc3a4160e21b815260040160405180910390fd5b610564816110a7565b610879610ab2565b61088281610ecf565b61088c5f82610f06565b6108a95760405163f280d16160e01b815260040160405180910390fd5b6040516001600160a01b038216907f60305ce6c9104acd0969d358f926bf391174340660aaf5e6215261fd6847bf46905f90a250565b5f806108ec858585610801565b60ff1614949350505050565b60606105836002610bfb565b61090c610cd4565b600580546001600160a01b0383166001600160a01b0319909116811790915561093d6004546001600160a01b031690565b6001600160a01b03167f38d16b8cac22d99fc7c124b9cd0de2d3fa1faef420bfe791d8c362d765e2270060405160405180910390a350565b5f6001600160e01b031982166320c49ce760e01b14806109a557506001600160e01b031982166378a8de7d60e01b145b806109c057506001600160e01b03198216630c51264760e21b145b8061053357506001600160e01b03198216637157797f60e01b1492915050565b6109f36109eb610d4b565b600290610c07565b6105dd5760405163e39b3c8f60e01b815260040160405180910390fd5b5f610a1a5f610cc0565b90505f5b81811015610aaa57610a305f82610cc9565b604051631f2d7a6560e11b81526001600160a01b03888116600483015287811660248301528681166044830152606482018690529190911690633e5af4ca906084015f604051808303815f87803b158015610a89575f5ffd5b505af1158015610a9b573d5f5f3e3d5ffd5b50505050806001019050610a1e565b505050505050565b6105dd610cd4565b6001600160a01b038116610ae1576040516301b8831760e71b815260040160405180910390fd5b610aec600282610c07565b15610b0a5760405163f423354760e01b815260040160405180910390fd5b610b15600282610f06565b610b3257604051631b4ddcf360e11b815260040160405180910390fd5b6040516001600160a01b03821681527f2de35142b19ed5a07796cf30791959c592018f70b1d2d7c460eef8ffe713692b906020015b60405180910390a150565b610b7d600282610c07565b610b9a57604051636a2b488360e11b815260040160405180910390fd5b610ba5600282611104565b610bc257604051631b4ddcf360e11b815260040160405180910390fd5b6040516001600160a01b03821681527f28a4ca7134a3b3f9aff286e79ad3daadb4a06d1b43d037a3a98bdc074edd9b7a90602001610b67565b60605f61081083611118565b6001600160a01b03165f9081526001919091016020526040902054151590565b5f610c315f610cc0565b90505f5b81811015610cb957610c475f82610cc9565b6040516322ebca6d60e21b81526001600160a01b0387811660048301528681166024830152604482018690529190911690638baf29b4906064015f604051808303815f87803b158015610c98575f5ffd5b505af1158015610caa573d5f5f3e3d5ffd5b50505050806001019050610c35565b5050505050565b5f610533825490565b5f6108108383611171565b610cdc610d4b565b6001600160a01b0316610cf76004546001600160a01b031690565b6001600160a01b0316146105dd57610d0d610d4b565b60405163118cdaa760e01b81526001600160a01b039091166004820152602401610651565b600580546001600160a01b031916905561056481611197565b5f6105836111e8565b60605f610d5f6107e1565b90505f5b81811015610e6257610d7481610817565b604051633e822efb60e11b815260ff861660048201526001600160a01b039190911690637d045df690602401602060405180830381865afa158015610dbb573d5f5f3e3d5ffd5b505050506040513d601f19601f82011682018060405250810190610ddf9190611742565b15610e5a57610ded81610817565b604051637f4ab1dd60e01b815260ff861660048201526001600160a01b039190911690637f4ab1dd906024015f60405180830381865afa158015610e33573d5f5f3e3d5ffd5b505050506040513d5f823e601f3d908101601f191682016040526105f49190810190611775565b600101610d63565b505060408051808201909152601881527f556e6b6e6f776e207265737472696374696f6e20636f64650000000000000000602082015292915050565b6040517fdbf61473843cd9be1c9791ce51ef66d0da6c9026d62ba80c1ca433b13fb729b2905f90a16105dd5f6111f1565b610ed8816111fa565b610ee981632497d6cb60e01b611249565b61056457604051639952e34360e01b815260040160405180910390fd5b5f610810836001600160a01b038416611264565b5f5f610f246107e1565b90505f5b81811015610fd9575f610f3a82610817565b60405163d32c7bb560e01b81526001600160a01b038a811660048301528981166024830152888116604483015260648201889052919091169063d32c7bb590608401602060405180830381865afa158015610f97573d5f5f3e3d5ffd5b505050506040513d601f19601f82011682018060405250810190610fbb9190611828565b905060ff811615610fd05792506105f4915050565b50600101610f28565b505f9695505050505050565b5f5f610fef6107e1565b90505f5b8181101561109c575f61100582610817565b60405163d4ce141560e01b81526001600160a01b038981166004830152888116602483015260448201889052919091169063d4ce141590606401602060405180830381865afa15801561105a573d5f5f3e3d5ffd5b505050506040513d601f19601f8201168201806040525081019061107e9190611828565b905060ff811615611093579250610810915050565b50600101610ff3565b505f95945050505050565b6110b15f82611104565b6110ce5760405163f280d16160e01b815260040160405180910390fd5b6040516001600160a01b038216907f6d83315c9718799346b67584ec64301b1457e989c8e35a8e2982a7776c04bfc4905f90a250565b5f610810836001600160a01b0384166112b0565b6060815f0180548060200260200160405190810160405280929190818152602001828054801561116557602002820191905f5260205f20905b815481526020019060010190808311611151575b50505050509050919050565b5f825f0182815481106111865761118661172e565b905f5260205f200154905092915050565b600480546001600160a01b038381166001600160a01b0319831681179093556040519116919082907f8be0079c531659141344cd1fd0a4f28419497f9722a3daafe3b4186f6b6457e0905f90a35050565b5f61058361139a565b61056481611404565b6001600160a01b0381166112215760405163f9d152fb60e01b815260040160405180910390fd5b61122b5f82610c07565b156105645760405163cc790a4b60e01b815260040160405180910390fd5b5f6112538361145d565b80156108105750610810838361149c565b5f8181526001830160205260408120546112a957508154600181810184555f848152602080822090930184905584548482528286019093526040902091909155610533565b505f610533565b5f818152600183016020526040812054801561138a575f6112d2600183611843565b85549091505f906112e590600190611843565b9050808214611344575f865f0182815481106113035761130361172e565b905f5260205f200154905080875f0184815481106113235761132361172e565b5f918252602080832090910192909255918252600188019052604090208390555b855486908061135557611355611862565b600190038181905f5260205f20015f90559055856001015f8681526020019081526020015f205f905560019350505050610533565b5f915050610533565b5092915050565b5f3660148082108015906113d657507f00000000000000000000000000000000000000000000000000000000000000006001600160a01b031633145b156113fc576113e936828403815f611876565b6113f29161189d565b60601c9250505090565b339250505090565b5f61140d825490565b90505f5b8181101561145657826001015f845f0183815481106114325761143261172e565b905f5260205f20015481526020019081526020015f205f9055806001019050611411565b50505f9055565b5f61146f826301ffc9a760e01b61149c565b15610832575f80611488846001600160e01b03196114bd565b915091508180156105f45750159392505050565b5f5f5f6114a985856114bd565b915091508180156107f85750949350505050565b6301ffc9a760e01b5f818152600483905290819060208260248188617530fa92505f511515601f3d11169150509250929050565b5f60208284031215611501575f5ffd5b81356001600160e01b031981168114610810575f5ffd5b6001600160a01b0381168114610564575f5ffd5b5f5f5f5f6080858703121561153f575f5ffd5b843561154a81611518565b9350602085013561155a81611518565b9250604085013561156a81611518565b9396929550929360600135925050565b5f6020828403121561158a575f5ffd5b813561081081611518565b602080825282518282018190525f918401906040840190835b818110156115d55783516001600160a01b03168352602093840193909201916001016115ae565b509095945050505050565b602081525f82518060208401528060208501604085015e5f604082850101526040601f19601f83011684010191505092915050565b5f5f60408385031215611626575f5ffd5b823561163181611518565b946020939093013593505050565b60ff81168114610564575f5ffd5b5f6020828403121561165d575f5ffd5b81356108108161163f565b5f5f5f6060848603121561167a575f5ffd5b833561168581611518565b9250602084013561169581611518565b929592945050506040919091013590565b5f5f602083850312156116b7575f5ffd5b823567ffffffffffffffff8111156116cd575f5ffd5b8301601f810185136116dd575f5ffd5b803567ffffffffffffffff8111156116f3575f5ffd5b8560208260051b8401011115611707575f5ffd5b6020919091019590945092505050565b5f60208284031215611727575f5ffd5b5035919050565b634e487b7160e01b5f52603260045260245ffd5b5f60208284031215611752575f5ffd5b81518015158114610810575f5ffd5b634e487b7160e01b5f52604160045260245ffd5b5f60208284031215611785575f5ffd5b815167ffffffffffffffff81111561179b575f5ffd5b8201601f810184136117ab575f5ffd5b805167ffffffffffffffff8111156117c5576117c5611761565b604051601f8201601f19908116603f0116810167ffffffffffffffff811182821017156117f4576117f4611761565b60405281815282820160200186101561180b575f5ffd5b8160208401602083015e5f91810160200191909152949350505050565b5f60208284031215611838575f5ffd5b81516108108161163f565b8181038181111561053357634e487b7160e01b5f52601160045260245ffd5b634e487b7160e01b5f52603160045260245ffd5b5f5f85851115611884575f5ffd5b83861115611890575f5ffd5b5050820193919092039150565b80356bffffffffffffffffffffffff198116906014841015611393576bffffffffffffffffffffffff1960149490940360031b84901b169092169291505056fea26469706673582212203eeb560dee8ab479a1244c47104759fd3416c361073c50829fba85457e2504a264736f6c63430008220033",
  "linkReferences": {},
  "deployedLinkReferences": {}
}